:020000040800F2
:10000000F0FF0010B9710508410B05080D1002083A
:100010005972050859720508597205080000000058
:10002000000000000000000000000000450B050873
:10003000490B0508000000004D0B0508C5D5010857
:100040005972050859720508597205085972050850
:100050005972050859720508DDBB010801BC010889
:1000600039BC010871BC0108A9BC0108DDD8000831
:10007000EDD8000801D9000815D9000829D90008D1
:100080003DD9000851D90008597205085972050870
:10009000597205085972050859720508E1BC010832
:1000A000550C0208B50B0208650C0208A50B0208E6
:1000B000DD0B0208ED0B0208FD0B0208C5CC0008A1
:1000C00089D10008CDCC00088DD1000859720508EF
:1000D000597205084DCF010851D0010855D10108CA
:1000E00019BD01085972050835120508750C02087A
:1000F0002D0C0208850C02081D0C020865D90008A9
:1001000059720508950501080D0C02085972050879
:1001100059D201085DD301085972050859720508C2
:1001200079D900088DD90008A1D90008B5D90008EF
:10013000C9D900085972050859720508597205088D
:10014000597205085972050859720508510B0508BE
:10015000DDD90008F1D9000805DA000861D40108EA
:10016000D5CC000891D100085972050859720508CC
:10017000597205085972050859720508597205081F
:080180005972050859720508C7
:0828000000C00F0800001008E1
:1080000082B01E4B002201920193019B1C4A043353
:108010000193019B1968936803F00C03042B06D0AD
:10802000082B08D0174B184A1A6002B07047154B3E
:10803000196002B070475368506813F4800F00F065
:108040003F00536812D1C3F388130F49B1FBF0F11D
:1080500001FB03F30A4A0B495268C2F301420132A1
:108060005200B3FBF2F30B6002B07047C3F3881306
:10807000B1FBF0F101FB03F3ECE700BF5028004037
:1080800000380240D81700200024F400B84B00EB61
:10809000800103EBC10170B54A685268B2F814E080
:1080A0001EF0010F4FEA800C6ED15FFA8EF4A60726
:1080B00042D5BFF35F8F91F82040012CE5B200F06C
:1080C000D180118BBFF35F8F0CEB000103EBC1017B
:1080D00091F82040022C00F0E7800CEB000103EB4C
:1080E000C10191F82040032C07D191F8221021B151
:1080F00093F87D10002940F0E780918889B241F41F
:108100008061918093F97C100CEB000E03EBCE0E96
:108110009EF820E00EF1010E8E450CD1002183F86F
:108120007D1093F87E10002940F0B780604403EB87
:10813000C00300225A7770BD65075DD414F0400477
:1081400000F0CB80148A93F97C508E6AE4B27455A7
:108150005FFA85FE0EF1010464B291F8206083F8A5
:108160007C40E51CAE42214600F025810CEB000569
:1081700003EBC50595F82050AC42C5D10EF10201C4
:1081800049B283F87C10BFE7B2F800E02EF4006E2D
:108190004FEA0E4E4FEA1E4EA2F800E01488A4B239
:1081A00044F48064148091F82240002583F87C50C8
:1081B000002C48D093F87D40002C41D0012183F859
:1081C0007D100CEB000103EBC10191F82010022996
:1081D00004D1118889B241F4006111800CEB0001D7
:1081E00003EBC101897F41F001011182604403EB7F
:1081F000C00393F8203070BD91F82240012583F828
:108200007E50002C70D093F87D40002C71D10CEB87
:10821000000103EBC10191F82110002900F0AA80B0
:10822000118889B241F40071118093F87C100131FA
:108230004CB283F87C401188CE05FCD4214663E71C
:10824000C97FFF29BAD00CEB000103EBC1018C7F81
:1082500004F0FE041482CA7FFF2AC7D0FF2283F8ED
:108260007C20C3E791F8221000293FF42AAF93F84D
:108270007D1000293FF425AF118821F480610904A5
:10828000090C1180BFF35F8F118B118883F87E502A
:1082900089B241F4007111802FE7918821F4407177
:1082A0000904090C918041E791F8221000293FF45C
:1082B00014AF93F87D1000293FF40FAF118821F41B
:1082C00080610904090C1180918821F480610904FE
:1082D000090C918093F97C1016E71FFA8EF52D0694
:1082E0002DD493F97C100FE793F87D1000298ED0E0
:1082F00096E791F82040022C148846D924F4806433
:108300002404240C1480158A8E6A93F97C40EDB203
:1083100035558E6A118889B241F400711180E4B23A
:10832000158A611C49B2EDB275549188023489B244
:1083300064B241F4806183F87C4091807BE793F9DB
:108340007C506E1C3ED04C6A665D16826C1C91F8A7
:10835000205064B2A54283F87C4021467FF4D4AE1D
:10836000948824F480642404240C9480CCE600BF18
:10837000D8170020118893F97C4089B241F48071AC
:108380001180012183F87D1055E7A4B244F40074F4
:108390001480158A8E6A93F97C40EDB23555E4B2AB
:1083A0008E6A158A611C49B20334EDB264B2755409
:1083B00083F87C403FE7958825F480652D042D0CDB
:1083C0009580D3E683F87C40CC7F148291F82240DC
:1083D00024B991F8201000297FF408AF918821F486
:1083E00080610904090C918000E700BF30B5EAB153
:1083F0008E464FEA014C034600F1C005002419687F
:108400009A6841EA0C0142EA0E029A60C3E900143C
:108410000C33AB42F3D1D0F8C030C0F8C44043EACB
:108420000E03C0F8C030C0F8C84030BD4FEA014E5E
:108430008C46E0E783691969B3F80CC00A6830B468
:108440009C6822F0010224680A60A28992B222EAA2
:108450000C02A281027D04681F2A06D96568203AB1
:1084600008209040284245D0FEE72568082090402B
:108470002842F9D1202000FA02F2A260264A12789E
:10848000002A35D01A7E012A39D0D3F8F4200132DF
:10849000C3F8F420EFF31181502282F31288586858
:1084A0005C6C026822EA04029C6C2243C9B202603E
:1084B00081F31188D3E90C401A6999681D6C096829
:1084C00014605061D3E90E40546090600024B3F80A
:1084D000A800D5604C62C862106801242043106077
:1084E0001C7683F8F1408A899B8913439BB28B8168
:1084F00030BC7047202000FA02F2E260BEE70022A2
:1085000083F8F120D3F8F8000A68013022F0010264
:10851000C3F8F8000A60EBE70400001010B40C4C3C
:108520006368002B11DD002004F1080C0146DCF823
:10853000A03003F1C00259600C339342FBD1636851
:10854000013083420CF5807CF1DC5DF8044B704710
:1085500004000010F0B5494C04EB401C9CF82424A6
:1085600002B9F0BD464B4FF08C0E0EFB003E93F867
:10857000E06493F8E1249EF882708CF80A749642C5
:108580004FF0000C4FEA40158EF882C00ED002EB7F
:10859000420C03EBCC0C57009CF8E4C40CF1FF3EFA
:1085A000BEF1010F5CD9BCF1030F53D06019A0F8E4
:1085B0000814EFF31182902383F3128890F80A34A1
:1085C000B0F8081443EA41030021D2B29BB280F80C
:1085D0000A1482F311881A09217882EA13225A4078
:1085E000D9B1D0F82044D0F80C14D4F8A040D2432C
:1085F0001B019BB202F00F0201208840134304F1DB
:10860000C0015A0013F4004F93B202D162680243D2
:1086100062600C348C42F4D1F0BDD0F82014D0F854
:108620000C04D1F8A0401B0100F110019BB202F034
:108630000F0201208840134304F1C0015A0013F4D3
:10864000004F93B202D16268024362600C34A142CF
:10865000F4D1F0BD02F1010C0CF0030CB445A5D02F
:108660003A4403EBC202131893F8F11400299DD089
:108670006319012283F80A2498E700BF0400001060
:10868000D8170020704700BF024B03EB401090F852
:1086900025047047040000104368B0F8502010B45F
:1086A0001A83EFF31182502383F312884168446CDC
:1086B0000B6823EA0403C46C2343D2B20B6082F339
:1086C0001188D0E907418268036912681C6059610A
:1086D000D0E909415C60C46A9960B0F86010DC6060
:1086E0000023D1625DF8044B03767047037D1F2B96
:1086F00030B54FF02002046816D9A3F12005616857
:10870000AA400A420FD00C4A002182F84415416861
:108710000A681F2B22F001020A604FF0200206D9DE
:10872000203B9A40E26030BD21689A40E9E702FAB6
:1087300003F3A360F7E700BFD81700202DE9F0414D
:1087400014F08CFF1F4F204E05464FF000087C6848
:10875000002C2ADD00231A4607EB0321013391F890
:10876000F9109C4242EA0102F6D142EA0804E4B25E
:1087700090467368C3F30803A3B9EFF311838BB971
:1087800016F028FB431BB3F5FA6F02DCB8F1000FBB
:10879000DDD124B10D4B93F845254F2A09D0204651
:1087A000BDE8F08114F02EFFECE744464FF00008DE
:1087B000DFE7B3F84C250132A3F84C252046BDE88D
:1087C000F08100BF0400001000ED00E0D817002089
:1087D000074BD0F8E4105B68D0F8F0205B1A9A429F
:1087E000B8BFC0F8F030012380F81C31002070477A
:1087F000001000E04FF40063838170473D4B9FED14
:108800003E4A93F8511593F8500593F8522593F882
:1088100053C5090201EB00410A44090248BF02F1B5
:108820007F4207EE902AB3F96C2593F8540593F82C
:10883000551506EE102AB3F96825F8EEE77A06EE2C
:10884000902A67EE847AB3F96A25B8EEC66AF8EE24
:10885000E66A0002E7EE866A00EB0C40014406EE91
:10886000102AB3F9662505EE102AD3F86025000218
:1088700007EE102AB3F9642548BF01F17F41F8EEF5
:10888000C75A04EE902A07EE101AD3F85C25B8EE0A
:10889000C66AB8EEC55AE6EEA75A012006EE902A3F
:1088A000B8EEC77AA7EE865AB3F95A25B3F9583508
:1088B00027EE047AF8EEE44AB8EEE66A06EE902A6D
:1088C000A7EE246AE5EE075AF8EEE66A05EE103ADE
:1088D00026EE877AB8EEC55AF6EE004AF0EE466A02
:1088E000E7EEA56A054BA5EE247AC3ED066A83ED93
:1088F000077A7047D817002008218436301D0020E1
:1089000030B10A4BD3ED067AFDEEE77AC0ED007A7E
:1089100051B1064B9FED067AD3ED077A67EE877A61
:10892000FDEEE77AC1ED007A704700BF301D0020F0
:108930000000C842704700BF012070470120704707
:10894000704700BF024B002083F87805704700BFD6
:10895000D8170020122301480B807047880100209F
:10896000042301480B8070479C0100202048D0F868
:10897000E837D0F8EC2730B59B184FF01A040C807C
:1089800001D11C4830BD1B4AD0F8EA174FF0000E49
:1089900010467546B3F1204F4FEA137C0CF13004BA
:1089A0000EF1020E2ABF0CF1370C847080F802C061
:1089B000BEF1100FC5704FEA031300F10200E9D1B8
:1089C00000200446B1F1204F4FEA117303F1300C3F
:1089D00000F102002ABF373382F812C093740828CE
:1089E000D4744FEA011102F10202EBD1014830BD0B
:1089F00000F0FF1FA001002038B5074BD3F87C35ED
:108A00001B6A14460D4698474FF4007302682A60AB
:108A10000020236038BD00BFD817002008B5074BE1
:108A2000D3F87C3533B15B69984780F00100404250
:108A300040B208BD4FF0FF3008BD00BFD81700207E
:108A4000002070472DE9F04123B3164D16468846A5
:108A50009F18D5F87C450023A4681A464146304645
:108A6000A0470028F5D0D5F87C3533B15B6998472D
:108A700020B9D5F87C35002BF8D1FEE70136B74296
:108A800008F50078E5D1D5F88035C5F884350020A3
:108A9000BDE8F081034DD5F88035C5F88435002058
:108AA000BDE8F081D81700202DE9F0415BB31A4CE6
:108AB00016460F4603EB020804E0D4F87C1519B102
:108AC0004B699847D4F87C150D6900231A4639463E
:108AD0003046A8470028F0D1D4F87C3533B15B6923
:108AE000984720B9D4F87C35002BF8D1FEE7013641
:108AF000B04507F50077E5D1D4F88035C4F8843562
:108B00000020BDE8F081044CD4F88035C4F88435E9
:108B10000020BDE8F08100BFD8170020002070477A
:108B20000020704700207047C34B1B780BB9012011
:108B300070472DE9F04FC14DC149D5F88025C14B93
:108B4000A1FB02125209A3FB023A4FEADA0A0AEB2E
:108B50008A0AA2EB4A0A85B0B74A5FFA8AF30393FE
:108B600002F5FD6302F5A1670193002307EB8A0A72
:108B700002F581699846B04BD3F8F038434540F38D
:108B80000C81D9F81830D9F80460D3E93A3402934B
:108B900014F064FD029B95F845C502904FEA860EDD
:108BA00095F888050EF1085E04F180610EEB431E16
:108BB0003939BCF14F0F0EEB81110EEB801301D14F
:108BC000A5F84E05994240F25F811A68002A00F02C
:108BD00053811A6C002A00F06581D3F88020002AA6
:108BE00000F06281D3F8C02003F58073002AE9D138
:108BF000A3EB0E0E99424FEAAE1E40F24581A4EB64
:108C00000E0145294FF0000428BF452103EB8111D7
:108C10009B46204626460DE01A6C002A40F0C5808F
:108C2000D3F88020002A40F0EB80D3F8C02003F571
:108C300080732AB9994206D91A68002AECD04033C9
:108C4000994200F2B680112E344640F22181D6F1CD
:108C5000150200F11D817C49029E4B6B9E45D5F8A3
:108C60008C3538BFC1F834E0F11A002917DB03F561
:108C7000F42303F590739E4288BF029B724988BF1C
:108C80000533C5F88C35704B5B6B052B86BF053BF8
:108C9000DBB2002385F888354FF0FF334B6342B1D8
:108CA00000FA02F2C4F11404012000FA04F444EAC8
:108CB0000200664BC0F3C43200F01F0153F82220BB
:108CC00053F8211041EA0231C0F34412C0F384206A
:108CD00053F8222053F8203041EA021141EA0321DF
:108CE00081EA112383EA131303F00F030F2B40F0E3
:108CF000B180B1F5803F80F0AD80BCF14F0F4FEAFD
:108D0000111104D1B5F848350133A5F848354A4A60
:108D1000D2F8F037B1F5606F03F10103C2F8F03714
:108D200000F0D480019B998197F8583003988342D2
:108D300010D0DAF808203B689B1A3B60DAF8302044
:108D40007B689B1A7B600023CAF80830CAF8303071
:108D500087F858003B6801333B60DAF8083001338C
:108D6000CAF808304FF6FF73994207D17B68013388
:108D70007B60DAF830300133CAF83030019B08F1FB
:108D800001081433B8F1080F07F15C070AF15C0A17
:108D9000019309F120097FF4EEAE274A0123012057
:108DA00082F8EE3805B0BDE8F08F803399427FF647
:108DB0004AAF5A469A1A9211541C254A82FB04B2B1
:108DC000A2EBE472012AB8BF0122904001241644AC
:108DD000013A04FA02F210431C46226892B1226C56
:108DE000002A63D0D4F88020002A61D0D4F8C020B3
:108DF00004F580743AB1A142EFD89B46234619E7A7
:108E0000C0331DE74034A142F7D9E31A9B115A1C25
:108E10000F4B83FB02B3A3EBE273012BB8BF01231B
:108E200098401E440122013B02FA03F318432346F3
:108E30009B462346FEE600BF04000010D817002022
:108E40001F85EB51CDCCCCCC88010020CC88050807
:108E500056555555BCF14F0F2CD0244AD2F8F03757
:108E60000133C2F8F037214AD2F8EC370133C2F8A7
:108E7000EC374FF6FF7157E74033A3EB0E0E9942E4
:108E80004FEAAE1E3FF6BBAE10B1013885F888053B
:108E9000BCF14F0F7FF472AFB5F84A350133A5F836
:108EA0004A356BE78033A3E6C033A1E68034AAE7F6
:108EB000C034A8E7B5F848350C4A0133A5F8483561
:108EC000D2F8F0370133C2F8F037CCE795F8E13447
:108ED00003EB430305EBC303434493F8F1340D2B39
:108EE0007FF420AF019A802393771DE704000010E0
:108EF00010B504464EF0BCFF81B22046BDE81040DC
:108F0000FFF728BB2DE9F0411E4B93F8E02493F8BE
:108F1000E1349A422FD11C4F7D68002D12DD384676
:108F2000002410F8086BA046013416B1037E012B13
:108F30001CD002691368AC4243F0010300F5807055
:108F40001360F1D114F08AFBD7F8F448002C0BDD44
:108F50000E4A02EBC40411689388888908320343DF
:108F60009BB294428B81F6D1BDE8F08180F8F0800D
:108F7000FFF792FBDDE74BF089FD0028CBD1BDE880
:108F8000F08100BFD817002004000010FC0800107A
:108F900010B57D4C94F8E02494F8E1349A4240F006
:108FA00099817A4B93F81829002A00F0EC8093F805
:108FB0001C39002B40F0EC80D4F89015088820F084
:108FC00080000004000C0880B4F89405C86208888A
:108FD00080B240F0800008804B62B1F80CC0B4F859
:108FE000A40540EA0C0080B2012A8881A4F8A435C7
:108FF00000F0C980D4F8A815088820F0800000048B
:10900000000C0880B4F8AC05C862088880B240F053
:10901000800008804B62B1F80CC0B4F8BC0540EA8F
:109020000C0080B2022A8881A4F8BC3500F0AB8025
:10903000D4F8C015088820F080000004000C0880D7
:10904000B4F8C405C862088880B240F08000088087
:109050004B62B1F80CC0B4F8D40540EA0C0080B201
:10906000032A8881A4F8D43500F08D80D4F8D8156F
:10907000088820F080000004000C0880B4F8DC05AB
:10908000C862088880B240F0800008804B62B1F866
:109090000CC0B4F8EC0540EA0C0080B2042A8881C8
:1090A000A4F8EC356FD0D4F8F015088820F08000D3
:1090B0000004000C0880B4F8F405C862088880B287
:1090C00040F0800008804B62B1F80CC0B4F8040690
:1090D00040EA0C0080B2052A8881A4F8043652D0F8
:1090E000D4F80816088820F080000004000C0880DE
:1090F000B4F80C06C862088880B240F0800008808E
:109100004B62B1F80CC0B4F81C0640EA0C0080B207
:10911000062A8881A4F81C3635D0D4F82016088891
:1091200020F080000004000C0880B4F82406C86217
:10913000088880B240F0800008804B62B1F80CC013
:10914000B4F8340640EA0C0080B2072A8881A4F8FB
:10915000343618D0D4F83826B4F83C06118821F0FB
:1091600080010904090C1180D0621088B4F84C16F3
:1091700080B240F08000108053629089014389B230
:109180009181A4F84C3610BDD817002004000010BF
:10919000D4F89835B4F89C1559601968D4F890053E
:1091A00041F00101196040F20D33A0F84830818987
:1091B00089B241F48071012A8181E4D0D4F8B015DC
:1091C000B4F8B4054860086840F001000860D4F8BD
:1091D000A805A0F84830818989B241F48071022A3B
:1091E0008181D0D0D4F8C815B4F8CC05486008689F
:1091F00040F001000860D4F8C005A0F8483081892B
:1092000089B241F48071032A8181BCD0D4F8E01581
:10921000B4F8E4054860086840F001000860D4F83C
:10922000D805A0F84830818989B241F48071042AB8
:109230008181A8D0D4F8F815B4F8FC054860086816
:1092400040F001000860D4F8F005A0F848308189AA
:1092500089B241F48071052A818194D0D4F8101626
:10926000B4F814064860086840F001000860D4F8BB
:109270000806A0F84830818989B241F48071062A35
:10928000818180D0D4F82816B4F82C06486008688C
:1092900040F001000860D4F82006A0F84830818929
:1092A00089B241F48071072A81813FF46CAFD4F810
:1092B0004016B4F844264A600868D4F8382640F0CE
:1092C00001000860A2F8483093899BB243F4807390
:1092D000938110BD4BF0DAFB00287FF462AE10BD25
:1092E00070B5104ED6F8F038002B19DD06F5816404
:1092F000002505E0D6F8F038AB4204F120040FDD7C
:10930000237F0135002BF5D0E0680028F2D0217DC5
:1093100012F0C2FED6F8F038AB4204F12004EFDCC4
:10932000012070BD04000010F8B5037D85691F2B76
:1093300004464DD90168A3F120024E6820209040D8
:10934000064234D010239340C860CB604B68D340B2
:10935000DE0700F18380EFF31183502282F312883D
:109360002A6C1168C9075AD4516889B271B9D5E914
:109370000960864250D0AF690744D76073D9301A6C
:1093800080B25060AE62002185F86410116841F02F
:109390000101DBB2116083F3118895F86430002B72
:1093A00044D1237D1F2B27D92168A3F120024C68CB
:1093B00008209040044200D0C8604C68042000FAA5
:1093C00002F2224203D0203B00FA03F3CB60F8BD47
:1093D0000268202016689840064219460ED01021D7
:1093E0009940906091601168D940C807B3D50121B8
:1093F00001FA03F39360AEE7226819461068082368
:109400008B40184200D093601068042303FA01F1E6
:109410000142DCD09160F8BD012285F86420DBB206
:1094200083F3118895F86430002BBAD095F87C301E
:10943000002BB6D195F8710013F0A2FA2A6E938929
:1094400023F008031B0401211B0C938185F87C1079
:109450000028A6D0202112F01FFEA2E7012303FA64
:1094600002F2CA6077E72E69301A80B25060A962B2
:1094700089E700BF2DE9F047037D02681F2B0446F2
:1094800008D95068A3F120052021A940014206D146
:10949000BDE8F0871068202199400142F8D0BB490F
:1094A000BB4E4968C6F8201996F81C19D4F81890D4
:1094B000DFF8E482F1B98C2101FB0981D1F8880041
:1094C000D1F8007105683868B1F88CC020F001004F
:1094D0003860A98989B221EA0C01A9813178E9B9FA
:1094E0001F2B40F2B580A3F1200120238B40D360D5
:1094F000BDE8F0878C2101FB0981D1F8881048690B
:109500000D68016821F001010160A98921F48071D1
:109510000904090CA98131780029E1D04FF08C0AA7
:109520000AFB098ADAF80071384645F0A1FCD6F842
:10953000283901228AF8D420002B00F0F5802A88EF
:109540008C2303FB098392B242F080022A80B3F895
:10955000F4204FF0FF31E962002A7FD12A8CB3F862
:10956000F610B3F8F800B3F8FCC022F001021204C0
:10957000120C2A84B3F8FA202B8B23F0F3031B047C
:1095800040EA0C101B0C0343288C9BB22B8383B244
:1095900023F00A030B4343F001032B842B8B23F0AE
:1095A0000C031B041B0C2B832B8B9BB21A432A83AB
:1095B0008C2303FB09830022D3F8AC00C3F8A4205A
:1095C000D3F8982039680243D3F8B0000243D3F8A7
:1095D000B4000243D3F8B8000243D3F8BC000243FE
:1095E000D3F8C0000243D3F8CC000243D3F8D00034
:1095F00002436848084002433A60D3E93120796960
:10960000024321F007010A437A61D3F8A8207A6067
:10961000D3F89C20BA60D3F8A020FA60D3F80021D8
:1096200016215160116841F001011160D3F88820C2
:10963000B3F88C30126891890B439BB253499381E4
:109640004B68C6F82439237D22681F2B3FF64BAFA9
:10965000202101FA03F39360BDE8F087042A33D098
:10966000082A2A8C65D022F48052B3F8FC10B3F893
:10967000F800B3F8F6C01204120C2A84090341EA78
:109680000020A98BB5F820E0B3F8FA2045F6FF7367
:1096900003EA0E0343EA0C3340F6FF4C0CEA0101E7
:1096A0009BB2014343F4805389B2A9832B84AB8BD3
:1096B00023F440631B041B0CAB83AB8B9BB243EACC
:1096C00002239BB2AB8373E7298CB3F8F820B3F87D
:1096D000FC00B3F8F6C021F010010904090C29843C
:1096E0001202B3F8FA1042EA0032288B2B8C9BB29C
:1096F00023F0A00343EA0C1340F6FF4C0CEA0000F1
:109700009BB2024343F0100392B22A832B842B8B2B
:1097100023F440631B041B0C2B832B8B9BB243EA6B
:1097200001239BB22B8343E713F098FFC6F8280967
:1097300005E722F480721204120CB3F8F600B3F8B5
:10974000F810B3F8FCC02A84B3F8FA20AB8B23F0EE
:10975000F3031B0441EA0C111B0C0B4399B22B8C35
:10976000A9839BB223F4206343EA00239BB243F412
:1097700080732B84AB8B23F00C031B041B0CAB837B
:10978000AB8B9BB21A43AA8312E700BF001000E024
:10979000040000103F801CF0D81700202DE9F04F86
:1097A000DFF80CB19BF8004087B024B901242046B3
:1097B00007B0BDE8F08F3B4ED6F8805513F04EFF52
:1097C0009BF860390390002B00F0DE82364AA2FB42
:1097D0000532364B5209A3FB0213DB0803EB83036C
:1097E000A2EB4303DAB204920BF5A16202EB83030E
:1097F00000930BF5FD63019206F1E004029300274C
:10980000DBF82839039AD31A04D454F8082C93426D
:10981000C0F26A82234A54F858AC256ADAF800602C
:109820008C2303FB072393F8D430002B40F0968160
:10983000284645F01DFB1B4A8C2303FB072300220F
:1098400083F8D4209AF805100C2914D8DFE811F019
:1098500078011300130013007101130013001300AB
:109860007F011300130013000D00B38B23F400637A
:109870001B041B0CB3832246304617F097FA9AF864
:1098800005300C2B1ED8DFE813F04B011D001D0026
:109890001D0042011D001D001D0039011D001D009D
:1098A0001D001500D81700201F85EB51CDCCCCCC66
:1098B00004000010B38B23F400631B041B0C43F45F
:1098C0000063B383019B54F8342C54F8101C5C33B0
:1098D0000193009B5C330093029B1433029354F872
:1098E000483C43F04003134354F8302C134354F8DE
:1098F0002C2C134354F8282C134354F8242C1343D2
:1099000054F8202C1343402244F83C2C54F8142CD7
:1099100013432A6822F07E6222F45F3222F47072CE
:109920000B4313432B6054E907316A690B4322F060
:10993000070213436B6154F8383C6B6054F8443CA5
:10994000AB6054F8403CEB602B6843F010032B6095
:109950009BF8603901379F4204F18C04FFF650AF49
:10996000012200218BF8EE28CBF82819002B3FF4B8
:109970001DAF9D4890F89010890700F1A081D0F8A4
:109980008810086849798A40018C92B289B221EA2C
:1099900002010184018C89B20A43012B02843FF445
:1099A00005AF914991F81C21970700F1A281D1F8E8
:1099B000142110685479018C012289B2A24092B21C
:1099C00021EA02010184018C89B20A43022B02843C
:1099D0003FF4ECAE844991F8A821960700F1A281EA
:1099E000D1F8A02110685479018C012289B2A240DB
:1099F00092B221EA02010184018C89B20A43032B4D
:109A000002843FF4D3AE784991F83422950700F1EF
:109A10009281D1F82C2210685479018C012289B2EC
:109A2000A24092B221EA02010184018C89B20A4368
:109A3000042B02843FF4BAAE6B4991F8C02294071C
:109A400000F18281D1F8B82210685479018C01228A
:109A500089B2A24092B221EA02010184018C89B24A
:109A60000A43052B02843FF4A1AE5F4991F84C23D1
:109A7000900700F17281D1F8442310685479018C69
:109A8000012289B2A24092B221EA02010184018C32
:109A900089B20A43062B02843FF488AE524991F8FA
:109AA000D823920700F16281D1F8D023106854794D
:109AB000018C012289B2A24092B221EA0201018402
:109AC000018C89B20A43082B02847FF46FAE464AA8
:109AD00092F864349B0740F15281D2F85C2404234D
:109AE000116850790A8C83409BB292B222EA030239
:109AF0000A840A8C92B213430B8457E6B38B23F08B
:109B000008031B041B0C43F00803B383DAE6338B12
:109B100023F400631B041B0C43F400633383D1E67E
:109B2000338B23F008031B041B0C43F0080333831F
:109B3000C8E6338B23F400631B041B0C33839AE6C3
:109B4000338B23F008031B041B0C338393E6B38B86
:109B500023F008031B041B0CB3838CE66B6834F8FA
:109B6000542C1FFA83F8B389C8F116089BB223EA74
:109B70000203B8F1070FB3817FF65AAEDBF8F03776
:109B80000133CBF8F037A36A05939E4600225EF8B6
:109B900004CB0121914660461DE0DEF800C0B9F11A
:109BA000140FACEB000321DC13F1080048BF03F1F4
:109BB0001700031109EB2019604603F1FF3C013146
:109BC00002FA03F3012202FA0CF2884542EA030288
:109BD0000EF1040E0AD38845DFD8C9F11503DEF86B
:109BE00000004FF01509E8E7D8170020B9F1150F6C
:109BF0005CD16848C2F38423C2F3441100EB8303B1
:109C000000EB8101D3F88030D1F880101B0243EAC9
:109C1000011302F01F0100EB8101C2F3C43200EB1B
:109C20008202D1F88010D2F880200B4343EA02333D
:109C300083EA132282EA121202F00F020F2A35D1B0
:109C4000C3F30F134FF6FF7293422FD0B3F5606F3B
:109C500058D0029A93810198049990F858208A422A
:109C600010D0009A91680268521A00990260096B3C
:109C70004268521A0099426000228A600A6304997D
:109C800080F85810019900980A6801320A608268C9
:109C9000013282604FF6FF7293427FF4C9AD4B6888
:109CA00001334B60036B01330363C1E5DBF8EC3731
:109CB0000133CBF8EC376FB14FF6FF73CBE7364A81
:109CC000D2F8882010685479018C0422A24089B20D
:109CD00092B25CE60599314858224EF041FDDAF81F
:109CE00000604FF6FF73B6E70024204607B0BDE8DA
:109CF000F08F294AD2F8142110685479018C04227B
:109D000089B25BE6244991F8E12402EB420201EBBF
:109D1000C2023A4492F8F1240D2A9AD10299802283
:109D20008A7798E71C4AD2F8A02110685479018CF0
:109D3000042289B25BE6184AD2F82C2210685479C2
:109D4000018C042289B26BE6134AD2F8B82210685B
:109D50005479018C042289B27BE60F4AD2F844235D
:109D600010685479018C042289B28BE60A4AD2F831
:109D7000D02310685479018C042289B29BE6064BEB
:109D8000D3F85C240123ABE601228BF8EE28CBF854
:109D900028390CE5CC880508D81700209808001051
:109DA000F8B590F871301C09013C052C0FD81B4EFA
:109DB00006EB44020546B2F8000103F00F0340FA37
:109DC00003F2D20703D595F87C70012F01D0012052
:109DD000F8BD07FA03F3013B184034444DF06EF828
:109DE00094F80C210E4C104454F8302004EBC004BD
:109DF0001069A3881840EBD0EB6E002285F87C2018
:109E000093F821202046022112F026FB2A6E938926
:109E10009BB243F0080338469381F8BDCC8805080F
:109E2000281E00202DE9F04F836893B0044613B13B
:109E30001A689B885383B64B5B68C3F30803002BF7
:109E400040F04081EFF31183002B40F03B81B14B98
:109E50004FF0E025D3F88015A869D3F880258A4211
:109E6000F8D1D3F858198842F4D8D3F854694FF48C
:109E70007A7505FB06F1091AB1FBF6F105FB021133
:109E8000A34E4FF0E0204FF47A754FF0100C0127ED
:109E90007268C2F30802002A40F0C780EFF3118213
:109EA000002A40F0C280D3F88085D0F818E0D3F8BB
:109EB00080259045F7D1D3F858299645F3D8D3F8A3
:109EC000549905FB09F2A2EB0E02B2FBF9F205FB75
:109ED0000822521AB2F57A7FDAD3A26812B1116859
:109EE00092880A838A484FF00A0B10254FF0E02130
:109EF0004FF47A7C4268C2F30802002A40F0B7802F
:109F0000EFF31182002A40F0B280D3F88025D1F817
:109F10001880D3F88065B242F7D1D3F85869B045BC
:109F2000F3D8D3F854990CFB09FEAEEB080EBEFB38
:109F3000F9FE0CFB02EE4268C2F30802002A54D17B
:109F4000EFF31182002A50D1D3F880658F69D3F8DE
:109F500080259642F8D1D3F858299742F4D8D3F8FF
:109F600054A90CFB0AF2D21BB2FBFAF20CFB06223C
:109F7000A2EB0E02B2F57A7FDDD3BBF1010BB9D1B2
:109F80002368ADF804B05A6A2AB1944203D0002085
:109F900013B0BDE8F08F1B6A002BF8D180200DF1C3
:109FA00003018DF80300029101A80221CDE9080107
:109FB000002000210122CDE90C0102A92046CDE9B3
:109FC0000332CDE906338DF814308DF828200B9339
:109FD0000E938DF83C20109311F046FA23685A6ACC
:109FE000002A68D094425AD0FEE7EFF3118985F336
:109FF00012888F690A69D20303D50122C3F8502958
:10A000008F69D3F88025D3F850695FFA89F989F30D
:10A01000118806EB0208D3F854690CFB06F2D21B38
:10A02000B2FBF6F20CFB0822A2E7EFF311828CF3ED
:10A030001288D0F81880D0F810E01EF4803F03D0CA
:10A04000C3F85079D0F81880D3F88095D3F850E948
:10A05000D2B282F31188CE44D3F8549905FB09F2A9
:10A06000A2EB0802B2FBF9F205FB0E2231E7EFF397
:10A07000118E85F31288D1F818800A69D60304D5A9
:10A080000122C3F85029D1F81880D3F88095D3F86D
:10A0900050295FFA8EFE8EF311884A4441E71A6A0E
:10A0A000002AFCD19DF80530242B14BF00200F207E
:10A0B00013B0BDE8F08F1A6A002AF3D01A6A002A9A
:10A0C000F9D1EFE7EFF31181102383F312884FF0FA
:10A0D000E0229069136913F4803F0E4B03D00120F6
:10A0E000C3F850099069D3F88055D3F85029C9B204
:10A0F00081F31188D3F8546951194FF47A7505FB2F
:10A1000006F2121AB2FBF6F205FB0121B8E600BF17
:10A1100000ED00E0D817002010B504460E49D0F835
:10A12000D83094F8D020D0F8E40049680344012ADC
:10A13000C4E9361305D0D4F8D4300133C4F8D43090
:10A1400010BD04F1E801201D11F08EF9D4F8D430CF
:10A150000133C4F8D43010BD001000E070B586693A
:10A1600096F8DC30012B8AB0054629D0023B012B42
:10A1700031D8D6F89C301D4C8C221A700FCCEC468E
:10A18000ACE80F00D6F89C300093D6F8A0300193CD
:10A190000FCCACE80F0094E80300AB698CE8030037
:10A1A00003F11000694611F05FF9AA691369596A51
:10A1B000103299B18A4200D0FEE71A6A002AFCD117
:10A1C000D6F8A030B3F90220EA81B3F904202A823C
:10A1D000B3F906306B8201200AB070BD1A6A002AFA
:10A1E000EED01A6A002AF9D1EAE700BFE089050833
:10A1F0002DE9F04190F81E31032B92B0044650D067
:10A2000090F8DC00D4F8A070012800F0E28016D8A5
:10A21000D4F89C3000221A605A609A609A81D4F86F
:10A22000E0300522B3F57A7FC4F8F0202CD8012560
:10A230000323284684F8DC3012B0BDE8F0810238F0
:10A24000012829D8D4F89C30804E92221A700FCE63
:10A2500002AD0FC50FCE0FC596E80300D4F89C30B1
:10A2600004F1100885E80300029302A9D4F8A03095
:10A270000393404611F0F8F823695A6A002A00F067
:10A280008F80904578D0FEE723691A7B002A40F042
:10A29000B980022384F8DC300125284612B0BDE8DD
:10A2A000F0810023CDE90633CDE9083368490B93EB
:10A2B00000F11006674B02910122039302A90A23C1
:10A2C00030468DF814208DF82820049311F0CCF836
:10A2D00023695A6A002A48D0964200D0FEE71A6ADB
:10A2E000002AFCD15C4AB2F85E39052B5FDDB2F979
:10A2F0006019D2F86009B2F96259B2F9642911F50E
:10A30000004F77D0C4F8D000A4F8D4200125063B34
:10A31000002BC2D07E238DF80630B0238DF8073095
:10A320000DF106030293002303938DF81430069376
:10A3300008930B930E9310930123049309938DF8C4
:10A3400028308DF83C300DF107030022079302A955
:10A3500000233046CDE90C2311F086F823695A6AB0
:10A36000002A2ED0964224D0FEE71A6A002AB9D0DD
:10A370001A6A002AF9D1B5E71A6A002AFCD1B7F99E
:10A380000230A4F8D030B7F90430A4F8D230B7F9CD
:10A390000630A4F8D4300125284612B0BDE8F0817B
:10A3A0001A6A002AEBD01A6A002AF9D1E7E70025D9
:10A3B000AEE71A6A002A3FF470AF1A6A002AF8D191
:10A3C0006BE71A6A002A3FF468AF1A6A002AF8D1CC
:10A3D00063E7B7F90830A4F8D030B7F90A30A4F829
:10A3E000D230B7F90C30A4F8D4300546284612B064
:10A3F000BDE8F08115F5004F84D112F5004F81D1F1
:10A40000002584E75B69002B3FF443AF94F8985034
:10A41000002D3FF43EAFD4F89C30C4F8A4408C2209
:10A420001A70D4F8A020C4F8F8200E2201230B499A
:10A43000C4F8FC20D4F89C20C4F80411C4F8F4201B
:10A4400084F8003184F8DC3027E700BFE089050894
:10A45000C001002034210020D8170020D187000837
:10A460002DE9F04F95B000230122CDE90532CDE969
:10A470000A328DF81C3008930D9310931293B62373
:10A48000054600F110077E2190F81E018DF80F306F
:10A490000DF10F0301908DF80E108DF830208DF81E
:10A4A00044200993002200230DF10E0604A938462A
:10A4B000CDE90E23049610F0D7FF2B695A6A002AC3
:10A4C00000F03B81974200D0FEE71A6A002AFCD1D7
:10A4D00064239E4CDFF8788207EE907A4FF01009E3
:10A4E0004FF0E0224FF47A7C4FF0010B9A46D8F8F7
:10A4F0000430C3F30803002B40F04687EFF31183C9
:10A50000002B40F04187D4F880359069D4F880154D
:10A510008B42F8D1D4F858198842F4D8D4F8541999
:10A520000CFB01FEAEEB000EBEFBF1FE0CFB03EEDE
:10A53000D8F80430C3F30803002B40F03B86EFF358
:10A540001183002B40F03686D4F880759369D4F8D7
:10A5500080158F42F8D1D4F858198B42F4D8D4F82A
:10A5600054190CFB01F0C31AB3FBF1F30CFB0733D6
:10A57000A3EB0E03B3F57A7FDAD3BAF1010AB6D1B1
:10A58000AB6917EE907A13B11A689B885383704BAE
:10A590005B68C3F30803002B41F02E84EFF31183B3
:10A5A000002B41F029844FF0E02ED4F88025DEF80E
:10A5B00018C0D4F880359A42F7D1D4F858399C4560
:10A5C000F3D8A0EB0C03B3FBF1F34FF47A7101FB6A
:10A5D0000233DFF87C814FF0E0204FF47A7E4FF0B9
:10A5E000100A4FF0010BD8F80420C2F30802002A29
:10A5F00040F06786EFF31182002A40F06286D4F8BB
:10A600008015D0F818C0D4F880259142F7D1D4F83D
:10A6100058299445F3D8D4F854990EFB09F2A2EBCB
:10A620000C02B2FBF9F20EFB0122D21AB2F57A7FCC
:10A63000D9D3AB6913B11A689B881383DFF81081F3
:10A640004FF00A094FF0100A4FF0E0224FF47A7CE5
:10A65000BB46D8F80430C3F30803002B40F0A986AA
:10A66000EFF31183002B40F0A486D4F88035906975
:10A67000D4F880158B42F8D1D4F858198842F4D810
:10A68000D4F854790CFB07F1091AB1FBF7F10CFB74
:10A690000311D8F80430C3F30803002B40F0688599
:10A6A000EFF31183002B40F06385D4F880059769A0
:10A6B000D4F880359842F8D1D4F858399F42F4D86C
:10A6C000D4F854E90CFB0EF3DB1BB3FBFEF30CFBDD
:10A6D00000335B1AB3F57A7FDBD3B9F10109B8D146
:10A6E0000DF10F03CDE90939012306930B938DF882
:10A6F00030308DF844307C2300228DF80E3004A9D0
:10A7000000235846CDE90E23CDE904698DF80F905A
:10A710008DF81C90CDF82090CDF83490CDF8409075
:10A72000CDF8489010F0A0FE2B695A6A5F46002AC7
:10A7300000F0908093450DD0FEE71A6A002A3FF49E
:10A74000C7AE1A6A002AF8D1C2E600BFD8170020A7
:10A7500000ED00E01A6A002AFCD1874B5B68C3F366
:10A760000803002B41F02483EFF31183002B41F009
:10A770001F834FF0E020D4F880358169D4F880251C
:10A780009342F8D1D4F858299142F4D8D4F854C956
:10A790004FF47A7000FB0CF2511AB1FBFCF100FB94
:10A7A0000311DFF8D4814FF0E0204FF47A7E4FF0B0
:10A7B000100A4FF0010BD8F80430C3F30803002B44
:10A7C00040F06885EFF31183002B40F06385D4F8E7
:10A7D0008025D0F818C0D4F880359A42F7D1D4F843
:10A7E00058399C45F3D8D4F854990EFB09F3A3EBE0
:10A7F0000C03B3FBF9F30EFB02335B1AB3F57A7F5C
:10A80000D9D30DF10F03099300238DF80F30059371
:10A810008DF81C3008930A930D9310931293012323
:10A8200006930B938DF830308DF844305923002275
:10A830008DF80E3004A900233846CDE90E23049686
:10A8400010F012FE2B695A6A002A00F08C809742A1
:10A8500008D0FEE71A6A002A3FF47FAF1A6A002A7E
:10A86000F8D17AE71A6A002AFCD1434B5B68C3F33C
:10A870000803002B41F07882EFF31183002B41F0A5
:10A8800073824FF0E020D4F880358169D4F88025B8
:10A890009342F8D1D4F858299142F4D8D4F854C945
:10A8A0004FF47A7000FB0CF2511AB1FBFCF100FB83
:10A8B0000311DFF8C4804FF0E0204FF47A7E4FF0B0
:10A8C000100A4FF0010BD8F80430C3F30803002B33
:10A8D00040F02485EFF31183002B40F01F85D4F85E
:10A8E0008025D0F818C0D4F880359A42F7D1D4F832
:10A8F00058399C45F3D8D4F854990EFB09F3A3EBCF
:10A900000C03B3FBF9F30EFB02335B1AB3F57A7F4A
:10A91000D9D3002305938DF81C3008930A930D9327
:10A9200010931293012306938DF830308DF8443044
:10A93000124B09935E238DF80D300DF10D03049336
:10A940004FF4A47300220B9304A900233846CDE9E9
:10A950000E2310F089FD2B695A6A002A00F09280BC
:10A9600097420DD0FEE71A6A002A3FF47EAF1A6ABA
:10A97000002AF8D179E700BF00ED00E0088A050859
:10A980001A6A002AFCD1DFF838834FF00A094FF029
:10A99000100A4FF0E0224FF47A7CBB46D8F804301E
:10A9A000C3F30803002B40F0D084EFF31183002B96
:10A9B00040F0CB84D4F880359069D4F880158B4270
:10A9C000F8D1D4F858198842F4D8D4F854790CFB4B
:10A9D00007F1091AB1FBF7F10CFB0311D8F80430A9
:10A9E000C3F30803002B40F0A283EFF31183002B85
:10A9F00040F09D83D4F880059769D4F8803598425B
:10AA0000F8D1D4F858399F42F4D8D4F854E90CFB63
:10AA10000EF3DB1BB3FBFEF30CFB00335B1AB3F549
:10AA20007A7FDBD3B9F10109B8D10DF10F03CDE97C
:10AA3000093901238DF80F3006930B938DF83030D0
:10AA40008DF84430592300228DF80E3004A90023DC
:10AA50005846CDE90E23CDE904698DF81C90CDF858
:10AA60002090CDF83490CDF84090CDF8489010F07B
:10AA7000FBFC2B695A6A5F46002A00F090809345E0
:10AA800008D0FEE71A6A002A3FF47DAF1A6A002A4E
:10AA9000F8D178E71A6A002AFCD1894B5B68C3F3C6
:10AAA0000803002B41F03A81EFF31183002B41F0B2
:10AAB00035814FF0E020D4F880358169D4F88025C5
:10AAC0009342F8D1D4F858299142F4D8D4F854C913
:10AAD0004FF47A7000FB0CF2511AB1FBFCF100FB51
:10AAE0000311DFF8DC814FF0E0204FF47A7E4FF065
:10AAF000100A4FF0010BD8F80430C3F30803002B01
:10AB000040F08683EFF31183002B40F08183D4F86B
:10AB10008025D0F818C0D4F880359A42F7D1D4F8FF
:10AB200058399C45F3D8D4F854990EFB09F3A3EB9C
:10AB30000C03B3FBF9F30EFB02335B1AB3F57A7F18
:10AB4000D9D3019B032B01F09F810DF10F030993D2
:10AB5000002305938DF81C3008930A930D931093EE
:10AB60001293012306930B938DF830308DF8443007
:10AB700040238DF80E309B2300228DF80F3004A95E
:10AB800000233846CDE90E23049610F06DFC2B69A6
:10AB90005A6A002A00F08C80974208D0FEE71A6AB1
:10ABA000002A3FF47AAF1A6A002AF8D175E71A6AC8
:10ABB000002AFCD1424B5B68C3F30803002B41F031
:10ABC0003F81EFF31183002B41F03A814FF0E020F9
:10ABD000D4F880358169D4F880259342F8D1D4F82F
:10ABE00058299142F4D8D4F854C94FF47A7000FB34
:10ABF0000CF2511AB1FBFCF100FB0311DFF8C0802D
:10AC00004FF0E0204FF47A7E4FF0100A4FF0010B26
:10AC1000D8F80430C3F30803002B40F02583EFF38A
:10AC20001183002B40F02083D4F88025D0F818C081
:10AC3000D4F880359A42F7D1D4F858399C45F3D8E6
:10AC4000D4F854990EFB09F3A3EB0C03B3FBF9F30F
:10AC50000EFB02335B1AB3F57A7FD9D30DF10F03E4
:10AC60000993002305938DF81C3008930A930D93E4
:10AC700010931293012306930B938DF830308DF8C7
:10AC8000443041238DF80E30032300228DF80F301D
:10AC900004A900233846CDE90E23049610F0E4FB06
:10ACA0002B695A6A002A00F09C8097420AD0FEE77E
:10ACB0001A6A002A3FF47EAF1A6A002AF8D179E7AF
:10ACC00000ED00E01A6A002AFCD18E4B5B68C3F3EA
:10ACD0000803002B41F0D981EFF31183002B41F0E1
:10ACE000D4814FF0E020D4F880358169D4F88025F4
:10ACF0009342F8D1D4F858299142F4D8D4F854C9E1
:10AD00004FF47A7000FB0CF2511AB1FBFCF100FB1E
:10AD10000311DFF8F0814FF0E0204FF47A7E4FF01E
:10AD2000100A4FF0010BD8F80430C3F30803002BCE
:10AD300040F08482EFF31183002B40F07F82D4F83F
:10AD40008025D0F818C0D4F880359A42F7D1D4F8CD
:10AD500058399C45F3D8D4F854990EFB09F3A3EB6A
:10AD60000C03B3FBF9F30EFB02335B1AB3F57A7FE6
:10AD7000D9D394F86939013BDBB2022B00F2388356
:10AD8000614A134493F884321B0163F03203DBB24F
:10AD90008DF80F300DF10F030993002305938DF803
:10ADA0001C3008930A930D9310931293012306937A
:10ADB0000B938DF830308DF84430422300228DF80B
:10ADC0000E3004A900233846CDE90E23049610F076
:10ADD0004BFB2B695A6A002A00F08C80974208D0FE
:10ADE000FEE71A6A002A3FF470AF1A6A002AF8D107
:10ADF0006BE71A6A002AFCD1424B5B68C3F3080375
:10AE0000002B40F06787EFF31183002B40F062873F
:10AE10004FF0E020D4F880358169D4F88025934242
:10AE2000F8D1D4F858299142F4D8D4F854C94FF441
:10AE30007A7000FB0CF2511AB1FBFCF100FB03111C
:10AE4000DFF8C0804FF0E0204FF47A7E4FF0100A18
:10AE50004FF0010BD8F80430C3F30803002B40F087
:10AE60004782EFF31183002B40F04282D4F8802513
:10AE7000D0F818C0D4F880359A42F7D1D4F85839B0
:10AE80009C45F3D8D4F854990EFB09F3A3EB0C03BB
:10AE9000B3FBF9F30EFB02335B1AB3F57A7FD9D318
:10AEA0000DF10F030993002305938DF81C300893CF
:10AEB0000A930D9310931293012306930B938DF82D
:10AEC00030308DF8443043238DF80E3008230022B3
:10AED0008DF80F3004A900233846CDE90E230496DF
:10AEE00010F0C2FA2B695A6A002A00F09680974245
:10AEF0000CD0FEE71A6A002A3FF47EAF1A6A002AD5
:10AF0000F8D179E700ED00E0CC8805081A6A002A3C
:10AF1000FCD1BE4B5B68C3F30803002B40F01886DE
:10AF2000EFF31183002B40F013864FF0E020D4F8AC
:10AF300080358169D4F880259342F8D1D4F8582916
:10AF40008A42F4D3D4F854C94FF47A7000FB0CF25F
:10AF5000511AB1FBFCF100FB0311DFF8B0824FF096
:10AF6000E0204FF47A7E4FF0100A4FF0010BD8F832
:10AF70000430C3F30803002B40F03181EFF3118359
:10AF8000002B40F02C81D4F88035D0F818C0D4F8CC
:10AF900080259A42F7D1D4F858396345F3D3D4F8D1
:10AFA00054990EFB09F3A3EB0C03B3FBF9F30EFB6F
:10AFB00002335B1AB3F57A7FD9D3019B0496032B36
:10AFC0000DF10F0309934FF0000305938DF81C302A
:10AFD00008930A930D93109312934FF00103069375
:10AFE0000B938DF830308DF844304FF058038DF8C6
:10AFF0000E3000F02485042300228DF80F3004A9C0
:10B0000000233846CDE90E2310F02EFA2B695A6A38
:10B010005AB1974200F03984FEE71A6A002A3FF4D9
:10B0200078AF1A6A002AF8D173E71A6A002AFCD1AD
:10B03000764B5B68C3F30803002B40F00D84EFF3FD
:10B040001183002B40F008844FF0E020D4F88025D5
:10B050008169D4F880359342F8D1D4F858298A42CE
:10B06000F4D3D4F854C9DFF8A4E14FF47A7000FBAC
:10B070000CF2521A4FF0100AB2FBFCF24FF0010B27
:10B0800000FB03224FF0E02C4FF47A70DEF804301E
:10B09000C3F30803002B40F05184EFF31183002B1E
:10B0A00040F04C84D4F88015DCF81880D4F8803552
:10B0B0009942F7D1D4F858399845F3D8D4F854992F
:10B0C00000FB09F3A3EB0803B3FBF9F300FB013327
:10B0D0009B1AB3F57A7FD9D30DF10F03099300239F
:10B0E00005938DF81C3008930A930D9310931293D7
:10B0F000012306930B938DF830308DF844305323A1
:10B100008DF80E300A2300228DF80F3004A9002399
:10B110003846CDE90E23049610F0A6F92B695A6A39
:10B12000002A00F0E881974200F06481FEE7EFF327
:10B1300011878AF31288D2F818E01369D80304D56E
:10B140000123C4F85039D2F818E0D4F88035D4F887
:10B150005009FFB287F31188D4F8547918440CFBD6
:10B1600007F3A3EB0E03B3FBF7F30CFB003355E43B
:10B17000EFF311878AF31288D2F818E01369D80325
:10B1800004D50123C4F85039D2F818E0D4F880353A
:10B19000D4F85009FFB287F31188D4F854791844D1
:10B1A0000CFB07F3A3EB0E03B3FBF7F30CFB00332D
:10B1B000FFF78FBAEFF3118189F312889369106951
:10B1C000C70344BFC4F850B99369D4F88005D4F8D4
:10B1D0005079C9B281F311880744FFF7C0B9EFF382
:10B1E00011838AF31288D0F818C00269D20303D5FC
:10B1F000C4F850B9D0F818C0D4F88025D4F85099C4
:10B20000DBB283F311884A44C9E600BF00ED00E0D9
:10B21000EFF311838AF31288D0F818C00269D203C1
:10B2200003D5C4F850B9D0F818C0D4F88025D4F8A4
:10B230005099DBB283F311884A4474E4EFF311832D
:10B240008AF31288D0F818C00269D20303D5C4F873
:10B2500050B9D0F818C0D4F88025D4F85099DBB292
:10B2600083F311884A4476E5EFF311838AF3128859
:10B27000D0F818C00269D20303D5C4F850B9D0F889
:10B2800018C0D4F88025D4F85099DBB283F3118824
:10B290004A44D5E4EFF311838AF31288D0F818C03A
:10B2A0000269D20303D5C4F850B9D0F818C0D4F855
:10B2B0008025D4F85099DBB283F311884A44FFF714
:10B2C00092BAEFF311828AF31288D0F818C001699C
:10B2D000C90303D5C4F850B9D0F818C0D4F8801504
:10B2E000D4F85099D2B282F311884944FFF793B948
:10B2F000EFF311838AF31288D0F818C00269D203E1
:10B3000003D5C4F850B9D0F818C0D4F88025D4F8C3
:10B310005099DBB283F311884A44B3E5EFF311830C
:10B320008AF31288D0F818C00269D20303D5C4F892
:10B3300050B9D0F818C0D4F88025D4F85099DBB2B1
:10B3400083F311884A44FFF7D6BAEFF311808AF3EA
:10B35000128897691369DB0303D50123C4F85039B8
:10B360009769D4F88035D4F85019C0B280F31188A9
:10B37000D4F854090B440CFB00F1C91BB1FBF0F1EC
:10B380000CFB0311FFF72ABBEFF3118189F312883D
:10B3900090691369DB0344BFC4F850B99069D4F8CD
:10B3A0008035D4F85079C9B281F311883B44FFF756
:10B3B000B5B8EFF311808AF3128897691369DB033C
:10B3C00003D50123C4F850399769D4F88035D4F8EF
:10B3D0005019C0B280F31188D4F854090B440CFB07
:10B3E00000F1C91BB1FBF0F10CFB0311FFF751B9E0
:10B3F000CD23CDE41A6A002AFCD1874B5B68C3F3E6
:10B400000803002B40F0B282EFF31183002B40F0D1
:10B41000AD824FF0E020D4F880258169D4F88035E2
:10B420009342F8D1D4F858299142F4D8D4F854C9A9
:10B430004FF47A7000FB0CF2511AB1FBFCF100FBE7
:10B440000311DFF8D4814FF0E0204FF47A7E4FF003
:10B45000100A4FF0010BD8F80430C3F30803002B97
:10B4600040F04882EFF31183002B40F04382D4F880
:10B470008025D0F818C0D4F880359A42F7D1D4F896
:10B4800058399C45F3D8D4F854990EFB09F3A3EB33
:10B490000C03B3FBF9F30EFB02335B1AB3F57A7FAF
:10B4A000D9D30DF10F030993002305938DF81C30B8
:10B4B00008930A930D9310931293012306930B9311
:10B4C0008DF830308DF844307C238DF80E30022317
:10B4D00000228DF80F3004A900233846CDE90E2351
:10B4E00004960FF0C1FF2B695A6A002A00F08C8085
:10B4F000974208D0FEE71A6A002A3FF47EAF1A6A24
:10B50000002AF8D179E71A6A002AFCD1424B5B681D
:10B51000C3F30803002B40F06F82EFF31183002B7D
:10B5200040F06A824FF0E020D4F880258169D4F899
:10B5300080359342F8D1D4F858299142F4D8D4F800
:10B5400054C94FF47A7000FB0CF2511AB1FBFCF1B4
:10B5500000FB0311DFF8C0804FF0E0204FF47A7E4B
:10B560004FF0100A4FF0010BD8F80430C3F3080372
:10B57000002B40F0A981EFF31183002B40F0A48150
:10B58000D4F88025D0F818C0D4F880359A42F7D185
:10B59000D4F858399C45F3D8D4F854990EFB09F3E4
:10B5A000A3EB0C03B3FBF9F30EFB02335B1AB3F509
:10B5B0007A7FD9D30DF10F030993002305938DF8FA
:10B5C0001C3008930A930D93109312930123069352
:10B5D0000B938DF830308DF844307D238DF80E308C
:10B5E0000E2300228DF80F3004A900233846CDE940
:10B5F0000E2304960FF038FF2B695A6A002A00F0D8
:10B60000238197420AD0FEE71A6A002A3FF47EAFF0
:10B610001A6A002AF8D179E700ED00E01A6A002AD8
:10B62000FCD1BF4B5B68C3F30803002B40F0C18122
:10B63000EFF31183002B40F0BC814FF0E020D4F8F1
:10B6400080358169D4F880259342F8D1D4F85829FF
:10B650009142F4D8D4F854C94FF47A7000FB0CF23C
:10B66000511AB1FBFCF100FB0311DFF8B4824FF07B
:10B67000E0204FF47A7E4FF0100A4FF0010BD8F81B
:10B680000430C3F30803002B40F00881EFF311836B
:10B69000002B40F00381D4F88035D0F818C0D4F8DE
:10B6A00080259A42F7D1D4F858399C45F3D8D4F87C
:10B6B00054990EFB09F3A3EB0C03B3FBF9F30EFB58
:10B6C00002335B1AB3F57A7FD9D3019B032B00F0C9
:10B6D000638295F82131002B00F092801E09013E13
:10B6E000052E03F00F0300F2E6878E4F07EB4602AC
:10B6F000B2F8000140FA03F2D20740F1DC870122E0
:10B7000002FA03F3013B18403E444BF0D7FB96F896
:10B710000C81DFF824928449804409EBC806B38881
:10B72000B3FA83F2202A4FF02603F380E960C2F1D6
:10B730001F0165D07B1804EB810193F8887205F135
:10B740000C03C1F88C394FF00043D34005D0774A41
:10B75000116821EA0301116053610021304610F0A5
:10B76000F7FA59F8383003F13F4303F57E03C3F38A
:10B770008722B388B3FA83F3C3F11F0000F0FC0102
:10B7800001F1804101F59C3100F00300D1F808C0BF
:10B7900080004FF00F0E82400EFA00F02CEA0000FD
:10B7A0008860886802438A60604A4FF000481168E8
:10B7B00028FA03F321EA03011160516821EA030129
:10B7C00051605B49D1F8000C1843C1F8000C906837
:10B7D00020EA03009060D06820EA0300D060D1F82E
:10B7E000082C04EB070C1A43C1F8082C9CF8CC2950
:10B7F000F02A00F250871BB14C490A6813430B60D2
:10B8000022684C4BB3EB920F80F04287B3EBD20F20
:10B8100080F03B87B3EB121F80F05187B3EB521FD0
:10B8200080F05087B3EB921F80F04F87B3EBD21FAD
:10B8300080F04E87B3EB122F34BF4FF48073802318
:10B84000AB8215B0BDE8F08F1A6A002A3FF4E9AE6A
:10B850001A6A002AF8D1E4E6EFF31182102383F389
:10B8600012884FF0E02399691869C00303D50121BC
:10B87000C4F850199969D4F88005D4F85039D2B277
:10B8800082F311880344FFF7ECBB1A6A002A3FF4E5
:10B89000CFAB1A6A002AF8D1FFF7CABBEFF31183C6
:10B8A0008AF31288D0F818C00269D20303D5C4F80D
:10B8B00050B9D0F818C0D4F88025D4F85099DBB22C
:10B8C00083F311884A44F2E6EFF311838AF3128876
:10B8D000D0F818C00269D20303D5C4F850B9D0F823
:10B8E00018C0D4F88025D4F85099DBB283F31188BE
:10B8F0004A4451E6EFF311838AF31288D0F818C056
:10B900000269D20303D5C4F850B9D0F818C0D4F8EE
:10B910008025D4F85099DBB283F311884A44B2E50C
:10B9200000ED00E0CC88050819A10008003C0140AA
:10B930000030014080969800281E0020EFF311830C
:10B940008AF31288DCF81880DCF81010C90303D5DC
:10B95000C4F850B9DCF81880D4F88015D4F85099A0
:10B96000DBB283F311884944FFF7A8BBEFF31182E0
:10B97000102383F312884FF0E02398691969C903F3
:10B9800003D50121C4F850199869D4F88015D4F86A
:10B990005039D2B282F31188D4F854C94FF47A7274
:10B9A0000B4402FB0CF1091AB1FBFCF102FB031181
:10B9B00047E5EFF31182102383F312884FF0E02361
:10B9C00098691969C90303D50121C4F85019986908
:10B9D000D4F88015D4F85039D2B282F31188D4F853
:10B9E00054C94FF47A720B4402FB0CF1091AB1FBF3
:10B9F000FCF102FB031138E6EFF31182102383F30D
:10BA000012884FF0E02398691969C90303D5012111
:10BA1000C4F850199869D4F88015D4F85039D2B2C6
:10BA200082F31188D4F854C94FF47A720B4402FBA4
:10BA30000CF1091AB1FBFCF102FB03118AE50223A8
:10BA400000228DF80F3004A900233846CDE90E23DB
:10BA50000FF00AFD2B695A6A002A72D0974200D073
:10BA6000FEE71A6A002AFCD1BE4B5B68C3F30803E9
:10BA7000002B40F00585EFF31183002B40F000858B
:10BA80004FF0E020D4F880358169D4F880259342C6
:10BA9000F8D1D4F858298A42F4D3D4F854C9DFF83D
:10BAA000C4824FF47A7000FB0CF2521AB2FBFCF223
:10BAB00000FB0322D8F80430C3F308034FF0E02062
:10BAC0004FF47A7C4FF0100A4FF0010B1BBBEFF3E1
:10BAD000118303BBD4F88035D0F818E0D4F8801572
:10BAE0009942F7D1D4F858397345F3D3D4F854991F
:10BAF0000CFB09F3A3EB0E03B3FBF9F30CFB0133CF
:10BB00009B1AB3F57A7FBFF4E7AAD8F80430C3F3E1
:10BB10000803002BDBD0EFF311838AF31288D0F8EF
:10BB200018E00169C90303D5C4F850B9D0F818E08A
:10BB3000D4F88015D4F85099DBB283F311884944C6
:10BB4000D4E71A6A002A8FD01A6A002AF9D18BE743
:10BB5000EFF31182102383F312884FF0E0239869EA
:10BB60001969C90303D50121C4F850199869D4F89B
:10BB70008015D4F85039D2B282F31188D4F854C960
:10BB80004FF47A720B4402FB0CF1091AB1FBFCF181
:10BB900002FB0311FFF7E1B90DF10F030993002335
:10BBA00005938DF81C3008930A930D93109312930C
:10BBB000012306930B938DF830308DF844307E23AB
:10BBC0008DF80E30B02300228DF80F3004A9002329
:10BBD0003846CDE90E2304960FF046FC2B695A6ACD
:10BBE0001AB1974200F0F884FEE71A6A002AFCD1E5
:10BBF0005C4B5B68C3F30803002B40F01A85EFF33E
:10BC00001183002B40F015854FF0E020D4F88035EB
:10BC10008269D4F880158B42F8D1D4F858198A4239
:10BC2000F4D8D4F854094FF47A7101FB00F6B61A2F
:10BC3000B6FBF0F601FB0366DFF82881D8F8043084
:10BC4000C3F308034FF0E0214FF47A774FF0100E62
:10BC50004FF0010C0BBBEFF31183F3B9D4F880253F
:10BC60008869D4F880359342F8D1D4F858299042A5
:10BC7000F4D8D4F8549907FB09F2121AB2FBF9F27E
:10BC800007FB03239B1BB3F57A7FBFF422ADD8F8E3
:10BC90000430C3F30803002BDDD0EFF311838EF3E0
:10BCA000128888690A69D20302D5C4F850C9886924
:10BCB000D4F88095D4F85029DBB283F311884A4434
:10BCC000D4F8549907FB09F31B1AB3FBF9F307FBEC
:10BCD0000233D7E7EFF31182102383F312884FF07A
:10BCE000E02398691969C90303D50121C4F85019E3
:10BCF0009869D4F88015D4F85039D2B282F31188FB
:10BD0000D4F854C94FF47A720B4402FB0CF1091AAF
:10BD1000B1FBFCF102FB0311FFF792B8EFF31182C4
:10BD2000102383F312884FF0E02398691969C9033F
:10BD300003D50121C4F850199869D4F88015D4F8B6
:10BD40005039D2B282F31188D4F854C94FF47A72C0
:10BD50000B4402FB0CF1091AB1FBFCF102FB0311CD
:10BD6000FEF7BFBE00ED00E0EFF31182102383F376
:10BD700012884FF0E02398691969C90303D501219E
:10BD8000C4F850199869D4F88015D4F85039D2B253
:10BD900082F31188D4F854C94FF47A720B4402FB31
:10BDA0000CF1091AB1FBFCF102FB0311FEF781BD96
:10BDB000EFF31182102383F312884FF0E023986988
:10BDC0001969C90303D50121C4F850199869D4F839
:10BDD0008015D4F85039D2B282F31188D4F854C9FE
:10BDE0004FF47A720B4402FB0CF1091AB1FBFCF11F
:10BDF00002FB0311FEF7D5BCEFF31182102383F38E
:10BE000012884FF0E02399691869C00303D5012116
:10BE1000C4F850199969D4F88005D4F85039D2B2D1
:10BE200082F31188D4F854C91A184FF47A7000FBC1
:10BE30000CF35B1AB3FBFCF300FB0233FEF7C9BB48
:10BE4000EFF31182102383F312884FF0E0239869F7
:10BE50001969C90303D50121C4F850199869D4F8A8
:10BE60008015D4F85039D2B282F31188D4F854C96D
:10BE70004FF47A720B4402FB0CF1091AB1FBFCF18E
:10BE800002FB0311FEF7BABE0DF10F030993002365
:10BE90008DF80F3005938DF81C3008930A930D939D
:10BEA00010931293012306930B938DF830308DF885
:10BEB0004430482300228DF80E3004A90023384670
:10BEC000CDE90E2304960FF0CFFA2B695A6A1AB106
:10BED000974200F0D283FEE71A6A002AFCD1C14BD8
:10BEE0005B68C3F30803002B40F07F83EFF31183FB
:10BEF000002B40F07A834FF0E020D4F8803582693F
:10BF0000D4F880158B42F8D1D4F858198A42F4D865
:10BF1000D4F854094FF47A7101FB00FCACEB020C2D
:10BF2000BCFBF0FC01FB03CCDFF8B8824FF0E02251
:10BF30004FF47A7E4FF0100A4FF0010BD8F804301E
:10BF4000C3F30803002B40F04F81EFF31183002B64
:10BF500040F04A81D4F880359169D4F88005834255
:10BF6000F8D1D4F858098142F4D8D4F854990EFB8A
:10BF700009F0411AB1FBF9F10EFB0313A3EB0C031B
:10BF8000B3F57A7FDAD38022492138460FF05CFB83
:10BF9000944B5B68C3F30803002B40F0F982EFF386
:10BFA0001183002B40F0F4824FF0E020D4F880356C
:10BFB0008269D4F880158B42F8D1D4F858198A4296
:10BFC000F4D8D4F854094FF47A7101FB00FCACEBBF
:10BFD000020CBCFBF0FC01FB03CCDFF808824FF045
:10BFE000E0224FF47A7E4FF0100A4FF0010BD8F8A0
:10BFF0000430C3F30803002B40F01381EFF31183E7
:10C00000002B40F00E81D4F880359169D4F880057A
:10C010008342F8D1D4F858098142F4D8D4F854991D
:10C020000EFB09F0411AB1FBF9F10EFB0313A3EB70
:10C030000C03B3F57A7FDAD30DF10F0309930023D4
:10C040008DF80F3005938DF81C3008930A930D93EB
:10C0500010931293012306930B938DF830308DF8D3
:10C060004430452300228DF80E3004A900233846C1
:10C07000CDE90E2304960FF0F7F92B695A6A002ACE
:10C0800000F0A880974224D0FEE7EFF3118210233E
:10C0900083F312884FF0E02398691969C90303D527
:10C0A0000121C4F850199869D4F88015D4F8503992
:10C0B000D2B282F31188D4F854C94FF47A720B4487
:10C0C00002FB0CF1091AB1FBFCF102FB0311FEF7B4
:10C0D00020BE1A6A002AFCD1424B5B68C3F30803F6
:10C0E000002B40F02E82EFF31183002B40F02982C9
:10C0F0004FF0E020D4F880358269D4F880158B4267
:10C10000F8D1D4F858198A42F4D8D4F854094FF425
:10C110007A7101FB00FCACEB020CBCFBF0FC01FBF8
:10C1200003CCDFF8C0804FF0E0224FF47A7E4FF06E
:10C13000100A4FF0010BD8F80430C3F30803002BAA
:10C1400040F06481EFF31183002B40F05F81D4F85D
:10C1500080359169D4F880058342F8D1D4F8580924
:10C160008142F4D8D4F854990EFB09F0411AB1FB7E
:10C17000F9F10EFB0313A3EB0C03B3F57A7FDAD3CB
:10C180000DF10F030993002305938DF81C300893DC
:10C190000A930D9310931293012306930B938DF83A
:10C1A00030308DF8443046238DF80E3006230022BF
:10C1B0008DF80F3004A900233846CDE90E230496EC
:10C1C0000FF052F92B695A6A002A00F01781974242
:10C1D00044D0FEE71A6A002A3FF47EAF1A6A002AAA
:10C1E000F8D179E700ED00E0EFF311838AF31288CC
:10C1F00090691169C90302D5C4F850B99069D4F89F
:10C200008015D4F85099DBB283F311884944D4F8EF
:10C2100054990EFB09F31B1AB3FBF9F30EFB013320
:10C22000ACE6EFF311838AF3128890691169C903B0
:10C2300002D5C4F850B99069D4F88015D4F8509953
:10C24000DBB283F311884944D4F854990EFB09F307
:10C250001B1AB3FBF9F30EFB0133E8E61A6A002A56
:10C26000FCD1CA4B5B68C3F30803002B40F0458147
:10C27000EFF31183002B40F040814FF0E020D4F821
:10C2800080358269D4F880158B42F8D1D4F85819DA
:10C290008A42F4D8D4F854094FF47A7101FB00FCB7
:10C2A000ACEB020CBCFBF0FC01FB03CCDFF8DC8246
:10C2B0004FF0E0224FF47A7E4FF0100A4FF0010B5E
:10C2C000D8F80430C3F30803002B40F0BC80EFF330
:10C2D0001183002B40F0B780D4F880359169D4F8F1
:10C2E00080058342F8D1D4F858098142F4D8D4F8B3
:10C2F00054990EFB09F0411AB1FBF9F10EFB03133F
:10C30000A3EB0C03B3F57A7FDAD30022472138463A
:10C310000FF09AF99D4B5B68C3F30803002B40F0C4
:10C32000C880EFF31183002B40F0C3804FF0E02072
:10C33000D4F880358269D4F880158B42F8D1D4F8CE
:10C3400058198A42F4D8D4F854094FF47A7101FB91
:10C3500000FCACEB020CBCFBF0FC01FB03CCDFF8F7
:10C360002C82D8F80430C3F308034FF0E0224FF4D6
:10C370007A7E4FF0100A4FF0010B13BBEFF31183DD
:10C38000FBB9D4F880359169D4F880058342F8D19F
:10C39000D4F858098142F4D8D4F854990EFB09F026
:10C3A000411AB1FBF9F10EFB0313A3EB0C03B3F538
:10C3B0007A7FBEF4CAABD8F80430C3F30803002B6D
:10C3C000DCD0EFF311838AF3128890691169C903F5
:10C3D00002D5C4F850B99069D4F88015D4F85099B2
:10C3E000DBB283F311884944D4F854990EFB09F366
:10C3F0001B1AB3FBF9F30EFB0133D6E71A6A002AC6
:10C400003FF42FAF1A6A002AF8D12AE7EFF311831D
:10C410008AF3128890691169C90302D5C4F850B92A
:10C420009069D4F88015D4F85099DBB283F3118861
:10C430004944D4F854990EFB09F31B1AB3FBF9F3E2
:10C440000EFB013397E6EFF311838AF312889069AC
:10C450001169C90302D5C4F850B99069D4F88015A0
:10C46000D4F85099DBB283F311884944D4F8549935
:10C470000EFB09F31B1AB3FBF9F30EFB01333FE785
:10C48000EFF31182102383F312884FF0E0239969B0
:10C490001869C00303D50121C4F850199969D4F86B
:10C4A0008005D4F85039D2B282F311880344FFF7E3
:10C4B000F4BAEFF31182102383F312884FF0E023D4
:10C4C00099691869C00303D50121C4F85019996905
:10C4D000D4F88005D4F85039D2B282F311880344DD
:10C4E000D4F854094FF47A7202FB00FCACEB010C57
:10C4F000BCFBF0FC02FB03CC31E7EFF3118210230D
:10C5000083F312884FF0E02399691869C00303D5BB
:10C510000121C4F850199969D4F88005D4F850392C
:10C52000D2B282F311880344D4F854094FF47A72DA
:10C5300002FB00FCACEB010CBCFBF0FC02FB03CCEF
:10C54000B4E6EFF31182102383F312884FF0E02357
:10C5500099691869C00303D50121C4F85019996974
:10C56000D4F88005D4F85039D2B282F3118803444C
:10C57000D4F854094FF47A7202FB00FCACEB010CC6
:10C58000BCFBF0FC02FB03CCCBE500BF00ED00E000
:10C59000EFF31182102383F312884FF0E02399699F
:10C5A0001869C00303D50121C4F850199969D4F85A
:10C5B0008005D4F85039D2B282F311880344D4F8FC
:10C5C00054094FF47A7202FB00FCACEB010CBCFB8B
:10C5D000F0FC02FB03CC00E51A6A002A3FF408AB2A
:10C5E0001A6A002AF8D1FFF703BBEFF31182102378
:10C5F00083F312884FF0E02399691869C00303D5CB
:10C600000121C4F850199969D4F88005D4F850393B
:10C61000D2B282F311880344D4F854094FF47A72E9
:10C6200002FB00FCACEB010CBCFBF0FC02FB03CCFE
:10C630007AE4EFF31182102383F312884FF0E023A2
:10C6400099691869C00303D50121C4F85019996983
:10C65000D4F88065D4F85039D2B282F31188D4F876
:10C6600054094FF47A72334402FB00F6761AB6FB93
:10C67000F0F602FB0366FFF7DFBA1A6A002A3FF4FE
:10C680002EAC1A6A002AF8D129E40423FFF7D8B89F
:10C690000223FFF7D5B8104BD85DF0238CF8CC39C6
:10C6A0000022032147F06AFCB388B3FA83F328FA27
:10C6B00003F3FFF7A0B8094BEB60FFF7A1B808231D
:10C6C000FFF7BEB81023FFF7BBB82023FFF7B8B8B9
:10C6D0004023FFF7B5B800BFB4F8050819A100085A
:10C6E0002DE9F041AB4C94F8D339012B94B000F014
:10C6F0009D81022B00F03D81002B00F05781A64D5B
:10C7000095F842305B060DF10E060DF10F0804A9F5
:10C7100004F6D41740F138814FF4F073A5F8443093
:10C720000023CDE90833CDE90A3305930D930123A6
:10C7300085F846308DF81C308DF83030974BC4F8B2
:10C740006C3A03F10213C4F8703A03F10213C4F80F
:10C75000743A03F10213C4F8783A03F10213C4F8EF
:10C760007C3A03F102138E48C4F8803A03F10213B5
:10C77000C4F8843A03F102130490C4F8883A983854
:10C780002023069301910EF06FFED4F8D43901995D
:10C790005A6A002A2FD0BA4200D0FEE71A6A002A4D
:10C7A000FCD100238DF80E3005938DF81C300893D2
:10C7B0000A930D9310931293012306930B938DF814
:10C7C00030308DF8443095F842308DF80F3000222B
:10C7D000002374480191CDE90E230496CDF82480FE
:10C7E0000EF042FED4F8D43901995A6A002A37D0A3
:10C7F000BA4207D0FEE71A6A002AD2D01A6A002A83
:10C80000F9D1CEE71A6A002AFCD1002305938DF8EE
:10C810001C3008930A930D931093129301230693EF
:10C820000B938DF830308DF8443094F88C3A8DF8B5
:10C830000F30022300228DF80E305A480191002358
:10C84000CDE90E230496CDF824800EF00DFED4F829
:10C85000D43901995A6A002A37D0BA4207D0FEE784
:10C860001A6A002AD1D01A6A002AF9D1CDE71A6AC9
:10C87000002AFCD1002305938DF81C3008930A93FD
:10C880000D9310931293012306930B938DF8303080
:10C890008DF8443094F88D3A8DF80F300323002240
:10C8A0008DF80E303F4801910023CDE90E23049608
:10C8B000CDF824800EF0D8FDD4F8D43901995A6A05
:10C8C000002A3CD0BA4207D0FEE71A6A002AD1D02B
:10C8D0001A6A002AF9D1CDE71A6A002AFCD194F825
:10C8E0008E3A002B53D0012B00F0B380032B14BFE2
:10C8F000C723F7238DF80F30002305938DF81C30E4
:10C9000008930A930D9310931293012300228DF83C
:10C910000E3006930B938DF830308DF8443021485B
:10C9200004960023CDE90E23CDF824800EF09CFD63
:10C93000D4F8D4395A6AAAB1BA4207D0FEE71A6AC3
:10C94000002ACCD01A6A002AF9D1C8E71A6A002A4C
:10C95000FCD1B5F844201448002114B0BDE8F041E2
:10C960004BF061BF1A6A002AF3D01A6A002AF9D183
:10C97000EFE7094D082385F842300DF10E060DF161
:10C980000F0804A904F6D4174FF4C373C6E647236F
:10C99000B0E700BFD8170020880100201001110166
:10C9A00044220020AC210020682200200122A02186
:10C9B0000DF10E0604F6D417CDE90463CDE9083372
:10C9C0008DF80E10069204A98DF81C300B928DF88C
:10C9D00030208DF844200D930022109312930DF116
:10C9E0000F0800233846CDE90E230191CDF82880A9
:10C9F0000EF03AFDD4F8D43901995A6A12B1BA420C
:10CA000020D0FEE71A6A002AFCD19DF80F30144DA1
:10CA100003F00602022A03D003F00503012B1AD00B
:10CA2000082385F842304FF4C37377E60C4D482352
:10CA300085F842300DF10E060DF10F0804A904F639
:10CA4000D41769E61A6A002ADFD01A6A002AF9D1D7
:10CA5000DBE787234EE7482385F842305CE600BFDA
:10CA6000880100200A4608B5054920B9054842F06A
:10CA7000CBFC034808BD044842F0C6FC004808BD92
:10CA80004824002034F805085CF8050810B5044C6B
:10CA900004480A46214642F0B7FC204610BD00BFBC
:10CAA0004824002084F8050810B5044C04480A46C0
:10CAB000214642F0A9FC204610BD00BF48240020BA
:10CAC00098F8050810B5044C04480A46214642F07F
:10CAD0009BFC204610BD00BF48240020A4F8050898
:10CAE00010B5104CD4F8702D94F86F3D2AB103F0B6
:10CAF00001039BB9136892881A8346F0DDFF02E0B8
:10CB00005B69984720B9D4F87C35002BF8D1FEE753
:10CB1000D4F88035C4F88435002010BD136892889D
:10CB20005A83EAE7D8170020BFF34F8F0549064B19
:10CB3000CA6802F4E0621343CB60BFF34F8F00BFBB
:10CB4000FDE700BF00ED00E00400FA051648174AB3
:10CB5000174938B5174C184D121A4BF001FED4F88E
:10CB60008820164B164842F47002C4F888201A68D0
:10CB7000002142F001021A6099601A6822F0847262
:10CB800022F480321A6058601A6822F480221A60F7
:10CB90000C4AD960521B28460B494BF0E1FDA560B9
:10CBA000BDE83840FBF72CBA00000010040000106C
:10CBB000D798060800ED00E0000000200038024091
:10CBC0001030002488010020000000082DE9F04109
:10CBD000CB781BB900263046BDE8F08100F1100487
:10CBE0000D468046897820460EF0D0FB0646002888
:10CBF000F0D0E8780FF0C4FEC8F818002B780133A5
:10CC0000DBB210B1C3712223837109210FF0A0F8A8
:10CC1000D8F818001A4F0EF0B3FBD7F88035632B05
:10CC2000FBD918480EF07CFBA8F814002046FDF74D
:10CC3000F9F80446E0B9E8780FF0A2FED7F87C7D59
:10CC4000002F0646C6DDDFF8408002E00134BC421A
:10CC5000C0D004EB440518F805000FF091FE8642A1
:10CC6000F4D1214608EB05000FF0CEFE0026B2E716
:10CC7000D8F8100088F8D84049F0BCFFABE700BFF7
:10CC8000D817002040420F005825002043680B4A67
:10CC900023F0407323F4807343F48073436083680C
:10CCA0001A4042F002028260C36A0139CAB223F418
:10CCB000700141EA0251C162704700BFFDF7FFC039
:10CCC000704700BF0020FBF7E1B900BF0120FBF770
:10CCD000DDB900BF0220FBF7D9B900BF431C00F04B
:10CCE00038812DE9F04FDFF898A300EB80030AEBC1
:10CCF000C30287B0D2F80480810005460191DB00B1
:10CD0000B8F1000F04D0D468002C4CD0A17911B137
:10CD100007B0BDE8F08FD2F81090B9F1000F00F025
:10CD2000478199F80620002AF2D118330AF1040647
:10CD3000F018D8F80470F250691CC0E901221523DC
:10CD4000C260C9B2A3711623E17189F8063089F86F
:10CD5000071098F8180047F031FFBB88A28823F429
:10CD600040731B041B0CBB8023681A83D9F8003066
:10CD7000B9F804201A83112120460EF0E9FF112191
:10CD800048460EF0E5FF09264FF0330B24B1226828
:10CD9000A188106901422DD1BBF1010B00F0D380B5
:10CDA00048F078FDF2E7D2F81090B9F1000F00F0EA
:10CDB000E88099F80620002AAAD118330AF1040164
:10CDC000CA18D8F80470CC50C2E901441623D460C4
:10CDD00089F806306B1C89F8073098F8180047F07E
:10CDE000EDFEBB8823F440731B041B0CBB80BDE726
:10CDF0002268A188518348F0A9FD2368A2881A837C
:10CE000048F0A4FD013EBFD1002C00F0EF80236864
:10CE1000A2885A8348F09AFDB9F1000F00F00B8107
:10CE2000D9F80030B9F804205A8348F08FFD236800
:10CE3000A2881A8348F08AFDD9F80030B9F8042096
:10CE40001A83019B20465C190AEBC404A37D227D52
:10CE5000002B14BF322112210EF086F8A37D627DD3
:10CE6000002B14BF3221122148460EF07DF87E4B74
:10CE70009F4200F0CA807D4B9F4200F0D1807C4BE6
:10CE80009F4200F0E080019B2B440AEBC30A4FF461
:10CE90007A73BAF8184003FB04F4BB8823F4407398
:10CEA0001B041B0CBB803B889BB243F001033B80FF
:10CEB000BD8802A841F08EFF25F03F0504986D4B18
:10CEC0002D04A3FB00232D0C45EA9345BD803A8831
:10CED00022F001021204120C3A80674A990C944223
:10CEE0000B4637DC6200B0FBF2F292B20133042A47
:10CEF00038BF04223B84BA833B889BB243F00103D2
:10CF00003B803B8823F4816323F002031B041B0C4A
:10CF10004FF4804143F480633B8039813B8823F0A8
:10CF200080031B041B0C00223B8098F81A0011465A
:10CF300047F024F8002298F81900114607B0BDE820
:10CF4000F04F47F01BB8002C7FF452AF48F0FEFCC6
:10CF500056E7704704EB4404B0FBF4F082B2C0F330
:10CF60000B0008B942F001024FF4967301FB03F382
:10CF70004249A1FB03139B09013342F400423B8465
:10CF8000B9E718330AF10401CA18D8F8047041F857
:10CF90000390C2E90199C2F80C9098F8180047F084
:10CFA0000DFEBB8823F440731B041B0CBB80E2E620
:10CFB00018330AF10401CA18D8F8047041F8039034
:10CFC000C2E901991523C2F80C90A3716B1CE3719F
:10CFD00098F8180047F0F2FDBB88A28823F440734C
:10CFE0001B041B0CBB8023681A83C4E648F0AEFC0C
:10CFF000B9F1000F32D0D9F80030B9F804205A83C3
:10D0000048F0A4FC48F0A2FC16E703F5F2331A6AD4
:10D0100042F400121A621A6A22F400121A6232E70B
:10D0200003F5F0331A6A42F480021A621A6A22F493
:10D0300080021A6227E748F089FC2368A2881A83D5
:10D0400048F084FCFDE603F5EE331A6A42F4000270
:10D050001A621A6A22F400021A6214E748F076FC97
:10D0600048F074FCEDE600BF00540040005800405A
:10D07000005C004083DE1B43A0860100D34D62109C
:10D08000D81700202DE9F843074610F0BBFADFF867
:10D090004C8007EB8709044608EBC90542F20F767E
:10D0A00004E010F0AFFA031BB3420ADC6B7F002BE5
:10D0B000F7D108EBC90898F81C0080F00100BDE822
:10D0C000F883B8F8B03D013338469BB2A8F8B03DBC
:10D0D000FFF704FE0020BDE8F88300BFD81700204A
:10D0E00070B5284D00EB800305EBC30384B05A688C
:10D0F0005468A28A92B20392039A12F4706F1CBF12
:10D1000001221A77039B13F4E06F4FEA80060CD1DB
:10D11000A38A304423F4706305EBC0051B041B0C89
:10D120000022A3826A7704B070BD238BA38823F406
:10D1300080631B041B0CA380039B9A05E8D42388FF
:10D140009B05E5D42388D9050FD52388DA05FCD4BF
:10D1500023889BB243F40073238023889B05FCD46F
:10D160000190FFF7BBFD0198D2E723889BB243F4FF
:10D1700000732380A38823F440731B041B0CA3803B
:10D18000C6E700BFD81700200020A9E70120A7E7C5
:10D190000220A5E72DE9F84F304F00EB800407EBA4
:10D1A000C404D4F80880B8F1000F04D09A46637F15
:10D1B00003F0FF0923B14FF000094846BDE8F88F9E
:10D1C0000E469346054610F01DFA0A9B7600F6B20D
:10D1D000C4E909330123A67784F81FB084F82190AD
:10D1E00084F8223084F820A0637784F81C90B8F883
:10D1F00004209105064622D4B8F80030DA0512D48E
:10D2000042F20F7404E010F0FDF9831BA3421ADC14
:10D21000B8F800309B05F6D4B8F800309BB243F460
:10D220008073A8F80030B8F804309BB24FF00109C1
:10D2300043F44073A8F804304846BDE8F88F994697
:10D240004846BDE8F88FB7F8B03D01339BB2284699
:10D25000A7F8B03DFFF742FDAFE700BFD8170020A9
:10D2600010B503681C78012C82B00AD0022C05D1BD
:10D270005A6A0AB1904201D11B6A03B3012002B07D
:10D2800010BD93F904C012490CEB8C0301EBC303EE
:10D290005B7F03F0FF0213B1002002B010BDBCF1B0
:10D2A000FF3FEBD0BCF1020F10DC01F5AA6301795E
:10D2B000009360460623FFF76DFF2046DFE7054A2F
:10D2C000062380210EF006F90120D8E72046D6E794
:10D2D000D8170020281D0020F8B5774C04EB001665
:10D2E000D6F8B43D002B00F094800546070196F86F
:10D2F000BC0D47F063FC96F8BC3D590903F01F02D2
:10D3000003294FF0010303FA02F300F09880042987
:10D3100000F0858002297DD0E319013593F8B80D1E
:10D320000FF02EFBEDB2064610B112238371C571CA
:10D33000E31993F8B90D0FF023FB10B11323C57156
:10D340008371E31993F8BA0D0FF01AFB10B114238F
:10D35000C57183713C444A2194F8BB2D30460DF0D1
:10D3600003FE94F8B90D0FF00BFB94F8BB2D2A21A6
:10D370000DF0FAFD94F8BA0D0FF002FB94F8BB2DF6
:10D380000A210DF0F1FDD4F8B42D4C4B9A425BD03C
:10D390004B4B9A4248D04B4B9A4260D04A4B9A42F0
:10D3A00068D04A4B9A4270D0494B9A4278D049494A
:10D3B0009088B1F84A40B1F84830B1F85250234350
:10D3C000B1F84C402343B1F84E4020F00300234312
:10D3D000B1F850400004000C2343B1F85440908051
:10D3E0002B4310882343B1F85640B1F8581000F48D
:10D3F0004150234303439BB21380938B23F4006378
:10D400001B041B0C9383118213889BB243F04003CF
:10D410001380F8BD304A516A0B4353627CE72E4AB1
:10D4200011690B43136177E703F50033196A41F47F
:10D4300080411962196A21F480411962B7E7264ACE
:10D44000116A0B43136267E703F58433596A41F4A9
:10D4500080515962596A21F480515962A7E703F556
:10D46000FE33196A41F400411962196A21F400413E
:10D4700019629CE703F58233596A41F400515962FD
:10D48000596A21F40051596291E703F56843596ADA
:10D4900041F480115962596A21F48011596286E77A
:10D4A00003F56443596A41F400115962596A21F441
:10D4B000001159627BE700BFD817002000300140FF
:10D4C00000380040003C0040003401400050014062
:10D4D00000540140880100200038024010B4046963
:10D4E0008269E468416814604024D4604469002380
:10D4F0000C31C2E90433C2E90633C2E90833C2E998
:10D500000A33C2E90C3393609363516084B1C269FA
:10D51000E0689363C2E90233C2E90433C2E9063327
:10D52000C2E90833C2E90A33C2E90C33C2E9000197
:10D530005DF8044B704700BF436800221A60037D0A
:10D540001F2B08D9203B2022016802FA03F343F085
:10D550001803CB6070472022016802FA03F343F0FE
:10D5600018038B60704700BF0268136A11B1D96954
:10D5700001B3143330B49C681D689169DDB14FF478
:10D58000806088618D60104640690C6180B1596887
:10D59000D369C9B10A464FF480619A609961224308
:10D5A00012F0010F14BF00224FF400521A621C61E6
:10D5B00030BC704770478D61054D4FF0FF0C05F88A
:10D5C0005ACF00688D60DFE7024A9A609961E6E70A
:10D5D00088010020BC2500200168F8B5D1E90423AA
:10D5E00004465568002B49D09861107D5E681F285D
:10D5F00031D81768202202FA00F040F01800B86015
:10D600001A7D1F2A32D91868203A202303FA02F221
:10D6100042F01802C26000232B60336033688969CE
:10D6200043F010033360284641F0B8FC23683046CD
:10D63000D96941F0B3FC2B68226843F001032B60E9
:10D640003368526843F00103336093889BB243F020
:10D6500003039380F8BD17682038202202FA00F0F7
:10D6600040F01800F8601A7D1F2ACCD818682023D3
:10D6700003FA02F242F018028260CCE7137D906157
:10D680001F2B1CD81068202202FA03F343F0180362
:10D69000836000232B602B68896943F010032B60A3
:10D6A000284641F07BFC2B68226843F00103526856
:10D6B0002B6093889BB243F002039380F8BD1068FF
:10D6C000203B202202FA03F343F01803C360E0E793
:10D6D0002DE9F843DFF800927D4F0646356896F84D
:10D6E00088806B68B088012285F828201A8822F08B
:10D6F00040021204120C1A802A89824223D019880F
:10D7000021F0380109044B454FEA114100F0BC807B
:10D71000704A934200F0B8800246B2F5807FA8BFFD
:10D720004FF48072022AB8BF0222002A92FAA2F2B3
:10D73000B2FA82F208BF4FF0FF32013A41EAC20268
:10D7400092B21A802881317BAA7A8A420CD01A8838
:10D7500022F003021204120C1A801A8892B20029D5
:10D7600000F08F801A80A9721A8892B242F04002AB
:10D770001A802A6A9168002900F0A0804FF0000CFE
:10D780001432E64652F8100C8E4400EA070120B12C
:10D79000B1F1805F23D0696909B352F8140C1432D7
:10D7A00000EA070110B1B1F1805F18D052F80C1CEB
:10D7B0000CF1010C0029E5D12A7B82B1B8F1000FF0
:10D7C0000DD0BCF1010F6CD8BEF1070F69D80CEB7E
:10D7D0008C0189002A6A11440A7B002A61D02A6AD6
:10D7E0009268002A52D000220AB1127B22B1B2689C
:10D7F00012B1116892884A832A6A14682A6A5168A9
:10D800002A6A9268501E9AB12CB3224612F801CBB4
:10D8100014461A899207FCD5A3F80CC01A89D207BE
:10D82000FCD59A8992B209B101F8012B0138EBD2EB
:10D830002B6A1B7BF3B92B6A1B6993B12B6AD6F851
:10D8400094001B699847012808D0022809D10023B9
:10D850002B62BDE8F8834FF0FF0CDAE72B6A143B2C
:10D860002B622A6A2B6A14332B622B6A9B686BB17A
:10D870006B68B9E7B368002BDDD01A689B88138307
:10D88000D9E742F003026DE7420846E72B6A1B68BE
:10D89000DBB12B6AD3E900622A620022C3E90022CD
:10D8A0001CE700213046FFF75FFEB36813B11A682A
:10D8B0009B8853833046BDE8F8438DE62A7B002AD7
:10D8C0008DD0B8F1000F85D189E72B62C1E700BF89
:10D8D0000000FFFF003C0040003800400248C36EDB
:10D8E0000BB15C3018477047880100200348D0F81E
:10D8F00090300BB180301847704700BF880100207E
:10D900000348D0F8B4300BB1A4301847704700BFBB
:10D91000880100200348D0F8D8300BB1C830184730
:10D92000704700BF880100200348D0F8FC300BB1DD
:10D93000EC301847704700BF880100200348D0F83A
