:020000040800F2
:1000000000000120958F040831900408E5C3010821
:100010003DC201083190040831900408000000003E
:100020000000000000000000000000003190040803
:100030003190040800000000319004086586010832
:10004000319004083190040831900408319004087C
:1000500031900408319004088181010889810108E8
:100060009181010899810108A18101082DA700084B
:1000700041A7000855A7000869A700087DA7000848
:1000800091A70008A5A70008319004083190040842
:10009000319004083190040831900408A9810108C6
:1000A000C5C30008B1C20008D5C30008A1C200083A
:1000B000D9C20008E9C20008F9C20008FDA2000880
:1000C000F1A2000831A3000825A30008319004081C
:1000D00031900408B1850108BD850108C985010872
:1000E000B18101083190040831900408E5C300088B
:1000F0009DC30008319004088DC30008B9A700080B
:10010000319004083190040809C3000831900408B4
:10011000D5850108E185010819C30008051E0408FA
:10012000CDA70008E1A70008F5A7000809A8000866
:100130001DA80008000000000000000000000000F2
:100140000000000000000000000000008913040807
:1001500031A8000845A8000859A80008ED85010845
:1001600065A3000859A300083190040831900408E1
:1001700031900408319004080000000000000000E5
:10018000319004083190040831900408319004083B
:1001900031900408319004080000000031900408F8
:1001A0000000000000000000000000003190040882
:1001B00031900408319004080000000000000000A5
:1001C000000000000000000000000000000000002F
:1001D0000000000000000000000000003190040852
:0801E000E08A040001000000A8
:1001E800FA01010004000000A03401204834012075
:1001F80000000000A9E40008443401200530010093
:10020800080000006C2F012050340120000000007D
:1002180084E005084C3401201302010004000000AA
:10022800BC2C01205C340120000000008CE0050893
:10023800583401201F020800100000001026012079
:10024800643401200000000089E5000860340120C2
:100258000620010026000000B01D0120783401208E
:1002680000000000C1E400087434012015001000EB
:10027800700000002C6601202C6D01200000000099
:1002880000000000286D01202A000800600000001E
:10029800CC650120A06D01200000000009A2020821
:1002A8009C6D012021020100F0000000DC640120A7
:1002B800046E012000000000E55E0308006E0120C6
:1002C8002C00040010000000CC640120F86E01200E
:1002D8000000000059A20208F46E012025201E002B
:1002E8002C010000206301200C6F01200000000099
:1002F80000000000086F01202B00120024000000FD
:10030800686201203C7001200000000075A202080C
:1003180038700120012001000C000000885A0120DB
:10032800647001200000000090E005086070012062
:100338001620010006000000A05A01207470012058
:10034800000000009CE005087070012027000100F3
:1003580004000000945A0120807001200000000071
:10036800A2E005087C7001200C5004008000000009
:10037800F85301208870012000000000054D020894
:1003880084700120031101000A0000003459012083
:100398000C71012000000000A594030808710120D9
:1003A80029201400780000001C5801201C7101202D
:1003B8000000000000000000187101202320010047
:1003C800100000000C580120987101200000000066
:1003D80041A3020894710120283001001600000092
:1003E800D8570120AC71012000000000B9B2020802
:1003F800A87101200B3001001A000000BC57012031
:10040800C871012000000000A6E00508C4710120A1
:100418000E5004005802000078540120E8710120B1
:1004280000000000C59F0208E47101200D100100C2
:1004380070000000445701204474012000000000AF
:1004480071D4010840740120220201001C0100003F
:1004580040590120B87401200000000089F7000805
:10046800B4740120160215003F0000001876012020
:10047800D875012000000000D1E50008D4750120DE
:1004880018400100380000000C5701205C7601205C
:1004980000000000C1EA0008587601201B02010094
:1004A80010000000A87601209876012000000000C6
:1004B80075E5000894760120280204000400000075
:1004C800C0760120BC7601200000000069E5000824
:1004D800B87601202702040004000000CC76012031
:1004E800C8760120000000005DE50008C476012000
:1004F8001C0202001C000000F0570120D4760120E5
:100508000000000009EA0008D07601201A02010064
:100518003C000000DC660120F476012000000000A9
:1005280061EA0008F076012004000800800000005D
:100538004C64012034770120000000000000000016
:10054800307701200812040014000000E868012038
:10055800B87701200000000035E40008B4770120D6
:100568000A020100140000004C690120D077012024
:1005780000000000414D0208CC7701200A900100DC
:1005880024000000D0560120E87701200000000078
:1005980055A30208E4770120031201003D00000082
:1005A8009C6601201078012000000000C0E00508CA
:1005B8000C780120010201000A000000846C01206F
:1005C800547801200000000099E4000850780120C8
:1005D8000C02010004000000FC680120647801207E
:1005E80000000000B1E4000860780120FD17010058
:1005F8009A0000008E6C01206C7801200000000039
:10060800BD3F0308687801201310010004000000B2
:10061800B45701200C7901200000000000E1050812
:10062800087901200202010003000000806C01200B
:10063800147901200000000000000000107901205A
:10064800F5C1010074000000C05801201C79012088
:10065800000000008565030818790120F6210100D3
:100668000C000000B458012094790120000000001B
:1006780004E105089079012012120100040000002D
:100688009C7A0120A47901200000000010E10508EF
:10069800A07901201102010008000000A07A0120C1
:1006A800AC7901200000000014E10508A8790120B8
:1006B8003400010010000000A87A0120B879012058
:1006C80000000000EDA10208B4790120F831010012
:1006D80006000000F4560120CC790120000000003B
:1006E8001CE10508C8790120020001000C00000087
:1006F80078690120D879012000000000000000007E
:10070800D4790120FE01010014000000985801204E
:10071800E8790120000000001DE40008E4790120C8
:10072800061204001800000034690120007A012034
:100738000000000089E90008FC790120F7010100A8
:1007480006000000AC5801201C7A012000000000BF
:1007580022E10508187A01201A0001000E000000A5
:10076800D0680120287A01200000000028E105084F
:10077800247A01201400010005000000045701201C
:100788003C7A01200000000036E10508387A012093
:10079800FD01010024000000AA680120487A012018
:1007A800000000004B610108447A01201D0202008C
:1007B80006000000A4680120707A012000000000F3
:1007C800000000006C7A0120F9010100040000001B
:1007D800B87A01207C7A0120000000000561010838
:1007E800787A0120123001001000000040530120E7
:1007F800847A0120000000003CE10508807A01208D
:100808001B2001000C000000207F012084800120B3
:1008180000000000E1390308808001201010010069
:1008280002000000CC7C0120948001200000000020
:100838004CE10508908001200E0201000200000032
:10084800288001209C800120000000004EE105085E
:10085800988001202F20010022000000A4800120A0
:100868002C8001200000000050E10508A080012034
:100878000101010004000000EC830120108A01201E
:1008880000000000000000000C8A012000010100A7
:1008980004000000E8830120188A012000000000FD
:1008A80074E10508148A0120020101000300000018
:1008B800E4830120208A012000000000F54C020892
:1008C8001C8A0120290201004000000048890120FB
:1008D800288A01200000000078E10508248A012008
:1008E8002630010008000000F08201206C8A0120F7
:1008F8000000000055920308688A01202052010078
:1009080008000000E8820120788A01200000000029
:10091800B8E10508748A01202A12010008000000C5
:10092800E0820120848A012000000000C0E105085F
:10093800808A01201900010005000000D8820120EA
:10094800908A012000000000C8E105088C8A012077
:100958001F50010024000000248901209C8A0120E6
:1009680000000000D0E10508988A01203840010005
:1009780006000000F4810120C48A01200000000064
:10098800F4E10508C08A01202332010014000000A8
:100998008C9001203094012000000000FCE1050843
:1009A8002C94012003000100010000002092012086
:1009B8004894012000000000000000004494012039
:1009C80005020100040000003C9101205094012020
:1009D8000000000010E205084C9401202C020100E0
:1009E80004000000908B0120789401200000000092
:1009F80014E20508749401202D0201000100000092
:100A0800EC8A012080940120000000000000000012
:100A18007C940120001201000A000000D09E0120F1
:100A280004A20120000000000000000000A2012034
:100A38001002010001000000C4BE0120C0BE012058
:0C0A48000000000018E20508BCBE012000
:08280000082800080040000850
:10800000084A0346D0F8E4005268D3F8F010121A78
:1080100000209142B8BFC3F8F020012283F81C2150
:10802000704700BF001000E090F8DB30052B03D84C
:1080300090F81E31032B01D00020704790F82331B7
:1080400003F0FB03022B0CBF00200720704700BF8A
:1080500030B5FAB18E464FEA014C034600F1C00537
:10806000002419680C3353F8042C43F8084C41EAF7
:108070000C0142EA0E02AB4243F80C1C43F8042CFC
:10808000EFD1D0F8C03043EA0E03C0E93144C0F864
:10809000C03030BD4FEA014E8C46DEE78369596936
:1080A000B3F810C00A6830B49C6822F0010224685A
:1080B0000A60E26822EA0C02E260027D04681F2A7C
:1080C00006D9203A082065689040284242D0FEE751
:1080D0000820256890402842F9D1202000FA02F2B9
:1080E000A260254A1278002A32D01A7F012A36D09F
:1080F000D3F800210132C3F80021EFF3118150229F
:1081000082F312885868C9B29D6C0268DC6C22EA5E
:1081100005022243026081F311885A699968D3E904
:108120000D40096814605061D3E90F4054609060BD
:108130005C6CB3F8B400D4600124C86210682043BA
:1081400010601A8A1C7783F8FD40CB681343CB601C
:1081500030BC7047202000FA02F2E260C1E7002242
:10816000D3F8040183F8FD2001300A68C3F8040144
:1081700022F001020A60EBE7C801002010B40C4CA9
:108180006368002B11DD002004F1080C0146DCF8C7
:10819000AC3003F1C00259600C339342FBD1013083
:1081A00063680CF5867C8342F1DC5DF8044B704714
:1081B000C801002070B5104ED6F83834002B18DDF9
:1081C00006F23C44002504E0D6F838342034AB42B3
:1081D0000FDD237F0135002BF6D0E0680022002858
:1081E000F2D0217D203410F03FF8D6F83834AB427D
:1081F000EFDC012070BD00BFC8010020704700BF48
:10820000024B03EB401090F859047047C80100205E
:108210004368426D30B49A61EFF31182502383F3C7
:1082200012884168D2B2856C0B68046D23EA05039D
:1082300023430B6082F31188436981681A680968D7
:1082400022F00102D0E908541A60826A1D605C6164
:108250005A60D0E90B429C60DA600023B0F86C20D1
:1082600030BCCA62037770474FF400638381704764
:108270004FF40063838170474FF40063838170473C
:10828000704701207047012070472DE9F047DFF863
:1082900080810E460746D8F80050B8F80420B8F898
:1082A0000A90C2EB25135200C2EBE502B8F9065062
:1082B0006A4303FB03F5B8F908302D135D43B8F9A1
:1082C0000E30AD134FEAE37E05EBE225A5F5FA315A
:1082D000C8F81C5081FB010C03FB0CF200FB0E22C2
:1082E000A3FB003E9644B8F90C201B0A82FB014216
:1082F00043EA0E63120342EA145224031B194FF09F
:10830000000442EB2E22A3FB093E02F5004209FBCA
:1083100002EE4FEAEE734FEA6E0253EA6E0E6BD036
:10832000B8F914904FEAE97E09FB0CFC00FB0ECC77
:10833000A9FB00908444B8F9120080FB01E14804D5
:108340004FEA4E4140EADE3011EB0909D8F820101F
:108350004CEB0000C1F5801C14EB0904B8F91010B7
:108360000CF0004A40F6354900EBC1014AEA5C0ACC
:108370004FEACC7CBCEB04006AEB010AA0FB0901CC
:1083800009FB0A1140F020FCB8F91A404FEA613E9F
:108390008146430B04FB0EF24FEAE47C43EAC143FF
:1083A00003FB0C2CA4FB0342624404FB0EFE03FB04
:1083B00002EEB8F91820A4FB03439E44640E02FBAE
:1083C00001F344EACE1414EB000C4FEAE274A2FB72
:1083D000092941EB6E6E04FB0031D40CB8F916305C
:1083E000494444EA41341CEB04044EEBE141240AC5
:1083F00044EA016404EB03140FB1240A3C6026B183
:1084000005EB850580352D123560BDE8F08700BF8E
:108410004817012008B500683DF01CFBD8B90F4A89
:108420000F4992F83D3592F83C051B0143EA0033B1
:1084300092F83E0543EA101392F83F050B6292F85A
:10844000403592F841251B0143EA0033012043EAFD
:1084500012130B6008BD0020FCE700BFC80100201C
:10846000481701203B4BDFED3C3A93F8251093F879
:108470002400090293F8262093F827C001EB00415D
:1084800093F8280093ED0D6A0A4409024FEA002090
:1084900093F8291048BF02F17F42B8EEC66A00EB9C
:1084A0000C4007EE902AB3F940200144000205EE8B
:1084B000902AB3F93C20F8EEE77A48BF01F17F41FA
:1084C00004EE902AB3F93E20F8EEE55A07EE101AB2
:1084D00067EEA37A06EE902AF8EEE44AB3F93A2062
:1084E000F8EEE66A012005EE102AB3F93820E7EE2F
:1084F000A54AB8EEC55A04EE102AB8EEC77AB3F909
:108500002E20B8EEC44AA7EEA65AD3ED0C6A27EE89
:10851000237A05EE902AA4EEA76AB3F92C20F8EE90
:10852000E66AF8EEE55A04EE902AF6EE003AE7EE37
:10853000046AF8EEE44AA5EE076A65EE875AB0EEE3
:10854000667AE4EEA35AA7EE867AC3ED125A83ED5B
:10855000117A7047481701200821843630B10A4B40
:10856000D3ED117AFDEEE77AC0ED007A51B1064BFA
:108570009FED067AD3ED127A67EE877AFDEEE77A01
:10858000C1ED007A704700BF481701200000C842C3
:10859000704700BF0120704701207047704710B539
:1085A000064C94F84C300BB9002010BD10F0B8F90F
:1085B000236DC01AD0F5FA50F7D5F5E7481701201A
:1085C000B0F90000084B4143994208DBB1F5000FB8
:1085D00007DA0029B8BFFF31081200B2704703481C
:1085E000FBE747F6FF70F8E701FF7FFF0080FFFF22
:1085F000704700BF0020024B83F85400704700BF53
:10860000481701200346012200205A77704700BF17
:1086100008B5D0E90B2183690B4483610AB1084690
:108620009047002008BD00BF436A02461B681B6AD2
:108630005B685B7813F0010008BF5077704700BF9C
:10864000C2628161704700BF704700BF043070474D
:108650000B4B93F85C20996D02440844D2B29865A4
:1086600083F85C2093F85C20120605D593F85C2013
:1086700082F0800283F85C20024B01221A7070475E
:1086800048170120000001202DE9F84F144F3D6EDE
:10869000ED0A1FD00026DFF84CA007F16409B046B0
:1086A000AC19796E102352466410D1F828B04846B0
:1086B000C7F89080E102D8470F280BDD094B03F182
:1086C000100253F8041B013107D19342F9D125461A
:1086D000B542E5DCE802BDE8F88F661CF8E700BFAC
:1086E0004817012000000020194BD3F89810D3F848
:1086F0009C208A1A322A15D8D3F8B0208A4200D397
:108700007047D3F8A420F2B110683231928810B4C7
:108710004469C3F8B01022425DF8044B18BF12043C
:108720008261704793F8A020D3F8A41002F00102F0
:1087300019B10868898822B981610022C3F8B02084
:1087400070470904F8E73231C3F8B010704700BF32
:1087500048170120074A92F8A030D2F8A42003F06D
:1087600001031AB11168928813B98A610020704719
:108770001204FAE748170120044B4FF4007C002054
:10878000D3F8C030A2F800C00B6070474817012032
:10879000002070470120704701207047002070477B
:1087A000134BD0F8D8105B68D0F8E02010B5044621
:1087B000581A824200DC22B9D4F8E4200A44C4F8F2
:1087C000DC2094F8D020C4F8D830012A05D0D4F8A1
:1087D000D4300133C4F8D43010BD04F1E801201DB9
:1087E0000EF00EFFD4F8D4300133C4F8D43010BDED
:1087F000001000E0CB070AD490F82830012B08D0F5
:10880000C368B3F1807F03D90123037770477047B2
:108810007047204AD2E93C1310B5B1EB930F8CB0EE
:108820004FEA9302446A4FF0020306D252085B00FB
:1088300091429BB201D2FF2BF8D9C268A380B2F15A
:10884000807F24D90122002301A94FF0B70C0277C1
:10885000204604928DF814208DF828200B938DF873
:1088600004C0CDE9021302A9CDE90633CDE90833EE
:108870000EF0C6FE2268536A002B18BF9C4214BF3C
:1088800001230023002BFDD1136A002BFCD10CB077
:1088900010BD00BF4817012030B590F828208BB0DC
:1088A00000230446012A08D0427F62B103F001038D
:1088B00083F0010063770BB030BD456A29680A7BFD
:1088C0004ABB637F13B901200BB030BD19490220A8
:1088D000002301220290081F8DF80C208DF8202023
:1088E0000993CDE9001069462846CDE90433CDE966
:1088F00006330EF085FE2A68536A002B18BF9D428E
:1089000014BF01230023002BFDD1136A002BFCD1DF
:10891000094B5B7CCAE7486A984218BF854214BF7E
:108920000120002003D10B6A002BCAD0C3E71846F0
:10893000C1E700BF140000200000002030B590F80F
:1089400028108BB00446427F01293CD0002A42D136
:1089500001200BB030BD596A8D4201D0002933D1BE
:108960001B6A002B30D1002AF2D01C4902200023C0
:1089700001220290081F8DF80C208DF82020099309
:10898000CDE9001069462846CDE90433CDE9063328
:108990000EF036FE2A68536A9D4218BF002B14BFA2
:1089A00001230023002BFDD1136A002BFCD10C4BBB
:1089B0005B7C03F001031A466377002BC8D094F860
:1089C00028100129F7D1656A2B68197B0029C2D1CB
:1089D000002ABDD0C9E70023EBE700BF1400002048
:1089E000000000202C4A012330B5044695B0101D2C
:1089F0008DF80C3007938DF820308DF834308DF8D9
:108A0000483002F10803656A0593CDE90020022091
:108A1000083A029021480A9200220490207F069290
:108A200090420B92139214BF05230423CDE90E222A
:108A3000CDE910222A680C93536A002B18BF9D427F
:108A4000174D14BF012300230995002BFDD1136A94
:108A5000002BFCD1E8B113480A0E00F11A0342764C
:108A60000A0A9970080C69465A701870606A0EF00C
:108A7000C7FD616A0A68536A994218BF002B14BF88
:108A800001230023002BFDD1136A002BFCD115B06C
:108A900030BD054BE4E700BF200000202986000818
:108AA00005860008000000201900002010B594B0D1
:108AB000044650220B49684641F0FCFC6946606A56
:108AC0000EF09EFD616A0A68536A002B18BF994236
:108AD00014BF01230023002BFDD1136A002BFCD10E
:108AE00014B010BD08A90408F8B50646406A056828
:108AF0006C6A002C18BFA04214BF01240024002C73
:108B0000FDD12C6A002CFCD1307F002839D0B0690F
:108B100005272A4D4FEA106C294C2E3505F801CC5B
:108B20006763A8704FEA104C000A012B85F800C05B
:108B300068704FF000000D6825641568A564356302
:108B4000A06524D0022B1BD15368012220651D444F
:108B50004968E3651B4B84F84C006165356384F814
:108B600060206366184B717F03F11402706A00295C
:108B700014BF194611460EF043FDF36A73B1306B12
:108B8000F8BD04200E4C114D6063B069C9E70D4A71
:108B900084F84C306065E0652265E3E7716A0A6835
:108BA000536A002B18BF994214BF01230023002BE6
:108BB000FDD1136A002BFCD1E1E700BF00000020CB
:108BC0000000012011860008040001202D00002073
:108BD00000B583B08161019201A9049A0093012339
:108BE000C2626A46FFF780FF03B05DF804FB00BF76
:108BF000F0B51D46436A95B007461E68746A002C9E
:108C000018BFA34214BF01240024002CFDD1336AF5
:108C1000002BFCD13E4B02203E4E029003F13C0063
:108C2000049603F13406009003F14000059601908C
:108C300001203E7F06948DF80C00002E55D00B923B
:108C40000A0E36338DF8204003F8012C05220C95CE
:108C50008DF834008DF8480013940792CDE909444B
:108C6000CDE90E44CDE910440A0C99702A4C090A4A
:108C70001A705970786AD4E93C32B3EB920F4FEA1C
:108C800092014FF0020206D2490852008B4292B282
:108C900001D2FF2AF8D97B7F828023BB05A90EF081
:108CA000AFFC786A01684A6A824218BF002A14BF82
:108CB00001220022002AFDD10B6A002BFCD1D4E94D
:108CC0003D23B3EB920F4FEA92014FF0020206D21E
:108CD000490852008B4292B201D2FF2AF8D9828011
:108CE000284615B0F0BD6946D9E70B92042235330A
:108CF0008DF820400C958DF834008DF848001394C1
:108D00000792CDE90944CDE90E44CDE91044ABE723
:108D100000000020298600084817012038B50446C5
:108D200090F8210100B938BD0FF078FA21460546C8
:108D300098B126220C4BC28041F80C3F3CF0B2FDAA
:108D4000AB884FF00042B3FA83F332FA03F3EAD070
:108D500006490A6813430B6038BD034B41F80C3FCA
:108D6000BDE838403CF09EBDA1870008003C0140B2
:108D70000269C3682DE9F04712EA03092AD00546C3
:108D80000E464FF000474FF00008B9FA89F327FA72
:108D900003F21B3BD24309EA02092A61042B16D8CD
:108DA000DFE803F0352C231A0300B36A002B37D019
:108DB00003F1FF3AC6F828801FFA8AFA746A34B1C0
:108DC00023682046514698476468002CF8D1B9F1D1
:108DD000000FDAD1BDE8F0877068696B036889B26B
:108DE0009847B9F1000FD0D1F4E7B068A96B0368D8
:108DF00089B29847B9F1000FC7D1EBE7F068E96B8A
:108E0000036889B29847B9F1000FBED1E2E7306933
:108E1000296C036889B29847B9F1000FB5D1D9E739
:108E2000E96A1FFA81FAC9E710B5044682B0806981
:108E300006236A4690F84C1110300EF0AFFD58B181
:108E4000BDF80010BDF80220BDF8043049BA52BA8E
:108E50005BBAE1812282638202B010BD10B582B09C
:108E6000044690F84D1106236A4610300EF096FD28
:108E700070B1BDF80010BDF80220BDF8043049BA49
:108E800052BA5BBAA4F8D010A4F8D220A4F8D43017
:108E900002B010BD8269F0B592F8DC308BB00546A7
:108EA000012B32D0023B012B3AD892F84C31EC46E0
:108EB000D2F89C2063F07F031B4C13708669D6F8B0
:108EC000A0305F1C0FCCACE80F00D6F89C30CDE989
:108ED00000370FCCACE80F0094E803008CE80300E7
:108EE000694606F110000EF08BFBAA69104650F897
:108EF000101F4B6A834218BF002B14BF01230023AD
:108F0000002BFDD10B6A002BFCD1D2F8A0305A887F
:108F100052BAEA819A8852BA2A82DB885BBA6B829B
:108F200001200BB0F0BD00BF58A90408F0B590F8BF
:108F3000DC308BB00446D0F8A050012B56D015D8A9
:108F4000D0F89C304FF0FF3205211A605A609A60C9
:108F5000DA60D0F8E030C0F8F010B3F57A7F5FD86F
:108F6000032380F8DC3001200BB0F0BD023B012B65
:108F7000F9D890F84D3100F1100ED0F89C20EC4655
:108F800063F07F033D4E1370D0F8A0305F1C0FCE0E
:108F9000ACE80F00D4F89C30CDE900370FCEACE838
:108FA0000F0096E8030076468CE803006946704699
:108FB0000EF026FB2269536A9E4218BF002B14BF95
:108FC00001230023002BFDD1136A002BFCD16B88F9
:108FD00001205BBAA4F8D030AB885BBAA4F8D230D9
:108FE000EB885BBAA4F8D4300BB0F0BD90F84C21FC
:108FF00090F84D319B1A5B100133DBB235F813202A
:1090000005EB430553BAA0F8D0306B885BBAA0F8E3
:10901000D230AB885BBAA0F8D43001200BB0F0BDE1
:1090200003691A7B2AB35B691BB390F8983003B3CA
:1090300090F84C310122D0F89C0063F07F03C4F813
:10904000A4400F49037094F84D3194F84C0184F812
:1090500000211B1A84F8DC20D4F8A0200733C4F8C0
:1090600004110132D4F89C10C4E93E23C4F8F41072
:1090700079E7022384F8DC3075E700BF58A90408BB
:1090800001800008836910B5074C04EB8303D3F813
:109090001C0135F087FA0021B4F83C013CF076FC65
:1090A000002384F83E3110BD4817012080699C30B0
:1090B00035F078BA2DE9F8430FF032FC2F4E4FF01F
:1090C000000C0746DFF8BC802D4C716800294ADD92
:1090D00000234FF486701D4600FB0362013392F8B3
:1090E0000521994245EA0205F6D145EA0C0C5FFAE2
:1090F0008CF9D8F80430C3F308038BBBEFF311836A
:1091000073BB4FF0E02CD4F89830DCF81810D4F88A
:1091100098209342F7D1D4F840219142F3D8D4F863
:1091200044C14FF47A7202FB0CF0401AB0FBFCF021
:1091300002FB0300C31BB3F5FA6FCCBF4FF0000C6A
:1091400005F0010CBCF1000FBFD1B9F1000F04D044
:109150000B4B93F848214F2A08D04846BDE8F883C6
:109160000FF0A6FAE6E7E1460025C2E7B3F8502182
:1091700048460132A3F85021BDE8F883C801002019
:109180004817012000ED00E02DE9F041304F07EBDA
:10919000401898F858340BB9BDE8F08100EB800313
:1091A0000E460021044607EB4313450193F846257C
:1091B00083F8461588F83E2441F096FBB8BB3D4441
:1091C0002448A5F83C6400EB441041F049FB3B788F
:1091D000D5F85424A3B1D5F840140124D2F8AC300A
:1091E0008C4003F1C001420010F4004F90B202D154
:1091F0005A6822435A600C339942F4D1BDE8F08199
:10920000D5F840140124D2F8AC3001F1100203F17A
:10921000C0019440420010F4004F90B202D15A684D
:1092200022435A600C339942F4D1BDE8F0810A4BD5
:1092300093F8B42102EB420203EBC203234493F8F8
:109240006161002EBBD0012388F83E34B7E700BF30
:10925000C8010020040600204817012010B504466C
:1092600040F0B0FC0146204689B2BDE810408BE7D3
:109270002DE9F04141F028FB80B31B4F7D68002DA4
:1092800012DD3846002410F8086BA046013416B1F0
:10929000037F012B1DD04269AC4200F58670136834
:1092A00043F001031360F1D10FF03AFBD7F8444AC1
:1092B000002C0CDD0D4B03EBC4041968083333F8A4
:1092C000042CC8689C4242EA0002CA60F5D1BDE89D
:1092D000F08180F8FC80FEF79BFFDCE73AF0E2FBD0
:1092E0000028CAD1BDE8F081C8010020100C002080
:1092F0002DE9F84F384F3B7813B90120BDE8F88FBE
:10930000364D07F23C4ADFF8DC80002405F1C80640
:109310004FF6FF79D8F898B015E0B0F5606F4CD0F3
:10932000A881B0EB09012E4B4FF05C005A4618BFE4
:10933000012100FB04300DF031FF01340AF1200A55
:109340001435082C33D0D7F83834A3422FDDDAF89F
:109350001830DAF80420D3E93D0141F09DFA4FF6C8
:10936000FE73984298F8483114D04F2B04D1B8F8C6
:109370004C310133A8F84C3156F8C03C484503F154
:10938000010346F8C03CC8D156F8C43C013346F846
:10939000C43CC6E74F2BD0D1B8F84E3101340AF1A6
:1093A000200A14350133082CA8F84E31CBD1012303
:1093B000012086F83E30BDE8F88F98F8B43103EB11
:1093C000430308EBC303234493F861310D2BA7D16A
:1093D0008023AB77A5E700BFC8010020F81100206B
:1093E00000130020481701202DE9F04790F8B23112
:1093F00086B01C09013C052C0FD8264E054603F00B
:109400000F0306EB4402B2F8F80040FA03F2D20769
:1094100003D595F8BD71012F03D0012006B0BDE83A
:10942000F08707FA03F33444DFF87080013B1840FB
:109430003FF032FC94F80441044408EBC40958F8A6
:109440003420B9F8043010691840E7D0124B95F871
:10945000B3A1134406EB932696F80C01002685F879
:10946000BD613AF047FEB9F8043058F83400694657
:1094700000930223CDF814A001930496CDE902666F
:109480003EF080F9D5F820213846136843F00803F0
:109490001360C3E708A904080000FEBF04190120F7
:1094A000F8B544F23B33054600F11004A0F84C3106
:1094B000FFF734FC95F8D830072B5BD195F81D31B8
:1094C0000226002B58D1374680226B2120460EF011
:1094D000FFF8642011F0B4FE0722682120460EF048
:1094E000F7F8642011F0ACFE00226B2120460EF04C
:1094F000EFF8642011F0A4FE01226B2120460EF04B
:10950000E7F80F2011F09CFE1B21FA0020460EF018
:10951000DFF80F2011F094FE1C21F20020460EF01F
:10952000D7F80F2011F08CFE2846FEF77DFD1A219A
:10953000024620460EF0CCF80F2011F081FE95F87F
:109540002021192120460EF0C3F8642011F078FE86
:109550001022372120460EF0BBF80F2011F070FECC
:109560002046012238210EF0B3F80F20BDE8F84064
:1095700011F066BE0326A6E70327A5E737B500F17D
:109580000C040546C0683EF0EBFE00220A2120468E
:109590000EF09EF8142011F053FE0F220A212046EF
:1095A0000EF096F80A2011F04BFE01AA03231021B9
:1095B00020460EF0F3F90A2011F042FE9DF8043027
:1095C00000220A2180332046A5F8FA309DF80530A4
:1095D0008033A5F8FC309DF806308033A5F8FE30C6
:1095E0000EF076F80A2011F02BFE0DF10302012394
:1095F000022120460EF0D2F901230DF103020921C8
:1096000020460EF0CBF911220A2120460EF060F818
:10961000012003B030BD37B500F10C0504467022BF
:10962000002128460EF054F82022012128460EF091
:109630004FF80022022128460EF04AF8642011F06B
:10964000FFFD94F8F80088B10EF0E8FD08B128237A
:10965000C3802146074B019041F8083F3CF022F9B6
:1096600001980EF07DFD01980EF07AFD012003B007
:1096700030BD00BFF185000810B500F10C04C068D2
:109680003EF06EFE0022212120460EF021F8FC2241
:10969000202120460EF01CF84022242120460EF006
:1096A00017F80C22232120460EF012F80022222166
:1096B00020460EF00DF8642011F0C2FD012010BD0F
:1096C00010B500F10C04C0683EF04AFE01220B21E7
:1096D00020460DF0FDFF20B11D22092120460DF08E
:1096E000F7FF00F0010010BD38B544F23B3300F144
:1096F00010050446A0F84C31FFF710FB03226B2144
:1097000028460DF0B3FF0F2011F0CCFB10226A2188
:1097100028460DF0ABFF0F2011F0C4FB00226C2196
:1097200028460DF0A3FF0F2011F0BCFB94F8202178
:10973000192128460DF09AFF0F2011F0B3FB1822D3
:109740001B2128460DF092FF0F2011F0ABFB1822D1
:109750001C2128460DF08AFF0F2011F0A3FB1022D8
:10976000372128460DF082FF0F2011F09BFB0122CC
:10977000382128460DF07AFF0F2011F093FB204688
:10978000FEF752FC1A21024628460DF06FFF012019
:1097900011F088FB0A480DF05BFDA0822046FFF720
:1097A0005DFB94F9D230013308D194F9D030013304
:1097B00004D10620BDE8384011F05CBE38BD00BFC2
:1097C000002D310110B50446FFF76AFE10226A2110
:1097D000A0180DF04BFF642011F032FD04480DF08D
:1097E00037FDA0820120BDE8104011F05BBB00BF37
:1097F000002D310138B5802204466B210DF036FF73
:10980000642011F01DFDF52120460EF05DFB05469C
:10981000012011F047FB682D1BD18C2120460EF052
:1098200053FB18280DD8142834BF002503252046E3
:10983000072268210DF01AFF642011F001FD28466F
:1098400038BDA0F15403DBB2072B34BF032500253C
:10985000EDE70025F3E7F52108B50EF035FB70289C
:1098600018D008D8422817D0472817D0122814BF7C
:109870000020082008BDAC2812D006D800F0FD005A
:10988000712814BF00200620F4E7AF2814BF002081
:109890000920EFE70520EDE70C20EBE70D20E9E7D5
:1098A0000720E7E73122F4213EF01ABE10B5044646
:1098B00000683CF0CFF838B920460623034AF72168
:1098C0003EF062FD012010BD0020FCE704070020EF
:1098D00008B503681A78012A06D006230C4A00212D
:1098E0003EF052FD012008BD93F90430094A03EB14
:1098F000430302EB431393F81125202A01D00020E3
:1099000008BDD3F8D0349B691B04F8D4E5E700BF49
:109910006C1701204817012038B52A4C02460D4625
:109920000C3094F83C36013B032B03D8DFE803F0FE
:109930000C1B222F0123244A02213EF025FD012386
:10994000002084F83C3606E094F83D36DB0703D46B
:10995000002084F83C0638BD06231C4A03213EF053
:1099600013FD0223ECE70123174A09213EF00CFD09
:109970000323E5E711220A213EF0B2FD94F83D06EB
:1099800010F00C00E4D1042384F83C36E3E7B2F98C
:10999000FA100E48FEF714FE404228800C48B2F937
:1099A000FC10FEF70DFE404268800A48B2F9FE1036
:1099B000FEF706FE0023404284F83C36A8800120D2
:1099C000C9E700BF48170120851D0120861D012021
:1099D000881D01208A1D012010B50E4C94F880309E
:1099E0004BB10C3006230C4A03213EF0CDFC002085
:1099F00084F8800010BD094B0120B3F8442652BA08
:109A00000A80B3F8462652BA8A80B3F848365BBA61
:109A10004B80EDE7000001208C1D0120481701203C
:109A200010B5134C94F881304BB10C300623114A19
:109A300028213EF0A9FC002084F8810010BD0E4AC8
:109A40000120B2F94A36002BB8BF03339B100B80BC
:109A5000B2F94C36002BB8BF03339B104B80B2F9E0
:109A60004E36002BB8BF03339B108B80E4E700BF5A
:109A700000000120921D01204817012010B5174C4D
:109A80000C3094F85036012B0CD0022B17D0012348
:109A900004F2516206213EF077FC0123002084F895
:109AA000503610BD94F8513613F00403F6D0062357
:109AB00004F2526200213EF067FC0223EEE7B4F8A4
:109AC000523601200B80B4F854364B80B4F8563629
:109AD0008B80002384F85036E3E700BF481701204D
:109AE00038B504460D46FEF75AFD23685C6808B198
:109AF00011F0D8F922680020094B516A83F84C0014
:109B000009B18C4209D1126A42B9204693F84D300E
:109B10002A46C9210DF014FF012038BD0020FCE7C2
:109B2000481701202DE9F843DDF820800F4616463E
:109B30000021202204461D4640F030FDB8F1000F00
:109B40000CD0D8F80030B8F80A20E3811B0C23822F
:109B5000D8F804306282E3821B0C238338463FF03E
:109B60002BF8F30619D4431EB8B107EB000C01E043
:109B7000013B12D31CF801EDBEF12E0FF8D1C01A33
:109B800003F10109421EB944032AA8BF0322082B8E
:109B9000A8BF082390461A4606E008280246B946A0
:109BA0004FF00008A8BF08224FF020333946204666
:109BB0002360636040F07EFC04F1080317484246CE
:109BC00049462081A072184640F074FC04F1FF3C25
:109BD0000346E21D1CF8011FA1F1610E2039BEF100
:109BE000190F98BF8CF800106245F3D1184604F1A4
:109BF0000B0110F8013BA3F16102203B192A98BF29
:109C000000F8013C8842F4D1182365832D0CE672DC
:109C10002373099BA582E361BDE8F883202020001F
:109C20002DE9F04FDFF88C9487B0D9F89800C9F887
:109C30009C00002B00F0DA801344154601F1200649
:109C400001F5FE77DFF870A403931FE0002D63D0C9
:109C5000D9F8CC20AA4200F0CD80D9F8C820AA4279
:109C600000F00281D9E93421AA424CD8A94200F27D
:109C7000CF81691A184639F069FD0135039B06F555
:109C8000007607F500779D4200F0B080D9F8D84003
:109C9000A6F12003AC42D9D82C1BD9F8E880E20801
:109CA000D8F8301004F0070402328A4203D3D8F8FF
:109CB00038108A420DD9414610460593049239F076
:109CC00015FD8046DDE90423002800F0C181C9F8B4
:109CD000E80098F80410002940F03F81D8F828B037
:109CE000BBF1000F00F0AD811846D8F830304FF4CA
:109CF0000071D21AD8F80C3004EBC20203EB4222F6
:109D00004346D847B9E7A942B3D918464FF4007281
:109D1000002140F043FCB0E74FF40072294618469A
:109D200040F03CFC80220346D94886F89E210C2254
:109D300086F8A221D9F8C810D9F8C0208142C3F80A
:109D4000C611C3F8CA2100F36881D24B013AD24C44
:109D500083FB0103C81784FB01C40B44C0EB6313EE
:109D6000C0EB2430CD4C84FB03C4C3EB831C86F8CA
:109D7000A1018010A1EB0C011C4420F03F00013137
:109D8000014386F8A011D917C1EBE4110B4486F802
:109D90009F31BF4B9A4200F34C81BE4BBE4883FBC0
:109DA0000213D11780FB02401344C1EB6313C1EBD4
:109DB0002031BA4880FB0340C3EB831486F8A51119
:109DC0008910121B184421F03F0101320A4386F822
:109DD000A421DA17C2EBE010034486F8A33155231F
:109DE00086F8DE31AA2386F8DF3146E7002007B087
:109DF000BDE8F08F4FF0FF320024A6F11C00049361
:109E000083F8EC21214683F8ED2183F8EE2183F8D5
:109E1000EF2152221A705A7061229A7083F8E7215A
:109E20004122DA7083F8E621722283F8E42183F874
:109E3000E521D9F8E020C3F8E8214FF4F07240F0B2
:109E4000ADFB049B5522C6F8D041C6F8D441C6F8F4
:109E5000D84183F8FE216FF0550283F8FC4183F866
:109E6000FD4183F8FF2108E78D4C00214FF400727B
:109E7000184640F093FB03464FF0000C022203CC3F
:109E800046F8191CEB2146F81D0C082006F8201C8A
:109E9000582106F81F1C902106F81E1CF8211A7381
:109EA00083F80BC006F8130C9A7383F80FC006F8FA
:109EB000102C06F80B1C83F82C20D9F8C810D9F800
:109EC000C02083F819C0521A83F81BC083F81DC044
:109ED0001A6283F81EC083F81FC083F82DC083F870
:109EE0002EC083F82FC0D9E93412521A80215A6249
:109EF0003F221A764FF0FF329A763E221A770122DD
:109F000083F8302083F831C086F820102921654B72
:109F100086F82210942186F8260086F823100E2158
:109F2000614A86F824100D2186F82510552186F8FF
:109F3000DE11AA2186F8DF1103CBC6F82B10198891
:109F4000C6F827009B78A6F82F1086F8313003CA90
:109F5000C6F83200C6F836108FE64FF40072184685
:109F6000002140F01BFBD8F840200346002C76D19E
:109F7000002A00F0A380D8F8303011224B49CDE9F7
:109F80000044FFF7CFFDD8F840301A6C002A00F0EB
:109F9000A1801B6BCDE900441122454930464FF4A6
:109FA000E07BFFF7BFFD06F12003D8F84480B8F14D
:109FB000000F3FF462AE03F120049B440495234656
:109FC0004446984610E05CF81C1B0025236BCDE945
:109FD00000C5FFF7A7FDABEB0803A46C08F1200850
:109FE000002C18BF1F2B51D92379A44604F11C0E55
:109FF0001122A8F12000002BE5D162792569236B9D
:10A0000042F021022168CDE900E5FFF78BFDE2E790
:10A01000A91A184639F09AFB2FE6FF23013A86F871
:10A020009F3186F8A13186F8A031194B9A427FF70B
:10A03000B4AEFF2386F8A33186F8A53186F8A431A3
:10A04000CDE6594618464FF4007240F0A7FA14E6E0
:10A05000A6F1240343F804AF9F42FBD10DE6002A8A
:10A06000D8F844800CBF01220222C2EB0414B8F1DC
:10A07000000F3FF402AE4246013C926C002C01DD21
:10A08000002AF9D190464FF4007B90E7049DF4E557
:10A09000FF03FB0083200882975545418180808023
:10A0A000F0200508FC20050808210508E82005081F
:10A0B000EC20050848170120DEADBEEF234608223C
:10A0C000D9F8C4104FF4F07BCDE90044FFF72AFD26
:10A0D00033466AE72346CDE900445DE7BFF34F8F7F
:10A0E0000549064BCA6802F4E0621343CB60BFF334
:10A0F0004F8F00BFFDE700BF00ED00E00400FA0550
:10A10000014B53F820007047502800402DE9F041E2
:10A11000CB781BB900263046BDE8F08100F110076E
:10A120000C460546897838460DF0B2F806460028F8
:10A13000F0D0E0780EF072F8A86123780133DBB23A
:10A1400010B1C371222383710D210EF0D3F8A869D9
:10A150000DF098F8104AD2F89830632BFBD90F48CD
:10A160000DF076F8DFF83C800D4BA88202E058F83D
:10A17000043B53B13846984703460028F7D0286976
:10A1800085F8D8303EF0ECF8C5E7E0781E460EF0D2
:10A1900045F80EF0CFF8BEE74817012040420F0007
:10A1A000F597000820AA040830B490F8443000F174
:10A1B0000801484A012BC2F858166ED083684649F8
:10A1C000DC68464D24F46004AB42DC60DC6844F497
:10A1D0006004DC609C6B24F440149C639C6B44F42E
:10A1E00080149C639C6B24F4F8449C639C6B44F443
:10A1F00088449C639C6824F470249C609C689C60E8
:10A200009C6824F440149C609C689C605C6824F406
:10A2100080645C605C6824F480545C605C6901EA82
:10A22000040159615969596147D0DC682A4924F011
:10A23000E064DC60DC6844F0E064DC609C6B24F487
:10A2400040149C639C6B44F480149C639C6B24F4CA
:10A2500078249C639C6B44F410249C639C6824F4D5
:10A2600070249C609C689C609C6824F440149C60F2
:10A270009C689C605C6824F480645C605C6824F486
:10A2800080545C609C692140144C9961A342996997
:10A29000996118D0002380F844301148114B848D07
:10A2A000C18D408D091BC2F86046C2F85C0693FB65
:10A2B000F1F330BCC2F8643670470B4C616841F46E
:10A2C00000016160B1E708494B6843F400034B604B
:10A2D000E0E700BF4817012000F0FFFF0020014029
:10A2E000007AF01F8038010000230140704700BF52
:10A2F000014834F067BB00BF181C0120084810B4A7
:10A30000D0F8D034D0F8044599691A682CB12346A6
:10A3100000F59A605DF8044B18475DF8044B7047F0
:10A3200048170120014834F04DBB00BF781C0120C4
:10A33000084810B4D0F83035D0F8644599691A68E7
:10A340002CB1234600F5A6605DF8044B18475DF874
:10A35000044B704748170120014834F033BB00BF5D
:10A36000D81C0120084810B4D0F89035D0F8C44566
:10A3700099691A682CB1234600F5B2605DF8044B68
:10A3800018475DF8044B7047481701202DE9F84F36
:10A39000D94F6023044603FB0073D3F8BC54002D4F
:10A3A00000F0A681D3F8C4641EB1B379002B40F04D
:10A3B0009F81602303FB0473D3F8C894B9F1000FA5
:10A3C00004D099F80630002B40F09281631CDBB278
:10A3D00016B11522F371B271B9F1000F04D0162233
:10A3E00089F8073089F80620287C4FF0090839F0F1
:10A3F00081FE30460CF046FF48460CF043FF112129
:10A4000030460DF077FF112148460DF073FF4FF0F5
:10A41000330A02E00A2010F045FD30460DF0CCFE74
:10A4200010B9BAF1010AF5D130460CF025FF05202C
:10A4300010F038FD30460CF025FF052010F032FDFD
:10A44000B8F10108E3D130464FF0600B0CF014FF77
:10A45000052010F027FD48460CF00EFF0BFB04FB17
:10A46000052010F01FFD30460CF00CFF07EB0B0A27
:10A47000052010F017FD48460CF004FF9AF8CC3484
:10A4800030460422002B9D4E14BF3E211E210DF0AC
:10A4900011FF9AF8CC345E444846002B4FF004027A
:10A4A000C14614BF3E211E210DF004FF4C2241463F
:10A4B000304640F073F8DAF8BC349FED917AB0EE94
:10A4C000084A5B68F7EE003ABAF8CEB4CAF8D0345E
:10A4D0008C4B9FED8D5A9A688C4BC2F382221344A9
:10A4E00093F82021D7F8F430D34007EE903AF8EEF5
:10A4F000677AC7EE275A07EE90BA9FED857AF8EE95
:10A50000E77AC7EE274ADFED837AB0EE007AE5EE10
:10A51000877AA5EE875A25EE844A37EE856A74EE6F
:10A52000E72ABBF5C87F40F2145309F1010ED7BFEB
:10A530001946322364234FF49670C8BF782007EE83
:10A5400090EAD4BF4FF4167C4FF4827C0344B8EEFB
:10A55000E77AC8BF4FF4FA7107EE903A27EE257AF2
:10A5600001EB0C03F8EEE76A86EE873A73EE636A56
:10A57000FCEEE67A17EE902A07EE90CAB8EEE73ABC
:10A5800007EE903AF8EEE77A23EE243AC3EE276A14
:10A5900036EEC53A72EEE66AC3EE077A77EEE37AF4
:10A5A000FCEEE77A17EE901AC6EE877A77EEE37A3A
:10A5B000FCEEE77A17EE903A03F1020C0CEB010A7D
:10A5C000F0EE466A07EE90AAF8EE677AE7EE276AA1
:10A5D000F4EEE64AF1EE10FA00F38C805FFA82FCAA
:10A5E000BCF10F0F00F29C80323807EE900AF8EEB3
:10A5F000E77A77EEC47AC7EE876AFCEEE67A17EE62
:10A6000090CA5FFA8CF00F2800F28A8088B2FF2887
:10A6100000F2868098B2FF2800F2828040EA097337
:10A6200010054FEA0C4200F07F6002F47F02034302
:10A630001343394A02EA012143EA01086020012359
:10A6400000FB047400273046C4F8DC34C4F8D4841A
:10A65000C4F8D874C4F8E074C4F8E474C4F8EC74B2
:10A66000C4F8F0743DF0A6FA94F81135202BD9B255
:10A670001AD194F81035012B16D0242384F8113503
:10A68000D4F8D0341A6822F001021A601A6822F451
:10A6900080521A601A681A601A6842F001021A6041
:10A6A00084F8111584F81075002195F912003BF01B
:10A6B00065F895F91230AA7C002B07DB02F01F0128
:10A6C00001225B098A40154941F82320002195F9B0
:10A6D00011003BF053F895F911306A7C002B07DB31
:10A6E00002F01F0101225B098A400C4941F8232036
:10A6F000BDE8F88F013161E748170120181C0120DF
:10A70000286B6E4E003802400000164308A904086A
:10A71000002474490000704200FFFF0000E100E0E7
:10A72000BEF10F0F8AD0F146FBE600BF0348D0F818
:10A7300094300BB184301847704700BF00000120EF
:10A740000348D0F8B8300BB1A8301847704700BFA5
:10A75000000001200348D0F8DC300BB1CC301847A2
:10A76000704700BF000001200348D0F800310BB152
:10A77000F0301847704700BF000001200348D0F8B0
:10A78000243113B100F58A7018477047000001208A
:10A790000348D0F8483113B100F59C701847704752
:10A7A000000001200348D0F86C3113B100F5AE7001
:10A7B00018477047000001200348D0F8903113B1CA
:10A7C00000F5C07018477047000001200348D0F81A
:10A7D000B43113B100F5D270184770470000012062
:10A7E0000348D0F8D83113B100F5E470184770472A
:10A7F000000001200348D0F8FC3113B100F5F670D9
:10A8000018477047000001200348D0F8203213B1E8
:10A8100000F5047018477047000001200348D0F885
:10A82000443213B100F50D70184770470000012045
:10A830000348D0F8683213B100F516701847704716
:10A84000000001200348D0F88C3213B100F51F70CE
:10A8500018477047000001200348D0F8B03213B108
:10A8600000F5287018477047000001200138074B99
:10A87000074A00EBC00003EB8000D0F88400904250
:10A880000CBF9520962039F035BC00BF0000012098
:10A890000060024001382DE9E84100EBC000134D93
:10A8A0001E46134B05EB800590460F46D5F88400F5
:10A8B00098420CBF9520962039F01CFC95F9990020
:10A8C0004FEA9811C5F89470C5F89C603AF056FFAD
:10A8D00095F99930002B07DB03F01F0001225B097B
:10A8E0000449824041F82320BDE8E88100000120AE
:10A8F0000060024000E100E0AB4B2DE9F04F97B063
:10A9000093F87A86A94B0025A94F0093A94BA3F58C
:10A91000CE6ADFF8B892DFF8B8B24E46B30AA3F5B4
:10A920008013522B55D8534493F828310D2B50D80F
:10A93000B8F1010FFC5640F01D81012C3FD14FF0C2
:10A9400000094946204611F0FDFA11F083FB90F80A
:10A9500000C0BCF1000F18BFBCF1540F14BF4FF082
:10A96000010C4FF0000C40F0018109F104091FFABD
:10A9700089F9B9F1100FE4D1002D00F0B9808B4AAC
:10A9800000210DE0534493F828310D2B0FD8FB56CE
:10A99000A3420FD0013102F58672A94280F2A48051
:10A9A000906803689B0AA3F58013522BEAD9002311
:10A9B000A342EFD143799BF805009842EAD17D4B41
:10A9C0005B4513D05BF8206FB30AA3F58013522BBD
:10A9D000A9D9B8F1010FF2D001230024B8F1020F78
:10A9E000ADD1002BABD0734B5B45EBD1009B013558
:10A9F00003F58673042D00938BD16F4B4FF0010844
:10AA0000DFF8D0B1009303F57C73ABF23C4A0593B9
:10AA100008F1FF33DAF838249A4262DDDBF80C6083
:10AA2000002E00F0C3833168B78801F13F41B7FAC7
:10AA300087F701F57E01C7F11F07890ADAF804508C
:10AA4000002D40F3CB80594B002405E0013403F581
:10AA50008673AC4200F0C0801A688A42F6D14FF487
:10AA60008673524ACBF8047003FB04245FFA88F320
:10AA7000CBF8184016B1F3710323B3717A000321A8
:10AA8000012301FA02F0A16C03FA02F20143A1646E
:10AA9000216D0A4322659AF80020002A6FD0626D6A
:10AAA000BB401A43626516B13268B188916199B2B0
:10AAB0000122D4F8AC00FDF7CBFA204608F10108DA
:10AAC000FDF7A6FB0123009AB8F1090F8BF81C30A3
:10AAD0000BF1200B0BF8033C537402F118030093A5
:10AAE00096D117B0BDE8F08FBCF1000F7FF467AFCF
:10AAF00058460DF0F9FA9BF80540C3B2022B00F25C
:10AB00005D83431C2D4A5BB203EB430398002C4B3F
:10AB100003F5727104E0994200F0508353F82C2F32
:10AB2000B242F8D11A79A242F5D11A58002AF2D0CD
:10AB300094460023234A51680133614513D0102BFA
:10AB400002F12402F7D14FF0FF3303EBC3031E4A97
:10AB500002EB830393F8A030002B7FF430AF009B0F
:10AB6000C3F808B042E7DBB2013BEEE7002D7FF40B
:10AB700006AF24E7B4F1080318BF01232EE707F15D
:10AB800010029340626D134363651EB1B38832684F
:10AB90001B04936101210022D4F8AC00B94089B2B2
:10ABA000FDF756FA89E700BF48170120D0010020C1
:10ABB0009421050878AF0408281600200000014001
:10ABC00084AA040884000120000001200004014040
:10ABD00078AE040804060020032C67DC4FF486736B
:10ABE00003FB05A31869002800F0D68299600131A3
:10ABF000CAB283F811210292542283F810216B1CEF
:10AC00000268CAF80430447901920DF06DFAA24B43
:10AC1000864693F88F3603939BF810300493C3B2A3
:10AC2000022B00F2CB8200F1010C9C499C480023CE
:10AC30004FFA8CFC019A0CEB4C0C4FEA8C0C05E0A3
:10AC40000133172B00F0BA8251F82C0F8242F7D152
:10AC50000879A042F4D151F80C000028F0D02C2142
:10AC60000EEB4E0EDFF86C9201FB03F38D494C4660
:10AC700003EB8E030B44D3F88C114FF4867303FB64
:10AC800005A3C3E907010021636898421FD0013181
:10AC900024341029F8D1844B93F87C2052B90299BE
:10ACA000542283F87D1083F87C2003E003237A4A42
:10ACB00082F88E367D4B7E487E497F4AC3F850032A
:10ACC000C3F84813C3F8582317B0BDE8F08F4B1CE6
:10ACD0007549DBB2013B03EBC30301EB830393F83C
:10ACE000A01006910029E5D1029983F8A1104FF434
:10ACF000867101FB05F08C210446542083F8A000E6
:10AD00002046A3106D4C0190504404FB03F33468BB
:10AD1000C0F80011C46003FB01F1059C03EB430381
:10AD200004EB410103EB0313C0F8FC10644901EB91
:10AD30008303C0F8B4303323C0F8B830614B0198B6
:10AD40001C18554BD3F8F410039B062B00F02182FE
:10AD5000072BDFF884C15C4B5C4808BF18465C4B8E
:10AD600008BF6346B1FBF3F3B1FBF0F110465A1E86
:10AD70004FF48673013992B203FB05A3A3F8BC100C
:10AD8000A3F874200293019B2266002203F158016C
:10AD90004C4BA4F8582019446266E2653CF06EFC06
:10ADA000029B1A6910680292036843F080030360F3
:10ADB00053790C2B08D8DFE803F067070707600713
:10ADC00007075807070750004FF4867303FB05A3D6
:10ADD00059694FF0600C026800234FF0020ECDF865
:10ADE00038C04FF4807C22F001021093CDF850C09F
:10ADF0004FF0010C1393CDF83CC04FF00A0C1593A3
:10AE0000CDE911CE02600EAA3CF0F6FA4FF486723C
:10AE1000029B02FB05A251691A680023012900F078
:10AE20008081042900F07D81102900F0BA81402939
:10AE300000F07781B1F5807F50D0B1F5806F4DD0B3
:10AE4000B1F5805F00F0B681B1F5803F4FF03C0373
:10AE50000CBF08214FF4006142E04FF486734FF4B9
:10AE6000805103FB05A35961B3E74FF486734FF498
:10AE7000807103FB05A35961ABE74FF48673102182
:10AE800003FB05A35961A4E74FF48673012103FB7B
:10AE900005A359619DE700BF4817012084AA040853
:10AEA0000000014008A9040800000120C012002091
:10AEB00025610108216101082D6101086B4CA4077F
:10AEC000E8160020D001002010552200449508000B
:10AED000D0DD06008400012040771B0008210423F8
:10AEE00002F1180050F803C041EA0C01C150029B66
:10AEF0001879002840F01E814FF48672002302FB6F
:10AF000005A21069D1690068026842F0010202607E
:10AF1000D9F804200133914200F00881102B09F187
:10AF20002409F5D14FF0FF33A74A03EBC30302EB2B
:10AF30008303D3F88400A54B98420CBF952096203C
:10AF400039F0D8F84FF4867303FB05A31A695379D7
:10AF50000C2B00F2E8809E4901EB4303B3F890C646
:10AF60004FF4867310689B4903FB05A3A3F818C030
:10AF7000002306E0904200F017810133042B00F01B
:10AF8000208151F83320002AF4D1DAF8442A013222
:10AF9000CAF8442A0AEBC302DB00C2F8480A194483
:10AFA000069823469022B1F804E0DFF840924CEA7C
:10AFB0000E0CA1F804C08849FFF76CFC4FF48673AF
:10AFC0004FF4403C402103FB05A50023E8690268DB
:10AFD00042F010020260026842F014020260C4F8FB
:10AFE000A830C4E91F33C4E9283304232A6AC4F80B
:10AFF00098C04FF4804CC4F89C304FF48063A16734
:10B00000C4F88430C4F89420D5F8B820C4F890204F
:10B01000C2B220F0FF00103AA9FB0231EA68019B9E
:10B020001832090922674FF48052C4F8882003F1CE
:10B0300070026A4B1A44D5F8B430C4F88CC0636708
:10B040003CF054FCE869019B4FF40031D0F800E07B
:10B050004FF4006C03F1B802604BC4F820E0D0F864
:10B0600014E01A440023C4F824E0D0F804E0C4F843
:10B0700028E0D0F808E0C4F82CE0D0F80CE0C4F8E0
:10B08000C830C4F830E0C4F8F030C4E93033C4E963
:10B090003A332B6A01930423C4F8E4304FF48063FD
:10B0A000C4F8CC30019BC4E93731D5F80031C4F87D
:10B0B000D830C3B220F0FF00103BA9FB0331EB688E
:10B0C000C4F8D0C010330909C4F8B830D5F8FC3042
:10B0D00001934FF48043C4F8D430019BC4F8BC30D2
:10B0E0003CF004FCEA695FFA88F311686163516916
:10B0F000A1635168E16391682164D168616411685A
:10B1000041F010011160116841F014011160049ABE
:10B11000CBF804708BF81020CBF80C60CBF81840FB
:10B12000A9E40821DCE64FF0000C19E7DBB2069336
:10B13000013BF9E603920DF071F8039A20B302681F
:10B14000234B02F13F42079002F57E0203EB92226D
:10B15000029B92F80C011A7A039238F0CBFF079BFE
:10B16000039A99880D92002218680C92089108A9F8
:10B170000393CDE90A22022209923CF003FB5422F8
:10B18000039BDA80029B1A68536C43F400435364B8
:10B19000B2E61348134BE5E50223134A82F88E36D4
:10B1A00088E54FF400619BE6DB00F8E64FF0FF37DF
:10B1B000394643E44FF40061042391E600235B68C1
:10B1C000FFDE00239B88FFDE0000012000600240BC
:10B1D00008A90408100C00209D800008D001002060
:10B1E000882A1100A0BB0D0048170120ABAAAAAA0B
:10B1F0002DE9F041834DC0EB001605EBC606D6F8ED
:10B200009036002B00F0BC800446070196F800073A
:10B2100038F070FF96F80037012203F01F015B0938
:10B22000013B8A40032B0AD8DFE813F0E00004005A
:10B23000E600DA0074494B6A23EA02024A623B1BC9
:10B2400004F1010805EBC3035FFA88F893F894064C
:10B250000CF0E4FF18B1122380F8078083713B1BC8
:10B2600005EBC30393F895060CF0D8FF064618B11A
:10B27000132380F8078083713B1B05EBC30393F80E
:10B2800096060CF0CBFF18B1142380F80780837169
:10B290003C1B2E21304605EBC40494F898260DF093
:10B2A00009F894F896060CF0B9FF94F899260E2147
:10B2B0000DF000F894F894060CF0B0FF94F897267F
:10B2C0002E210CF0F7FFD4F8903650491A688B42C3
:10B2D00022F040021A6055D04D4A934269D002F5DF
:10B2E0008062934258D1484A116A41F40041116288
:10B2F000116A21F4004111625A6842F480525A6086
:10B300001A68520634D443491E68D1F8D842D1F89D
:10B31000E402D1E9B125B0F5005F42EA0502D1F8B7
:10B32000D05242EA0502D1F8D45242EA0502D1F8DD
:10B33000DC5242EA040242EA0502D1F8E05242EA53
:10B340000502354D42EA000205EA060542EA050219
:10B350001A60D1F8CC225D6842EA14422F4C04EA0C
:10B36000050442EA04025A6002D1B1F8E8221A61E7
:10B37000DA6922F40062DA611A6842F040021A6067
:10B38000BDE8F081204A516A41F480515162516A0E
:10B3900021F480515162AFE7214A934213D11A4AF6
:10B3A000516A41F400515162516A21F400515162D5
:10B3B000A2E7154A116A41F480411162116A21F431
:10B3C0008041116298E7174A934295D10E4A516A1B
:10B3D00041F480115162516A21F4801151628BE76E
:10B3E00009490B6923EA02020A6128E706494B6909
:10B3F00023EA02024A6122E703490B6A23EA0202B6
:10B400000A621CE748170120003802400030014062
:10B4100000380040000001204000FFFFFBF0FFFF6C
:10B42000003401400050014030B4046900234168F9
:10B430004025E46882690C31546244699560536028
:10B4400093631160C2E90333C2E90533C2E90733EC
:10B45000C2E90A33C2E90C3384B1C269E06893637C
:10B4600050621160C2E90133C2E90333C2E9053316
:10B47000C2E90733C2E90A33C2E90C3330BC704772
:10B48000114A037A0168D35C10B4CC58CA1824F06E
:10B490000104CC501368DB07FCD4037D1F2B09D9B2
:10B4A000203B20225DF8044B02FA03F343F018031B
:10B4B000CB60704720225DF8044B02FA03F343F09F
:10B4C00018038B60704700BFA4210508F0B506681B
:10B4D000356A00295CD12F68AC68D6F818E0002FD7
:10B4E0005FD0364B3B40B3F1005F61D007F01F01E6
:10B4F00004F11F0327F01F02194421F01F01BFF3BD
:10B500004F8F00290BDD114402F12003DFF8B0C09A
:10B510008B42CCF868221A4603F12003F8D1BFF31E
:10B520004F8FBFF36F8F03684FF48062CEF80470C3
:10B53000CEF814205B69CEF8204043B36868F66902
:10B54000002837D01D4B0340B3F1005F1AD000F044
:10B550001F0220F01F011F32224422F01F02BFF3FE
:10B560004F8F002A0ADD0A4401F12003144D9A424C
:10B57000C5F87012194603F12003F8D1BFF34F8FBD
:10B58000BFF36F8F4FF48063706073613462F0BDFE
:10B59000EC69002CFBD06F691435D6F818E0002F49
:10B5A0009FD1084A3346CEF81470CEF80420C1E784
:10B5B0003346B9E7044B70617360E7E70000FFFFB3
:10B5C00000ED00E04400002048000020F8B50768C6
:10B5D0000646D7E90454002C50D0A0612B7D1F2BC8
:10B5E00039D82022286802FA03F343F01803836055
:10B5F000237D1F2B3AD92022203B02FA03F3226835
:10B6000043F01803D3606368002269680A601A6017
:10B610001A6842F010021A60BA69297A3CF066F999
:10B62000FA69217A20683CF061F92A7A2A492F6860
:10B6300033688D5C5A687B59206843F001037B5165
:10B64000237AC95C435843F001034350536843F0E5
:10B6500003035360F8BD203B2022286802FA03F35D
:10B6600043F01803C360237D1F2BC4D8202202FAA5
:10B6700003F3226843F018039360C4E72A7D6B68E4
:10B680001F2AA8611FD82021286801FA02F242F07F
:10B69000180282600021BA691960196841F010012E
:10B6A0001960297A3CF022F92A7A0B493368286814
:10B6B000895C5A68435843F001034350536843F090
:10B6C00002035360F8BD203A2021286801FA02F2F3
:10B6D00042F01802C260DDE7A4210508014B43F8DF
:10B6E0002010704750280040F0B5A24CA5B0E36888
:10B6F000022B00F03A82A048A04AA149121A3EF05B
:10B70000D9FEA048A04AA149121A3EF0D3FEA36870
:10B71000012B00F2C28003EB43039D4A9D4D02EBD7
:10B72000430032F8132041888388C5E9BB21C5F85E
:10B73000F432994C994E9A4BB2FBF1F2994901FBC4
:10B7400002F20021C6F8F420D4F8882042F47002F6
:10B75000C4F888201A6842F001021A609960924A7F
:10B760001868024091481A60C0F30807904A5A606E
:10B770001A6822F480221A60D96007B1FEE78D4969
:10B78000A0604FF6FF000A688B4B42F400720A601B
:10B79000E26802401343E3603AF0D8F8BFF34F8FFA
:10B7A000BFF36F8FC4F85072BFF34F8FBFF36F8F2B
:10B7B000636943F400336361BFF34F8FBFF36F8F4F
:10B7C000C4F88470BFF34F8FD4F8803043F6E07C28
:10B7D000C3F3C90EC3F34E33580100EA0C0173469C
:10B7E00041EA8372013B5F1CC4F86022F8D1203823
:10B7F00010F1200FF1D1BFF34F8F636943F4803311
:10B800006361BFF34F8FBFF36F8F6A49644B0A6860
:10B8100042F480720A60196C684A41F080511964E0
:10B82000196C01F0805102910299116841F4404174
:10B8300011601268D5F8EC0202F44042D5F8F042EB
:10B84000D5F8F4120192019A9A6802F00C02042AC7
:10B8500000F08D809A6802F00C02082A00F08380C4
:10B860004F4A136843F480331360D6F8707804E0CD
:10B87000D6F87038DB1B642B74D813689B03F7D59C
:10B88000474A936803F00C03082B6BD0136823F02E
:10B8900080731360D6F8707808E03E4DD5E9BB217F
:10B8A00047E7D6F87038DB1B022B5BD813689B0187
:10B8B000F7D40B06640843EA8013611E43EA014390
:10B8C0003F491943364B5160116841F08071116056
:10B8D000D6F8701804E0D6F87028521A022A41D817
:10B8E0001A689201F7D5196C344A41F080511964F5
:10B8F0001B6C03F080530393039B136843F4803362
:10B900001360D6F8701806E0D6F870385B1AB3F5F5
:10B910007A7F00F2CB805368DF03F5D5136827499F
:10B9200043F400331360D6F8702806E0D6F8703878
:10B930009B1AB3F57A7F00F2B9804B689C03F5D56A
:10B940004FF400124FF0006304A804924FF4C07249
:10B9500021930723CDE9082303230A9333F0F6F854
:10B9600080B3FEE7FEE75B685A027FF579AF0C4BC8
:10B970001B6885E75028004000000000883D00005B
:10B98000FCA2050800000020C801002061F905089C
:10B99000B4AF04080000012000ED00E048170120CA
:10B9A0000038024040420F00FFFFF6FE0000000892
:10B9B00010300024003C02400003FA0500700040F3
:10B9C000080040206C4A136803F00F03062B0AD8C6
:10B9D000136823F00F0343F007031360136803F0A9
:10B9E0000F03072B63D1654B9A6842F4E0529A60CB
:10B9F0009A6842F460429A609A6822F0F0029A6073
:10BA00001A68900153D59A6841F2883122F00302F6
:10BA100042F002029A60D6F8700804E0D6F8702866
:10BA2000121A8A4243D89A6802F00C02082AF5D109
:10BA3000514A136819070AD5136823F00F0343F01E
:10BA400007031360136803F00F03072B2FD14B4C30
:10BA50004B4FA36823F4E05343F4A053A360A368BF
:10BA600023F4604343F40043A36033F03BF8A3683E
:10BA7000C3F303133B4493F8B836D840C6F8F40038
:10BA800039F064FF002304A8CDE91333CDE9153361
:10BA9000CDE91733CDE91933CDE91B33CDE91D339A
:10BAA000384B049333F052F810B1FEE7FEE7FEE79F
:10BAB00002234FF0007204A8CDE90633D823CDE964
:10BAC000042301230B9333F041F800B1FEE7D4F8CF
:10BAD0008C3023F08073C4F88C30D4F88C3043F071
:10BAE0008073C4F88C30A36803F00C03042B36D0A9
:10BAF000082B18D0244BC6F8F430204AD5E9BB31C6
:10BB0000B3FBF1F39168D6F8F420C1F303110F44AD
:10BB100097F8B816CA401D4901FB03F3C6F8F42094
:10BB2000934220D0FEE76368626813F4800F636875
:10BB300002F03F0218BF1649C3F3881308BF124929
:10BB4000B1FBF2F202FB03F30C4A5268C2F301426A
:10BB500001325200B3FBF2F3C6F8F430CDE70C4BE0
:10BB6000C6F8F430C9E725B0F0BD00210320FFF787
:10BB7000B5FDFEF7B3FA00BF003C024000380240BA
:10BB800008A90408C0FF03000024F40040420F008D
:10BB900000127A001D4B1E48196C1E4A41F080515C
:10BBA00030B4196482B0196CFF2401F08051019106
:10BBB0000199016841F480710160CA20196C41F457
:10BBC00080611964196C01F4806100915321009D1A
:10BBD0005462506251625B6FDB000DD40E4B00214A
:10BBE0000E4A43F8041B9342FBD10D4B0D4AC3F898
:10BBF000502802B030BC7047094A0A4BD2F850288E
:10BC00009A42EBD102B030BC704700BF003802400E
:10BC10000070004000280040542800406C2800407C
:10BC20000020004031666542800AA0F5801052284D
:10BC300008D8054B184490F828310D2B02D8034A38
:10BC4000D05670470020704708A9040894210508C1
:10BC5000F0B50446D0F89400434B83B0A16804F1DA
:10BC6000640204F118070E68C1B220F0FF000192CF
:10BC70001039A3FB013109093BF082FE616D0023FD
:10BC8000019A012984F8583018D0042916D01029B7
:10BC900055D0402912D0B1F5807F53D0B1F5806FD7
:10BCA00050D0B1F5805F55D0B1F5803F4FF03C03E7
:10BCB0000CBF6FF0080C6FF4006C01E06FF0080C23
:10BCC00006F118053046E95801EA0C01E950616DAA
:10BCD0003BF092FB636D012B16D0042B14D0102B7C
:10BCE0000FD0402B10D0B3F5807F2FD0B3F5806FED
:10BCF0002CD0B3F5805F31D0B3F5803F06F1540509
:10BD000002D04FF4006100E008212B683A46D4F8D5
:10BD100094000B4340212B602162C1B2124B20F0F2
:10BD2000FF001039A3FB013109093BF0DFFDD4F816
:10BD30009420136843F01003136003B0F0BD6FF458
:10BD4000006CBDE76FF0080C0423B9E706F11C0591
:10BD50000821DAE76FF4006C0423B1E706F11C0553
:10BD60004FF40061D1E700BFABAAAAAA944B2DE91A
:10BD7000F04F1C782DED028B85B034B9012420469C
:10BD800005B0BDEC028BBDE8F08F8E4B8E4FD3F823
:10BD9000983008EE103A0CF0C3FD97F8EC3B019098
:10BDA000002B00F00681864B07F1400AA7F1C8047A
:10BDB000002603F2445B5D46CDF80CB0D7F828337B
:10BDC000019AD31A03D4EA6D9A4200F3D5807C4AD3
:10BDD00006EB860302EB431393F89C3503F0FF0256
:10BDE0000092002B00F08E80D5F89410AB68774855
:10BDF0001A68CBB221F0FF01103BA0FB030374488B
:10BE00001B09C35C19444B68A9891FFA83FED368D8
:10BE1000CEF1160E23EA0103BEF1070FD36071D9EC
:10BE200057F8C03C00220121013390468B4647F869
:10BE3000C03CD5F89C309C4602935CF8049B484675
:10BE40001DE0DCF80090B8F1140FA9EB00034846A0
:10BE50001EDC13F1080948BF03F117094FEA291343
:10BE600008EB291803F1FF39013102FA03F30CF151
:10BE7000040C0BFA09F28E4542EA030208D38E4500
:10BE8000DFD8C8F11503DCF800004FF01508E9E72A
:10BE9000B8F1150F67D14F49C2F38423C2F34410A0
:10BEA00001EB830301EB8000D3F8C836D0F8C80655
:10BEB0001B0243EA001302F01F00C2F3C43201EB7D
:10BEC000800001EB8202D0F8C816D2F8C8260B43D6
:10BED00043EA023383EA132282EA121202F00F02CB
:10BEE0000F2A40D1C3F30F134FF6FF7293423AD09B
:10BEF000B3F5606F47D0A381009918EE102A504621
:10BF00000BF04CF928460136FFF7A2FE97F8EC3B00
:10BF10000AF15C0A1434B34205F1A0053FF74EAFB5
:10BF200001210022DDF80CB087F83E10C7F8282365
:10BF3000002B3FF423AF03EB83030BEB43139BF87E
:10BF400010200BF1A00B5BF84C0C12F0020F5BF809
:10BF5000982C11680A6A14BF42EA800202435B45CA
:10BF60000A62ECD10AE757F8C43C013347F8C43CF5
:10BF7000C6B100230093BFE70024204605B0BDEC06
:10BF8000028BBDE8F08F0F4991F8B42102EB420219
:10BF900001EBC202324492F861210D2AABD1802319
:10BFA000A377A9E7029958220B483EF083FA00963E
:10BFB000A2E70122C7F8283387F83E20DFE600BF5A
:10BFC000C801002048170120C0120020ABAAAAAA6D
:10BFD000A421050808A90408A4120020830AA3F5D7
:10BFE0008013522B45D8F0B50446624885B003440F
:10BFF00093F828010D283AD85F4D860105EB801390
:10C00000D3F87478A74232D00139C3F8744889B2A2
:10C01000C3F88018D5F8F410B1FBF2F2013AC3F876
:10C02000782805F6740202EB80100022C3F88428F9
:10C03000C3F87C28C3F8882832F0EEFF4F4B9C42AF
:10C0400018D0B4F1804F15D0A3F57C439C4272D038
:10C0500003F580639C426ED0494A03F57C439C42C1
:10C0600018BF944246D003F570539C4242D005B0AD
:10C07000F0BD704700234FF48051AA19CDE9001399
:10C0800092F8B0180129CDE90233F0D00221D2F89C
:10C090007408012482F8B1183A49876839408160F0
:10C0A00082F8B14882F8B0380023AA19CDE90033EC
:10C0B000029392F8B038012BD9D0D2F8743802210B
:10C0C0002E4882F8B11883425A6899684ED000F51C
:10C0D000806083424AD022F0700221F08001354412
:10C0E00001205A609960002385F8B10885F8B038BE
:10C0F00005B0F0BD00214FF48053CDE90031AB19FC
:10C1000093F8B028012ACDE90211B0D0D3F8740811
:10C11000022283F8B1281B4A87683A4082601A4A93
:10C1200083F8B0180121944283F8B118BCD0144BA5
:10C130009C429CD1B8E700224FF48051AB19CDE965
:10C14000001293F8B0180129CDE902228FD0022104
:10C15000D3F87408012483F8B1180A498768394074
:10C16000816083F8B14883F8B0289DE722F470021B
:10C17000B1E700BF08A904084817012000000140EA
:10C18000000C00408800FEFF0004014003689B0A89
:10C19000A3F58013522B58D8F0B53D4C234493F8A7
:10C1A00028310D2B50D84479A608002952D003EB32
:10C1B0008300384D4FF0020CA40803EB40000CFA4A
:10C1C00004F4304405EB8316D6F8746805EB800C54
:10C1D000F768CCF8381C3C43CCF8482CF4609C0140
:10C1E000EFF3118C502282F312882C2203FB02F20F
:10C1F000A818D0F8341C49B30A1DC0F8581C2649A9
:10C200002C20264E03FB00F006EB000E14300144F8
:10C2100051F8040B18B1106051F8042C04328E450B
:10C22000F6D100215FFA8CFC11608CF311882C226E
:10C230002C4402FB0353D4F87428D3F8583C13B3AE
:10C24000D36843F00103D360F0BD70472432124934
:10C250000A44D5E703EB83000E4D344603EB400060
:10C26000304405EB8316D6F874780226A640FC68A5
:10C2700024EA0604FC6005EB8004C4F8381CC4F80A
:10C28000482C9C01ACE7D36823F00103D360F0BDD8
:10C2900008A90408481701207C230120A0230120BD
:10C2A00001490248FCF764BD7C23012000000140E5
:10C2B00010B5064C064804F63441FCF759FD04F568
:10C2C0005C610448BDE81040FCF752BD48170120EE
:10C2D000000001400044014002494FF08040FCF75B
:10C2E00047BD00BFA823012001490248FCF740BD1B
:10C2F000D42301200004004001490248FCF738BD66
:10C30000002401200008004001490248FCF730BD2C
:10C310002C240120000C00402DE9F843194E35690A
:10C32000F3681D4010D04FF00047DFF85C80B5FA8D
:10C3300085F227FA02F31F2A6FEA030305EA0305D1
:10C34000336103D0002DF2D1BDE8F883D8F8383D31
:10C35000A3B103F1FF3900231FFA89F9C8F8383D6A
:10C36000D8F8344D002CEDD0236820464946984734
:10C370006468002CF8D1002DD9D1E5E7F16A1FFAE5
:10C3800081F9EDE7001000404817012001490248FB
:10C39000FCF7EEBCB02401200004014010B5064CAF
:10C3A000064804F66851FCF7E3FC04F644610448CF
:10C3B000BDE81040FCF7DCBC481701200004014038
:10C3C000001C004001490248FCF7D2BCDC240120DB
:10C3D0000040014001490248FCF7CABC3425012055
:10C3E0000048014001490248FCF7C2BC6025012019
:10C3F000001800402DE9F04F4FF4257295B0002150
:10C400007F483EF0CBF87F4B7F4F4FF080415A6C16
:10C4100007F12004B94642F0010207F51E65A24665
:10C42000DFF8F0815A645A6C784E02F001020092F3
:10C43000009A1A6C42F001021A641A6C02F00102AE
:10C440000192019A1A6C42F002021A641A6C02F00C
:10C4500002020292029A1A6C42F004021A641A6CE6
:10C4600002F004020392039A1A6C42F008021A6462
:10C470001A6C02F008020492049A1A6C42F010023C
:10C480001A641A6C02F010020592059A1A6C42F0B6
:10C4900020021A641A6C02F020020692069A5A6C64
:10C4A00042F002025A645A6C02F002020792079AA2
:10C4B0005A6C42F480325A645A6C02F48032089208
:10C4C000089A5A6C42F400325A645A6C02F40032F0
:10C4D0000992099A5A6C42F480225A645A6C02F406
:10C4E00080220A920A9A1A6C42F040021A641A6C6C
:10C4F00002F040020B920B9A1A6C42F080021A640E
:10C500001A6C02F080020C920C9A1A6C42F480723F
:10C510001A641B6C03F480730D930D9B4246002339
:10C5200001E056F833208A420CD001330E2BF8D1AB
:10C530000AF1200A002037F0DDFD55450CD05AF8ED
:10C54000201CEBE7324A0AF1200A02EBC303187DF4
:10C5500037F0D0FD5545F2D107F51C67DFF8B8B0CC
:10C56000DFF8B8A009F120094F4526D099F8063028
:10C57000002BF7D099F804000BF050FE0646002877
:10C58000F0D0036809F1200919F8188C53440BEB1B
:10C59000932393F80C0137F0ADFDB2883068002387
:10C5A0000E9202220EA9CDF84C80CDE90F23CDE9E1
:10C5B00011333BF0E7F84F45D8D14FF08041154F8C
:10C5C000124E3A46002301E056F833208A420BD03F
:10C5D00001330E2BF8D12034002037F08BFDAC4214
:10C5E0000BD054F8201CECE7094A203402EBC303BB
:10C5F000187D37F07FFDAC42F3D115B0BDE8F08F68
:10C600007C2301200038024050B0040810BA04080E
:10C6100000BA04080000014008A904080000FEBF99
:10C6200030B5032083B0FDF76BFD01284BD0324CB1
:10C630000025324A0523C4F89850C4F89C50C4F829
:10C64000A020C4F89430BFF34F8FBFF36F8F4FF625
:10C65000FF01E2682A4B0A4013432A4AE360536F02
:10C6600032F040FA284B2949A3FB0023D4F8FC20E0
:10C670009B0C42F08072C4F8FC20C1F84431D1F820
:10C68000F4302349234AA1FB031323499B09C2F831
:10C69000B01F5560013B1168B3F1807F41F001018B
:10C6A000116008D24FF0E022F0215361072384F893
:10C6B0002310956113614FF0E022136943F00403E6
:10C6C000136103B030BD02210320FFF707F80D4BC3
:10C6D00012485A6C124942F480425A645B6C03F46B
:10C6E00080430193019A02680B68026083F3088813
:10C6F0004B689847FEE700BF00ED00E01B00000616
:10C700000005FA050038024083DE1B43481701206C
:10C71000D34D6210001000E055CEACC5003801408A
:10C720000000F01FD0F82011242200232DE9F04151
:10C73000C0F8942104460A68806804F5907522F0D8
:10C7400001020A600B604B608B6094F805C0C4F86E
:10C750009C314FEA8C22C4F8943184F8903102F471
:10C760008052C4F89831C4F83831C4F828214FEA0F
:10C770000C32C4F8403102F40052C4F83431237949
:10C78000C4F82C214FEA0C22C4F8240113F0010054
:10C7900002F48062C4F8302102D00422C4F83421AB
:10C7A00013F0020305D0D4F8342142F00802C4F893
:10C7B00034211CF0010F0DD048B1D4F8442142F0CF
:10C7C0000202C4F844214FF48032C4F84C21002BFB
:10C7D00040F0FF80A84B03F1200053F8042F94424F
:10C7E00000F0BD809842F8D11CF0080F40F0CD80D9
:10C7F000D4F89431002B00F0168124232846C4F885
:10C8000094310B6823F001030B6032F0F3FC012834
:10C8100015D0D4F84431002B40F01881D4F82031E1
:10C8200028465A6822F490425A609A6822F02A02F6
:10C830009A601A6842F001021A603BF08FF923797E
:10C84000DA0761D5D4F8FC20002A00F0D980002353
:10C85000D4F8041104F13C06E263A3644FF480624F
:10C860003046E264C4E91013C4E91433C4E9183350
:10C87000C4E91A334FF48033E3654FF48073A36542
:10C880003BF0E6F9304631F0A7FDD4F89881C4F8C2
:10C890008C61B8F1200F656731D1E368626999B2A4
:10C8A0006AB3B1FA81F77F0949B394F8900101287E
:10C8B00025D030460126C4F89C710B4684F890615F
:10C8C0002226A4F87811C4F898616C4ED4F820118F
:10C8D000A6676B4E2431C4F87421E667694EC4F82C
:10C8E0008C70C4F8886031F015FE002800F0B2802A
:10C8F000102384F89071C4F89C31C4F89481E26BE1
:10C9000023795268C4F814219B0777D5D4F8002105
:10C91000002A69D00023D4F8081104F19C06C4F859
:10C920009C20C4F8A8304022C4F8B8303046C4E98E
:10C930002C33C4E93033C4E932334FF48033C4F8C4
:10C94000BC304FF48063C4E92812C4F8AC303BF02B
:10C950007FF9304631F040FD002867D0FEE7002C1B
:10C960003FF442AF94F8BC31002B3FF43DAFD4F814
:10C9700044311CF0080F43F00803C4F844314FF46D
:10C980000043C4F854313FF433AFD4F89431002B52
:10C9900055D024232846C4F894310B6823F00103B2
:10C9A0000B6032F027FC01283FF449AFD4F8443142
:10C9B000002B47D1D4F8203128465A6822F49042FF
:10C9C0005A609A6822F022029A609A6842F008023D
:10C9D0002EE7D4F8443143F00103C4F844314FF456
:10C9E0000033C4F84831F5E6D4F8A0311A6842F0B3
:10C9F00080021A601A6842F040021A60BDE8F081B5
:10CA0000D4F8A021116841F480711160916841F05F
:10CA100001019160116841F020011160116841F03D
:10CA20001001116070E784F89031E6E6D4F89C308C
:10CA3000C4F88861C4F8D4505860BDE8F08184F827
:10CA40009031A6E7284634F029FCB3E7284634F0B5
:10CA500025FCE3E6D4F8203184F890011A6842F40A
:10CA600080721A609A6842F001029A609A6842F0F5
:10CA700040029A6043E700BFB41E002075F6030829
:10CA8000A5F60308A9F60308F8B5EFF311855023BE
:10CA900083F31288D0F800311B6813F0010303D030
:10CAA000EDB285F31188F8BDD0F894210446D0F892
:10CAB00098110A4302F02102212AF1D0D0E909019C
:10CAC000884253D043D822691846531A9BB2D4F8EF
:10CAD00094710022A062202F84F8A421E0D1A269E1
:10CAE0005118DDD0B3FA83F67609002BD8D094F82C
:10CAF0009021012AD4D00122D4F88801A4F87231FF
:10CB000084F890212122C4F89C61C4F86C11A4F827
:10CB10007031C4F89421E8B1DFF858C0D4F820216E
:10CB2000C0F83CC0DFF850C028320665C0F840C0ED
:10CB3000DFF848C0C0F84CC031F0ECFC50B1102315
:10CB400084F89061C4F89C31C4F89471A8E7431A42
:10CB50009BB2BCE7D4F8203100224021196284F84E
:10CB600090219A6842F080029A6099E7012384F844
:10CB7000A43195E74DF6030871F60308A9F60308FA
:10CB80002DE9F041D0F8204186B00546E3699A06C8
:10CB900015D5606AEB6AC0B2002B00F08980296B62
:10CBA0009847D5F82041236823F480732360A36855
:10CBB00023F00103A360A36943F00803A361E369C1
:10CBC000DB0701D501232362E3699F0701D5022317
:10CBD0002362E3695E0701D504232362E369180732
:10CBE00001D508232362E369590614D54023236243
:10CBF00095F8BD61002E33D0D5F80031DBB1284661
:10CC0000FFF742FF95F8A4311BB195F8BD61002EE6
:10CC10005FD0D5F82041D5F8003173B1E369DB0668
:10CC200006D56B6B13B19847D5F8204110232362CA
:10CC300006B0BDE8F081D5F82041E3691A06EDD5CC
:10CC4000D5E9092393423FD0AA69D25C0133D2B21D
:10CC5000A2622A69B3FBF2F102FB1133AB62DDE79A
:10CC600095F8B20101270BF0D9FA236823F00803E5
:10CC70002360044685F8BD710028BDD00168284AAC
:10CC8000284B0A4403EB922393F80C0137F032FA55
:10CC9000A38820686946CDE90036CDE90266CDE972
:10CCA00004763AF06FFDD5F80031002BA7D1C2E72A
:10CCB000EB696A69D054EB69EA680133B3FBF2F1BE
:10CCC00002FB1133EB616CE7236823F080032360E0
:10CCD000A4E795F8B2014FF001080BF09FFAD5F8E0
:10CCE00020410746236823F00803236085F8BD81AF
:10CCF000002890D001680A4A0A4B0A4403EB9223A9
:10CD000093F80C0137F0F6F9BB8838686946CDE92D
:10CD10000036CDE90266CDE904863AF033FD78E7C6
:10CD20000000FEBF08A904082DE9F04FB04C89B0FF
:10CD300004EB8004D4F8F84B002C6FD0D4F8AC513D
:10CD40001F46DFF8C8B290466B680646A94AC4F889
:10CD5000A0316B6BDFF8B89263612B6BA160A361AC
:10CD60006B8FE3602B8FC4F8A82123610BF1800344
:10CD700023602A7809EB420393F9C80E530001930C
:10CD8000C3B2012B40F2B780D4F8003183B19A4985
:10CD900000209C464B68013024319C4500F03A81CC
:10CDA0001028F7D1954B93F87C10002900F084816E
:10CDB000D4F8FC00002840F0F3806B68C4F8203100
:10CDC00095F82800002840F0038194F8B2014FF054
:10CDD000020A0BF023FA17F00803814694F8B0B169
:10CDE00084F8BDA11ED0002844D017F0510F4FF099
:10CDF0000B0306F1010614BF0A211A2117F0410F97
:10CE00008371C67114BF4023202394F8B3211943C2
:10CE10000BF02AFAD4F8FC30002B55D0204609B08C
:10CE2000BDE8F08F18F0020F24D018B30B2239069A
:10CE3000827106F10102C27100F1458102687049F8
:10CE400094F8B37111446F4A019302EB912292F866
:10CE50000C0137F04FF9B9F80420019B02A9D9F869
:10CE60000000CDF80CA0079702920693CDE9043399
:10CE70003AF088FC58460BF0D1F907460028C9D093
:10CE800018F0010FC6D001680C235D4A013683718A
:10CE90000A445C4BC67103EB922394F8B16193F89A
:10CEA0000C0137F027F9BB8838680222029300236F
:10CEB00002A90796CDE90323CDE905333AF062FCD8
:10CEC000D4F8FC30002BA9D195F82C1095F92A0044
:10CED000890938F053FC95F92A3095F82A20002B5F
:10CEE0009CDB02F01F0201215B09474801FA02F2B4
:10CEF00040F8232092E708234FF00C0A0BF1B00C06
:10CF00001AFB003A0023E64619460131172962D080
:10CF10001EF81C3F042BF8D19EF801309342F4D147
:10CF20005EF80A30002BF0D08E460199C4F800312B
:10CF30008944CEEBCE0199F9C9EE890000EB400996
:10CF4000BEF1FF3F01EB89015944D1F8BC10C4F890
:10CF500008113FF41CAF0021013117293FF416AF2F
:10CF60001CF81CEFBEF1050FF6D19CF801E09645C8
:10CF7000F2D15CF80AE0BEF1000FEDD0C1EBC101C7
:10CF8000C4F8FCE000EB4000890001EB8000834422
:10CF9000DBF8BC10C4F80411002B7FF4F8AE704627
:10CFA000154A0023516801332432814261D0102B8D
:10CFB000F8D1124B93F87C20002A7FF4FEAE2A7839
:10CFC000013283F87D200C2283F87C206B68F5E623
:10CFD00037F090F8F9E6019B9944D4F8003199F9BB
:10CFE000C91E0131B7D1002B7FF4D1AEE0E600BFFE
:10CFF000C0120020E99300088400012000000120F5
:10D000000000FEBF08A9040800E100E000BA04081F
:10D01000481701205FFA80F92E4B013209F1FF31E8
:10D02000D2B201EBC10103EB810393F8A0100029F8
:10D030007FF4BEAE83F8A1202748D3F88420824233
:10D040000CBF952096200B2283F8A02037F052F8D1
:10D050002346484695F82B202049FDF71BFC6B68BA
:10D06000D4F8FC002833C4F8183100283FF4A5AEEA
:10D0700096E7DBB2174A013B03EBC30302EB8303E2
