:020000040800F2
:100000000000012019770408B5770408DDC1010854
:1000100035C00108B5770408B57704080000000072
:10002000000000000000000000000000B577040898
:10003000B577040800000000B577040825820108A0
:10004000B5770408B5770408B5770408B5770408D0
:10005000B5770408B5770408517D0108597D01087A
:10006000617D0108697D0108717D0108ADA5000869
:10007000C1A50008D5A50008E9A50008FDA5000850
:1000800011A6000825A60008B5770408B57704086E
:10009000B5770408B5770408B5770408797D0108B9
:1000A00045C2000831C1000855C2000821C100083E
:1000B00059C1000869C1000879C1000881A1000880
:1000C00075A10008B5A10008A9A10008B57704082A
:1000D000B5770408718101087D81010889810108D3
:1000E000817D0108B5770408B577040865C200086A
:1000F0001DC20008B57704080DC2000839A6000823
:10010000B5770408B577040889C10008B5770408F5
:1001100095810108A181010899C10008850704089B
:100120004DA6000861A6000875A6000889A600086B
:100130009DA6000800000000000000000000000074
:1001400000000000000000000000000009FD03089E
:10015000B1A60008C5A60008D9A60008AD8101080F
:10016000E9A10008DDA10008B5770408B577040807
:10017000B5770408B577040800000000000000000F
:10018000B5770408B5770408B5770408B57704088F
:10019000B5770408B577040800000000B5770408B7
:1001A000000000000000000000000000B577040817
:1001B000B5770408B57704080000000000000000CF
:1001C000000000000000000000000000000000002F
:1001D000000000000000000000000000B5770408E7
:0801E00064720400010000003C
:1001E800FA01010004000000E8340120683401200D
:1001F8000000000019E10008643401200530010006
:10020800080000008C2F012070340120000000003D
:1002180054C405086C3401201302010004000000D6
:10022800DC2C01207C340120000000005CC405089F
:10023800783401200A90010024000000141C0120D9
:10024800843401200000000075A0020880340120D9
:100258001F0208001000000030260120AC340120E5
:1002680000000000F9E10008A83401200620010080
:1002780026000000D41D0120C03401200000000029
:1002880031E10008BC3401201500100070000000A6
:10029800B4650120486C0120000000000000000047
:1002A800446C01202A000800600000005465012009
:1002B800BC6C012000000000299F0208B86C0120D6
:1002C80021020100F000000064640120206D01207B
:1002D80000000000694703081C6D01202C00040081
:1002E8001000000054640120146E0120000000007A
:1002F800799F0208106E012025201E002C010000A5
:10030800A8620120286E0120000000000000000003
:10031800246E01202B00120024000000F06101204F
:10032800586F012000000000959F0208546F0120BB
:10033800012001000C000000945A0120806F012068
:100348000000000060C405087C6F01201620010031
:1003580006000000AC5A0120906F01200000000048
:100368006CC405088C6F0120270001000400000000
:10037800A05A01209C6F01200000000072C40508EB
:10038800986F01200C5004008000000040540120A8
:10039800A46F012000000000E1460208A06F0120C0
:1003A800031101000A0000004059012028700120B3
:1003B80000000000297D0308247001202920140072
:1003C8007800000028580120387001200000000043
:1003D80000000000347001202320010010000000FC
:1003E80018580120B47001200000000061A0020824
:1003F800B07001200B3001001A000000E057012006
:10040800C87001200000000076C40508C4700120EF
:100418000E50040058020000C0540120E87001206A
:1004280000000000E59C0208E47001200D100100A6
:10043800700000006857012044730120000000008C
:1004480051CE010840730120220201001C01000066
:100458004C590120B873012000000000EDF300089A
:10046800B4730120160215003F0000001875012022
:10047800D87401200000000041E20008D474012073
:100488001840010038000000305701205C75012039
:100498000000000025E70008587501201B02010034
:1004A80010000000A87501209875012000000000C8
:1004B800E5E100089475012028020400040000000A
:1004C800C0750120BC75012000000000D9E10008BA
:1004D800B87501202702040004000000CC75012033
:1004E800C875012000000000CDE10008C475012096
:1004F8001A0201003C00000064660120D475012046
:1005080000000000C5E60008D075012004000800BE
:1005180080000000D4630120147601200000000050
:1005280000000000107601201C0202001C000000E0
:10053800FC57012098760120000000006DE60008B5
:100548009476012026300100080000003C68012054
:10055800B876012000000000D97A0308B47601209B
:10056800081204001400000028680120C476012045
:1005780000000000A5E00008C07601200312010079
:100588003D00000024660120DC7601200000000008
:1005980090C40508D8760120010201000A00000075
:1005A800A06B0120207701200000000009E100086D
:1005B8001C7701200C02010004000000446801209F
:1005C800307701200000000021E100082C7701208D
:1005D800FD1701009A000000AA6B0120387701205E
:1005E800000000004528030834770120131001009B
:1005F80004000000D8570120D8770120000000002F
:10060800D0C40508D47701200202010003000000CD
:100618009C6B0120E0770120000000000000000032
:10062800DC770120F5C1010074000000CC580120DE
:10063800E877012000000000094E0308E477012054
:10064800F62101000C000000C0580120607801204C
:1006580000000000D4C405085C78012012120100D3
:100668000400000068790120707801200000000073
:10067800E0C405086C7801201102010008000000A0
:100688006C7901207878012000000000E4C4050896
:1006980074780120340001001000000074790120F2
:1006A80084780120000000000D9F02088078012056
:1006B800F831010006000000185701209878012041
:1006C80000000000ECC40508947801200200010035
:1006D8000C00000094680120A478012000000000AC
:1006E80000000000A0780120FE01010014000000B5
:1006F800A4580120B4780120000000008DE0000813
:10070800B078012006120400180000007C6801205F
:10071800CC78012000000000F9E50008C878012025
:10072800F701010006000000B8580120E878012010
:1007380000000000F2C40508E47801201A00010056
:100748000E00000010680120F4780120000000006D
:10075800F8C40508F0780120140001000500000025
:1007680028570120087901200000000006C5050867
:1007780004790120FD01010024000000EA6701203E
:100788001479012000000000BF5D010810790120E4
:100798001D02020006000000E46701203C790120E8
:1007A800000000000000000038790120F901010074
:1007B800040000008479012048790120000000002D
:1007C800795D010844790120123001001000000011
:1007D8008853012050790120000000000CC505084D
:1007E8004C7901203840010006000000987A012069
:1007F80040800120000000001CC505083C80012045
:100808001B2001000C000000B07F01204C8001205B
:100818000000000069220308488001201010010030
:1008280002000000DC7D01205C8001200000000047
:1008380022C50508588001200E02010002000000B0
:10084800E47F0120648001200000000024C5050821
:10085800608001202F200100220000006C80012010
:10086800E87F01200000000026C5050868800120F7
:10087800010101000400000050820120508801207D
:1008880000000000000000004C8801200001010069
:10089800040000004C82012058880120000000005C
:1008A80048C5050854880120020101000300000022
:1008B800488201206088012000000000D14602081B
:1008C8005C8801202902010040000000888701207F
:1008D80068880120000000004CC5050864880120D4
:1008E800205201000800000054810120AC8801203A
:1008F800000000008CC50508A88801202A12010004
:10090800080000004C810120B88801200000000088
:1009180094C50508B48801201900010005000000ED
:1009280044810120C4880120000000009CC50508FE
:10093800C08801201F5001002400000064870120A6
:10094800D088012000000000A4C50508CC8801203B
:100958002332010014000000488E0120AC910120D0
:1009680000000000C8C50508A89101200300010087
:1009780001000000148F0120C49101200000000034
:1009880000000000C09101200502010004000000E1
:10099800048F0120CC91012000000000DCC505086F
:1009A800C89101202C02010004000000A49101203C
:1009B800F491012000000000E0C50508F091012035
:1009C8002D0201000100000014890120FC91012082
:1009D8000000000000000000F89101200012010052
:1009E8000A0000002C9C0120609F012000000000EC
:1009F800000000005C9F01201002010001000000BF
:100A080020BC01201CBC012000000000E4C5050832
:040A180018BC0120E5
:08280000082800080040000850
:10800000084A0346D0F8E4005268D3F8F010121A78
:1080100000209142B8BFC3F8F020012283F81C2150
:10802000704700BF001000E030B5FAB18E464FEA4D
:10803000014C034600F1C005002419680C3353F8C5
:10804000042C43F8084C41EA0C0142EA0E02AB4210
:1080500043F80C1C43F8042CEFD1D0F8C03043EAAD
:108060000E03C0E93144C0F8C03030BD4FEA014EC4
:108070008C46DEE783695969B3F810C00A6830B4EA
:108080009C6822F0010224680A60E26822EA0C027D
:10809000E260027D04681F2A06D9203A082065683C
:1080A0009040284242D0FEE70820256890402842B0
:1080B000F9D1202000FA02F2A260254A1278002AA3
:1080C00032D01A7F012A36D0D3F800210132C3F80A
:1080D0000021EFF31181502282F312885868C9B24F
:1080E0009D6C0268DC6C22EA05022243026081F387
:1080F00011885A699968D3E90D4009681460506184
:10810000D3E90F40546090605C6CB3F8B400D46065
:108110000124C8621068204310601A8A1C7783F813
:10812000FD40CB681343CB6030BC7047202000FA81
:1081300002F2E260C1E70022D3F8040183F8FD20D7
:1081400001300A68C3F8040122F001020A60EBE77B
:10815000C801002010B40C4C6368002B11DD002016
:1081600004F1080C0146DCF8AC3003F1C0025960A0
:108170000C339342FBD1013063680CF5867C83425B
:10818000F1DC5DF8044B7047C801002070B5104E5B
:10819000D6F83834002B18DD06F23C44002504E004
:1081A000D6F838342034AB420FDD237F0135002B65
:1081B000F6D0E06800220028F2D0217D20340FF0B4
:1081C00031FED6F83834AB42EFDC012070BD00BF81
:1081D000C8010020704700BF024B03EB401090F82D
:1081E00059047047C80100204368426D30B49A6159
:1081F000EFF31182502383F312884168D2B2856C69
:108200000B68046D23EA050323430B6082F3118896
:10821000436981681A68096822F00102D0E90854AC
:108220001A60826A1D605C615A60D0E90B429C60F2
:10823000DA600023B0F86C2030BCCA620377704764
:108240004FF40063838170474FF40063838170476C
:10825000704701207047012070472DE9F047DFF893
:1082600080810E460746D8F80050B8F80420B8F8C8
:108270000A90C2EB25135200C2EBE502B8F9065092
:108280006A4303FB03F5B8F908302D135D43B8F9D1
:108290000E30AD134FEAE37E05EBE225A5F5FA318A
:1082A000C8F81C5081FB010C03FB0CF200FB0E22F2
:1082B000A3FB003E9644B8F90C201B0A82FB014246
:1082C00043EA0E63120342EA145224031B194FF0CF
:1082D000000442EB2E22A3FB093E02F5004209FBFB
:1082E00002EE4FEAEE734FEA6E0253EA6E0E6BD067
:1082F000B8F914904FEAE97E09FB0CFC00FB0ECCA8
:10830000A9FB00908444B8F9120080FB01E1480405
:108310004FEA4E4140EADE3011EB0909D8F820104F
:108320004CEB0000C1F5801C14EB0904B8F91010E7
:108330000CF0004A40F6354900EBC1014AEA5C0AFC
:108340004FEACC7CBCEB04006AEB010AA0FB0901FC
:1083500009FB0A113EF0FAFFB8F91A404FEA613EF4
:108360008146430B04FB0EF24FEAE47C43EAC1432F
:1083700003FB0C2CA4FB0342624404FB0EFE03FB34
:1083800002EEB8F91820A4FB03439E44640E02FBDE
:1083900001F344EACE1414EB000C4FEAE274A2FBA2
:1083A000092941EB6E6E04FB0031D40CB8F916308C
:1083B000494444EA41341CEB04044EEBE141240AF5
:1083C00044EA016404EB03140FB1240A3C6026B1B3
:1083D00005EB850580352D123560BDE8F08700BFBF
:1083E0001817012008B500683BF072FFD8B90F4A92
:1083F0000F4992F83D3592F83C051B0143EA0033E2
:1084000092F83E0543EA101392F83F050B6292F88A
:10841000403592F841251B0143EA0033012043EA2D
:1084200012130B6008BD0020FCE700BFC80100204C
:10843000181701203B4BDFED3C3A93F8251093F8D9
:108440002400090293F8262093F827C001EB00418D
:1084500093F8280093ED0D6A0A4409024FEA0020C0
:1084600093F8291048BF02F17F42B8EEC66A00EBCC
:108470000C4007EE902AB3F940200144000205EEBB
:10848000902AB3F93C20F8EEE77A48BF01F17F412A
:1084900004EE902AB3F93E20F8EEE55A07EE101AE2
:1084A00067EEA37A06EE902AF8EEE44AB3F93A2092
:1084B000F8EEE66A012005EE102AB3F93820E7EE5F
:1084C000A54AB8EEC55A04EE102AB8EEC77AB3F939
:1084D0002E20B8EEC44AA7EEA65AD3ED0C6A27EEBA
:1084E000237A05EE902AA4EEA76AB3F92C20F8EEC1
:1084F000E66AF8EEE55A04EE902AF6EE003AE7EE68
:10850000046AF8EEE44AA5EE076A65EE875AB0EE13
:10851000667AE4EEA35AA7EE867AC3ED125A83ED8B
:10852000117A7047181701200821843630B10A4BA0
:10853000D3ED117AFDEEE77AC0ED007A51B1064B2A
:108540009FED067AD3ED127A67EE877AFDEEE77A31
:10855000C1ED007A704700BF181701200000C84223
:10856000704700BF0120704701207047704700BF6F
:108570000020024B83F84C00704700BF1817012001
:108580000346012200205A77704700BF08B5D0E9A2
:108590000B2183690B4483610AB108469047002090
:1085A00008BD00BF436A02461B681B6A5B685B78B4
:1085B00013F0010008BF5077704700BFC2628161AD
:1085C000704700BF704700BF043070470B4B93F8F3
:1085D0005420196D02440844D2B2186583F854201F
:1085E00093F85420120605D593F8542082F08002A7
:1085F00083F85420024B01221A707047181701208B
:10860000000001202DE9F84F144FBD6DED0A1FD079
:108610000026DFF84CA007F15C09B046AC19F96DF3
:10862000102352466410D1F828B04846C7F8888015
:10863000E102D8470F280BDD094B03F1100253F874
:10864000041B013107D19342F9D12546B542E5DC3F
:10865000E802BDE8F88F661CF8E700BF1817012094
:1086600000000020194BD3F89010D3F894208A1AF8
:10867000322A15D8D3F8A8208A4200D37047D3F8FD
:108680009C20F2B110683231928810B44469C3F86A
:10869000A81022425DF8044B18BF12048261704793
:1086A00093F89820D3F89C1002F0010219B10868E1
:1086B000898822B981610022C3F8A8207047090483
:1086C000F8E73231C3F8A810704700BF181701202F
:1086D000074A92F89830D2F89C2003F001031AB1AF
:1086E0001168928813B98A61002070471204FAE772
:1086F00018170120044B4FF4007C0020D3F8B83049
:10870000A2F800C00B6070471817012000207047C6
:10871000012070470120704700207047134BD0F8AC
:10872000D8105B68D0F8E02010B50446581A824291
:1087300000DC22B9D4F8E4200A44C4F8DC2094F820
:10874000D020C4F8D830012A05D0D4F8D430013371
:10875000C4F8D43010BD04F1E801201D0EF080FEF5
:10876000D4F8D4300133C4F8D43010BD001000E088
:10877000CB070AD490F82830012B08D0C368B3F196
:10878000807F03D901230377704770477047204AE1
:10879000D2E93A1310B5B1EB930F8CB04FEA9302C4
:1087A000446A4FF0020306D252085B0091429BB22A
:1087B00001D2FF2BF8D9C268A380B2F1807F24D9FF
:1087C0000122002301A94FF0B70C02772046049242
:1087D0008DF814208DF828200B938DF804C0CDE976
:1087E000021302A9CDE90633CDE908330EF038FEB5
:1087F0002268536A002B18BF9C4214BF0123002338
:10880000002BFDD1136A002BFCD10CB010BD00BFB2
:108810001817012030B590F828208BB000230446AB
:10882000012A08D0427F62B103F0010383F0010006
:1088300063770BB030BD456A29680A7B4ABB637F0A
:1088400013B901200BB030BD1949022000230122C9
:108850000290081F8DF80C208DF820200993CDE997
:10886000001069462846CDE90433CDE906330EF001
:10887000F7FD2A68536A002B18BF9D4214BF0123DD
:108880000023002BFDD1136A002BFCD1094B5B7C2C
:10889000CAE7486A984218BF854214BF01200020E9
:1088A00003D10B6A002BCAD0C3E71846C1E700BF4B
:1088B000140000200000002030B590F828108BB084
:1088C0000446427F01293CD0002A42D101200BB04E
:1088D00030BD596A8D4201D0002933D11B6A002B6B
:1088E00030D1002AF2D01C4902200023012202903C
:1088F000081F8DF80C208DF820200993CDE9001079
:1089000069462846CDE90433CDE906330EF0A8FDCB
:108910002A68536A9D4218BF002B14BF012300230D
:10892000002BFDD1136A002BFCD10C4B5B7C03F0B8
:1089300001031A466377002BC8D094F82810012948
:10894000F7D1656A2B68197B0029C2D1002ABDD0F6
:10895000C9E70023EBE700BF14000020000000205F
:108960002C4A012330B5044695B0101D8DF80C300B
:1089700007938DF820308DF834308DF8483002F1AF
:108980000803656A0593CDE900200220083A0290A9
:1089900021480A9200220490207F069290420B9276
:1089A000139214BF05230423CDE90E22CDE9102232
:1089B0002A680C93536A002B18BF9D42174D14BFB1
:1089C000012300230995002BFDD1136A002BFCD154
:1089D000E8B113480A0E00F11A0342760A0A9970A8
:1089E000080C69465A701870606A0EF039FD616AA9
:1089F0000A68536A994218BF002B14BF0123002351
:108A0000002BFDD1136A002BFCD115B030BD054BF6
:108A1000E4E700BF20000020A5850008818500084C
:108A2000000000201900002010B594B00446502228
:108A30000B49684640F0D0F86946606A0EF010FDB8
:108A4000616A0A68536A002B18BF994214BF012358
:108A50000023002BFDD1136A002BFCD114B010BDF4
:108A600028900408F8B50646406A05686C6A002C30
:108A700018BFA04214BF01240024002CFDD12C6A91
:108A8000002CFCD1307F002839D0B06905272A4D51
:108A90004FEA106C294C2E3505F801CC6763A8709D
:108AA0004FEA104C000A012B85F800C068704FF0A7
:108AB00000000D6825641568A5643563A06524D0A1
:108AC000022B1BD15368012220651D444968E365D0
:108AD0001B4B84F84C006165356384F86020636645
:108AE000184B717F03F11402706A002914BF1946F4
:108AF00011460EF0B5FCF36A73B1306BF8BD04207B
:108B00000E4C114D6063B069C9E70D4A84F84C30D2
:108B10006065E0652265E3E7716A0A68536A002BC5
:108B200018BF994214BF01230023002BFDD1136A03
:108B3000002BFCD1E1E700BF000000200000012075
:108B40008D850008040001202D00002000B583B0B1
:108B50008161019201A9049A00930123C2626A46CD
:108B6000FFF780FF03B05DF804FB00BFF0B51D46C2
:108B7000436A95B007461E68746A002C18BFA3426A
:108B800014BF01240024002CFDD1336A002BFCD13A
:108B90003E4B02203E4E029003F13C00049603F14E
:108BA0003406009003F140000596019001203E7FBD
:108BB00006948DF80C00002E55D00B920A0E363319
:108BC0008DF8204003F8012C05220C958DF8340017
:108BD0008DF8480013940792CDE90944CDE90E447D
:108BE000CDE910440A0C99702A4C090A1A70597080
:108BF000786AD4E93A32B3EB920F4FEA92014FF020
:108C0000020206D2490852008B4292B201D2FF2AD8
:108C1000F8D97B7F828023BB05A90EF021FC786AFE
:108C200001684A6A824218BF002A14BF012200224A
:108C3000002AFDD10B6A002BFCD1D4E93B23B3EB16
:108C4000920F4FEA92014FF0020206D249085200F9
:108C50008B4292B201D2FF2AF8D98280284615B001
:108C6000F0BD6946D9E70B92042235338DF82040D8
:108C70000C958DF834008DF8480013940792CDE9D7
:108C80000944CDE90E44CDE91044ABE700000020D3
:108C9000A5850008181701200269C3682DE9F0476F
:108CA00012EA03092AD005460E464FF000474FF05E
:108CB0000008B9FA89F327FA03F21B3BD24309EA09
:108CC00002092A61042B16D8DFE803F0352C231A99
:108CD0000300B36A002B37D003F1FF3AC6F82880AF
:108CE0001FFA8AFA746A34B12368204651469847BD
:108CF0006468002CF8D1B9F1000FDAD1BDE8F08733
:108D00007068696B036889B29847B9F1000FD0D1D8
:108D1000F4E7B068A96B036889B29847B9F1000F0E
:108D2000C7D1EBE7F068E96B036889B29847B9F1FE
:108D3000000FBED1E2E73069296C036889B2984719
:108D4000B9F1000FB5D1D9E7E96A1FFA81FAC9E78D
:108D5000F0B5044690F8210187B008B907B0F0BD1E
:108D60000FF03AF80546002853D0818826222A4B76
:108D7000C280E360B1FA81F3202BC3F11F02EDD072
:108D800026480C34264E104406EB820290F85070B0
:108D9000C2F8F4404FF0004232FA03F305D0214A02
:108DA000106820EA03001060536100233E440191E3
:108DB00001A905932868CDE903331B4B029334F0D6
:108DC0007DF996F83431F02B0DD8AB884FF0004286
:108DD000B3FA83F332FA03F3C0D012490A6813439B
:108DE0000B6007B0F0BD114BF0220321DC5786F871
:108DF00034212046DE5D3BF0ABF8002CE5DB06F0CD
:108E00001F06012364090A4A03FA06F642F82460A1
:108E1000DBE7014BE360A1E71D8700082890040809
:108E200018170120003C01400000111098070508A8
:108E300000E100E08269F0B592F8DC308BB00546C5
:108E4000012B32D0023B012B3AD892F84C31EC4640
:108E5000D2F89C2063F07F031B4C13708669D6F810
:108E6000A0305F1C0FCCACE80F00D6F89C30CDE9E9
:108E700000370FCCACE80F0094E803008CE8030047
:108E8000694606F110000EF0EBFAAA69104650F898
:108E9000101F4B6A834218BF002B14BF012300230D
:108EA000002BFDD10B6A002BFCD1D2F8A0305A88E0
:108EB00052BAEA819A8852BA2A82DB885BBA6B82FC
:108EC00001200BB0F0BD00BF88900408F0B590F809
:108ED000DC308BB00446D0F8A050012B56D015D80A
:108EE000D0F89C304FF0FF3205211A605A609A602A
:108EF000DA60D0F8E030C0F8F010B3F57A7F5FD8D0
:108F0000032380F8DC3001200BB0F0BD023B012BC5
:108F1000F9D890F84D3100F1100ED0F89C20EC46B5
:108F200063F07F033D4E1370D0F8A0305F1C0FCE6E
:108F3000ACE80F00D4F89C30CDE900370FCEACE898
:108F40000F0096E8030076468CE8030069467046F9
:108F50000EF086FA2269536A9E4218BF002B14BF96
:108F600001230023002BFDD1136A002BFCD16B8859
:108F700001205BBAA4F8D030AB885BBAA4F8D23039
:108F8000EB885BBAA4F8D4300BB0F0BD90F84C215C
:108F900090F84D319B1A5B100133DBB235F813208A
:108FA00005EB430553BAA0F8D0306B885BBAA0F844
:108FB000D230AB885BBAA0F8D43001200BB0F0BD42
:108FC00003691A7B2AB35B691BB390F8983003B32B
:108FD00090F84C310122D0F89C0063F07F03C4F874
:108FE000A4400F49037094F84D3194F84C0184F873
:108FF00000211B1A84F8DC20D4F8A0200733C4F821
:1090000004110132D4F89C10C4E93E23C4F8F410D2
:1090100079E7022384F8DC3075E700BF8890040804
:1090200001800008836910B5074C04EB8303D3F873
:109030005C0133F053FF0021B4F87C013BF03CF8B5
:10904000002384F87E3110BD1817012080699C3000
:1090500033F044BF2DE9F8430FF042FA2F4E4FF0A2
:10906000000C0746DFF8BC802D4C716800294ADDF2
:1090700000234FF486701D4600FB0362013392F813
:109080000521994245EA0205F6D145EA0C0C5FFA42
:109090008CF9D8F80430C3F308038BBBEFF31183CA
:1090A00073BB4FF0E02CD4F89030DCF81810D4F8F3
:1090B00090209342F7D1D4F880219142F3D8D4F88C
:1090C00084C14FF47A7202FB0CF0401AB0FBFCF042
:1090D00002FB0300C31BB3F5FA6FCCBF4FF0000CCB
:1090E00005F0010CBCF1000FBFD1B9F1000F04D0A5
:1090F0000B4B93F888214F2A08D04846BDE8F883E7
:109100000FF0B6F8E6E7E1460025C2E7B3F8902194
:1091100048460132A3F89021BDE8F883C801002039
:109120001817012000ED00E02DE9F041304F07EB6A
:10913000401898F858340BB9BDE8F08100EB800373
:109140000E460021044607EB4313450193F84625DC
:1091500083F8461588F83E243FF04EFFB8BB3D44E7
:109160002448A5F83C6400EB44103FF011FF3B7825
:10917000D5F85424A3B1D5F840140124D2F8AC306A
:109180008C4003F1C001420010F4004F90B202D1B4
:109190005A6822435A600C339942F4D1BDE8F081F9
:1091A000D5F840140124D2F8AC3001F1100203F1DB
:1091B000C0019440420010F4004F90B202D15A68AE
:1091C00022435A600C339942F4D1BDE8F0810A4B36
:1091D00093F8F42102EB420203EBC203234493F819
:1091E000A161002EBBD0012388F83E34B7E700BF51
:1091F000C8010020040600201817012010B50446FD
:109200003FF072F80146204689B2BDE810408BE776
:109210002DE9F0413FF0C8FE80B31B4F7D68002D63
:1092200012DD3846002410F8086BA046013416B150
:10923000037F012B1DD04269AC4200F58670136894
:1092400043F001031360F1D10FF04AF9D7F8444A13
:10925000002C0CDD0D4B03EBC4041968083333F804
:10926000042CC8689C4242EA0002CA60F5D1BDE8FD
:10927000F08180F8FC80FEF7B7FFDCE738F0FCFFF8
:109280000028CAD1BDE8F081C8010020100C0020E0
:109290002DE9F84F384F3B7813B90120BDE8F88F1E
:1092A000364D07F23C4ADFF8DC80002405F1C806A1
:1092B0004FF6FF79D8F890B015E0B0F5606F4CD05C
:1092C000A881B0EB09012E4B4FF05C005A4618BF45
:1092D000012100FB04300DF091FE01340AF1200A57
:1092E0001435082C33D0D7F83834A3422FDDDAF800
:1092F0001830DAF80420D3E93D013FF075FE4FF64F
:10930000FE73984298F8883114D04F2B04D1B8F8E6
:109310008C310133A8F88C3156F8C03C484503F134
:10932000010346F8C03CC8D156F8C43C013346F8A6
:10933000C43CC6E74F2BD0D1B8F88E3101340AF1C6
:10934000200A14350133082CA8F88E31CBD1012323
:10935000012086F83E30BDE8F88F98F8F43103EB31
:10936000430308EBC303234493F8A1310D2BA7D18A
:109370008023AB77A5E700BFC8010020F8110020CB
:1093800000130020181701202DE9F04790F8B231A2
:1093900086B01C09013C052C0FD8264E054603F06B
:1093A0000F0306EB4402B2F8080140FA03F2D207B9
:1093B00003D595F8BD71012F03D0012006B0BDE89B
:1093C000F08707FA03F33444DFF87080013B18405C
:1093D0003EF024F894F81441044408EBC40958F80A
:1093E0003420B9F8043010691840E7D0124B95F8D2
:1093F000B3A1134406EB932696F81C01002685F8CA
:10940000BD6139F061FAB9F8043058F834006946A2
:1094100000930223CDF814A001930496CDE90266CF
:109420003CF0FCFED5F820213846136843F00803D1
:109430001360C3E7289004080000FEBF1419012040
:1094400038B5152400224E2105460EF03FF896202F
:1094500011F0F2FDF52128460EF02EFB422807D030
:10946000472807D0013C14F0FF04F0D1204638BD56
:109470000C24FBE70D24F9E72DE9F743054600F13D
:1094800010047B480DF014FE44F23B33A8822846BA
:10949000A5F84C31FFF75CFC42F21F530022762105
:1094A000A5F84C3120460EF011F800224E2120463E
:1094B0000EF00CF895F8D8906E4BB9F10C0F93F8AC
:1094C000FD3440F0AD80012B00F0BA80022B15BFB7
:1094D000062603264FF4DC774FF4786714BF4FF06D
:1094E00015084FF03F080122762120460DF0EEFFCF
:1094F00042460C2120460DF0E9FF07F0FC020D2149
:1095000020460DF0E3FF0E213201204642EA1722E9
:109510000DF0DCFFB9F10C0F4FF002024FF07601B5
:1095200015BF4FF006084FF0150824274FF4DC77DD
:10953000204614BF0A2606260DF0C8FF4FEA48024F
:10954000032120460DF0C2FF07F0BC020421204693
:109550000DF0BCFF05213201204642EA17220DF032
:10956000B5FF0022762120460DF0B0FFFF225221E8
:1095700020460DF0ABFF0322142120460DF0A6FF7C
:109580000022632120460DF0A1FF0822652120461C
:109590000DF09CFFE42120460EF08EFA00F0EF0063
:1095A000642140F0600220460DF090FFCD2120465E
:1095B0000EF082FA00F03F004D2140F040022046BC
:1095C0000DF084FF0F224E2120460DF07FFF012079
:1095D00011F032FD95F8DB30002B43D095F82031A7
:1095E000013343F00103B3FA83F3C3F11F03032BE9
:1095F00038DC214AD25C02F00F024F212046019252
:109600000DF064FF0F2011F017FD2046019A502144
:109610000DF05CFF0F2003B0BDE8F04311F00CBD6E
:10962000022B13D0032B17D0012B15BF0A260826B7
:109630002427902714BF4FF006084FF00C0852E77C
:1096400004264FF4C0674FF027084CE706264FF476
:10965000DC774FF0150846E704264FF4AC674FF06F
:10966000250840E70023062285F8DB30C3E700BF6A
:1096700000366E01181701207407050838B58022DE
:1096800004466B210DF022FF642011F0D5FCF5217A
:1096900020460EF011FA0546012011F0FFFA682D60
:1096A0001BD18C2120460EF007FA18280DD814285B
:1096B00034BF002503252046072268210DF006FF50
:1096C000642011F0B9FC284638BDA0F15403DBB288
:1096D000072B34BF03250025EDE70025F3E744F20F
:1096E0003B3337B500F11005A0F84C310446FFF7C5
:1096F0002FFB03226B2128460DF0E8FE0F2011F00E
:10970000CDFA10226A2128460DF0E0FE0F2011F05C
:10971000C5FA00226C2128460DF0D8FE0F2011F06A
:10972000BDFA94F82021192128460DF0CFFE0F2014
:1097300011F0B4FA18221B2128460DF0C7FE0F20A5
:1097400011F0ACFA18221C2128460DF0BFFE0F20A4
:1097500011F0A4FA1022372128460DF0B7FE0F2091
:1097600011F09CFA0122382128460DF0AFFE0F209F
:1097700011F094FA94F8DB30052B3BD894F81E31A5
:10978000032B37D194F8233103F0FB03022B0CBFDA
:10979000002207221A2128460DF098FE012011F020
:1097A0007DFA16480DF084FC0623A0826A4694F8E0
:1097B0004D1128460DF0EAFE70B1BDF800305BBADD
:1097C000A4F8D030BDF802305BBAA4F8D230BDF8AE
:1097D00004305BBAA4F8D43094F9D23001330BD101
:1097E00094F9D030013307D1062003B0BDE83040F2
:1097F00011F03CBD0022CDE703B030BD002D31019A
:1098000003682DE9F3411E780146012E08D0022E8F
:1098100063D13122742102B0BDE8F0413DF0FABAC3
:109820003123424D85F82035036893F90420531CF9
:1098300053D0032A51DC602303FB0253D3F83805CD
:1098400000284AD093F87945202C46D1846914F435
:10985000004442D193F8780501283ED091F8048065
:109860002121D5F8A4C683F87915402183F87865BD
:1098700083F87A1505F5A461C3F87C45C3F85C1537
:109880002B49A3F86265C3F864152A49C3F86C151F
:10989000B3F8621589B2FF2922D8B3F862154FF0E8
:1098A000007789B260204FEA480819235043F42218
:1098B0002E18A6F860154146CDF800C0DFF880C02C
:1098C000604438F0DDFE78B1002386F87835B5F8CD
:1098D000A83601339BB2A5F8A83602B0BDE8F081E6
:1098E000FF214FF08077DDE7D6F8382596F8601530
:1098F000536823F07F7323F4583323F47F7323F0EA
:10990000030343EA080343EA01430B493B43536023
:10991000D6F86C3586F878058B4203D007498B4220
:1099200018BFF22413681C431460D6E718170120EF
:109930000000FFFF958403080986030811A70308A8
:10994000501C012010B5044600683AF0C1FC30B943
:109950002046044AF7213AF013FC012010BD0020F4
:10996000FCE700BF0407002008B503681A78012A45
:1099700005D00C4A00213AF003FC012008BD93F900
:109980000430094A03EB430302EB431393F87925B0
:10999000202A01D0002008BDD3F838359B691B046C
:1099A000F8D4E6E73C170120181701202DE9F84309
:1099B000DDF820800F4616460021202204461D4671
:1099C0003FF07EF9B8F1000F0CD0D8F80030B8F8AD
:1099D0000A20E3811B0C2382D8F804306282E382E0
:1099E0001B0C238338463DF0A9FCF30619D4431E13
:1099F000B8B107EB000C01E0013B12D31CF801EDFC
:109A0000BEF12E0FF8D1C01A03F10109421EB9446C
:109A1000032AA8BF0322082BA8BF082390461A4692
:109A200006E008280246B9464FF00008A8BF082201
:109A30004FF0203339462046236063603FF0CCF876
:109A400004F108031748424649462081A07218468F
:109A50003FF0C2F804F1FF3C0346E21D1CF8011F71
:109A6000A1F1610E2039BEF1190F98BF8CF80010DA
:109A70006245F3D1184604F10B0110F8013BA3F144
:109A80006102203B192A98BF00F8013C8842F4D1BA
:109A9000182365832D0CE6722373099BA582E3616D
:109AA000BDE8F883202020002DE9F04FDFF88C94EA
:109AB00087B0D9F89000C9F89400002B00F0DA8044
:109AC0001344154601F1200601F5FE77DFF870A476
:109AD00003931FE0002D63D0D9F8C420AA4200F000
:109AE000CD80D9F8C020AA4200F00281D9E9322104
:109AF000AA424CD8A94200F2CF81691A184638F020
:109B0000A3FA0135039B06F5007607F500779D4221
:109B100000F0B080D9F8D040A6F12003AC42D9D8EB
:109B20002C1BD9F8E080E208D8F8301004F00704C4
:109B300002328A4203D3D8F838108A420DD94146FE
:109B400010460593049238F04FFA8046DDE904236D
:109B5000002800F0C181C9F8E00098F8041000293D
:109B600040F03F81D8F828B0BBF1000F00F0AD8184
:109B70001846D8F830304FF40071D21AD8F80C30AB
:109B800004EBC20203EB42224346D847B9E7A9429D
:109B9000B3D918464FF4007200213FF091F8B0E7B6
:109BA0004FF40072294618463FF08AF88022034697
:109BB000D94886F89E210C2286F8A221D9F8C01037
:109BC000D9F8B8208142C3F8C611C3F8CA2100F3FE
:109BD0006881D24B013AD24C83FB0103C81784FB46
:109BE00001C40B44C0EB6313C0EB2430CD4C84FBA9
:109BF00003C4C3EB831C86F8A1018010A1EB0C0108
:109C00001C4420F03F000131014386F8A011D91710
:109C1000C1EBE4110B4486F89F31BF4B9A4200F32D
:109C20004C81BE4BBE4883FB0213D11780FB024020
:109C30001344C1EB6313C1EB2031BA4880FB0340EE
:109C4000C3EB831486F8A5118910121B184421F068
:109C50003F0101320A4386F8A421DA17C2EBE01073
:109C6000034486F8A331552386F8DE31AA2386F80B
:109C7000DF3146E7002007B0BDE8F08F4FF0FF323C
:109C80000024A6F11C00049383F8EC21214683F8FC
:109C9000ED2183F8EE2183F8EF2152221A705A70D9
:109CA00061229A7083F8E7214122DA7083F8E62175
:109CB000722283F8E42183F8E521D9F8D820C3F88B
:109CC000E8214FF4F0723EF0FBFF049B5522C6F8EA
:109CD000D041C6F8D441C6F8D84183F8FE216FF0D0
:109CE000550283F8FC4183F8FD4183F8FF2108E722
:109CF0008D4C00214FF4007218463EF0E1FF034600
:109D00004FF0000C022203CC46F8191CEB2146F858
:109D10001D0C082006F8201C582106F81F1C902155
:109D200006F81E1CF8211A7383F80BC006F8130CF2
:109D30009A7383F80FC006F8102C06F80B1C83F8F2
:109D40002C20D9F8C010D9F8B82083F819C0521ABD
:109D500083F81BC083F81DC01A6283F81EC083F805
:109D60001FC083F82DC083F82EC083F82FC0D9E917
:109D70003212521A80215A623F221A764FF0FF3275
:109D80009A763E221A77012283F8302083F831C078
:109D900086F820102921654B86F82210942186F838
:109DA000260086F823100E21614A86F824100D2122
:109DB00086F82510552186F8DE11AA2186F8DF11D4
:109DC00003CBC6F82B101988C6F827009B78A6F895
:109DD0002F1086F8313003CAC6F83200C6F83610A4
:109DE0008FE64FF40072184600213EF069FFD8F864
:109DF00040200346002C76D1002A00F0A380D8F83A
:109E0000303011224B49CDE90044FFF7CFFDD8F89F
:109E100040301A6C002A00F0A1801B6BCDE9004491
:109E20001122454930464FF4E07BFFF7BFFD06F1B4
:109E30002003D8F84480B8F1000F3FF462AE03F17C
:109E400020049B44049523464446984610E05CF861
:109E50001C1B0025236BCDE900C5FFF7A7FDABEB6D
:109E60000803A46C08F12008002C18BF1F2B51D93F
:109E70002379A44604F11C0E1122A8F12000002B26
:109E8000E5D162792569236B42F021022168CDE991
:109E900000E5FFF78BFDE2E7A91A184638F0D4F881
:109EA0002FE6FF23013A86F89F3186F8A13186F824
:109EB000A031194B9A427FF7B4AEFF2386F8A33145
:109EC00086F8A53186F8A431CDE6594618464FF4F8
:109ED00000723EF0F5FE14E6A6F1240343F804AF49
:109EE0009F42FBD10DE6002AD8F844800CBF012226
:109EF0000222C2EB0414B8F1000F3FF402AE424656
:109F0000013C926C002C01DD002AF9D190464FF4FF
:109F1000007B90E7049DF4E5FF03FB0083200882AB
:109F20009755454181808080D0060508DC060508EC
:109F3000E8060508C8060508CC060508181701201C
:109F4000DEADBEEF23460822D9F8BC104FF4F07BFB
:109F5000CDE90044FFF72AFD33466AE72346CDE901
:109F600000445DE7BFF34F8F0549064BCA6802F412
:109F7000E0621343CB60BFF34F8F00BFFDE700BF2C
:109F800000ED00E00400FA05014B53F82000704793
:109F9000502800402DE9F041CB781BB9002630460F
:109FA000BDE8F08100F110070C4605468978384677
:109FB0000DF09EF806460028F0D0E0780DF00CFF7A
:109FC000A86123780133DBB210B1C37122238371FE
:109FD0000D210DF06DFFA8690DF084F80F4AD2F83D
:109FE0009030632BFBD90E480DF062F8DFF8388013
:109FF0000C4BA88202E058F8043B53B1384698470E
:10A0000003460028F7D0286985F8D8303CF012FFC5
:10A01000C5E7E0781E460DF06BFFC0E7181701207A
:10A0200040420F007D9600085091040830B490F82B
:10A03000443000F10801484A012BC2F8AC166ED03A
:10A0400083684649DC68464D24F46004AB42DC601A
:10A05000DC6844F46004DC609C6B24F440149C6372
:10A060009C6B44F480149C639C6B24F4F8449C63C4
:10A070009C6B44F488449C639C6824F470249C602A
:10A080009C689C609C6824F440149C609C689C6064
:10A090005C6824F480645C605C6824F480545C60D8
:10A0A0005C6901EA040159615969596147D0DC686A
:10A0B0002A4924F0E064DC60DC6844F0E064DC60A1
:10A0C0009C6B24F440149C639C6B44F480149C634C
:10A0D0009C6B24F478249C639C6B44F410249C6354
:10A0E0009C6824F470249C609C689C609C6824F4A8
:10A0F00040149C609C689C605C6824F480645C6094
:10A100005C6824F480545C609C692140144C996123
:10A11000A3429969996118D0002380F8443011480E
:10A12000114B848DC18D408D091BC2F8B446C2F815
:10A13000B00693FBF1F330BCC2F8B83670470B4C55
:10A14000616841F400016160B1E708494B6843F47C
:10A1500000034B60E0E700BF1817012000F0FFFF8D
:10A1600000200140007AF01F8038010000230140E8
:10A17000704700BF014833F0C1B800BF501C012038
:10A18000084810B4D0F83835D0F86C4599691A6889
:10A190002CB1234600F5A7605DF8044B18475DF825
:10A1A000044B704718170120014833F0A7B800BFCF
:10A1B000B01C0120084810B4D0F89835D0F8CC4530
:10A1C00099691A682CB1234600F5B3605DF8044B19
:10A1D00018475DF8044B704718170120014833F009
:10A1E0008DB800BF101D0120084810B4D0F8F83514
:10A1F000D0F82C4699691A682CB1234600F5BF6047
:10A200005DF8044B18475DF8044B704718170120A0
:10A210002DE9F84F204F6023044603FB0073D3F869
:10A220002455002D00F0A781D3F82C651EB1B37919
:10A23000002B40F0A081602303FB0473D3F830951A
:10A24000B9F1000F04D099F80630002B40F093814B
:10A25000631CDBB216B11522F371B271B9F1000FB4
:10A2600004D0162289F8073089F80620287C4FF0A0
:10A27000090838F029FB30460CF034FF48460CF052
:10A2800031FF112130460DF013FE112148460DF02B
:10A290000FFE4FF0330A04E0181701200A2010F0D7
:10A2A000FDFC26B13368B2881B691A4202D1BAF1AB
:10A2B000010AF3D130460CF00FFF052010F0EEFC40
:10A2C00030460CF00FFF052010F0E8FCB8F1010853
:10A2D000DFD130464FF0600B0CF0FEFE052010F091
:10A2E000DDFC48460CF0F8FE0BFB04FB052010F0EB
:10A2F000D5FC30460CF0F6FE07EB0B0A052010F0FB
:10A30000CDFC48460CF0EEFE9AF834353046042277
:10A31000002B9D4E14BF3E211E210DF0A9FD9AF881
:10A3200034355E444846002B4FF00402C14614BF4A
:10A330003E211E210DF09CFD4C22414630463EF050
:10A34000BFFCDAF824359FED917AB0EE084A5B68DD
:10A35000F7EE003ABAF836B5CAF838358C4B9FEDAF
:10A360008D5A9A688C4BC2F38222134493F83021A1
:10A37000D7F8EC30D34007EE903AF8EE677AC7EEA4
:10A38000275A07EE90BA9FED857AF8EEE77AC7EE86
:10A39000274ADFED837AB0EE007AE5EE877AA5EE04
:10A3A000875A25EE844A37EE856A74EEE72ABBF5B4
:10A3B000C87F40F2145309F1010ED7BF194632236A
:10A3C00064234FF49670C8BF782007EE90EAD4BF9C
:10A3D0004FF4167C4FF4827C0344B8EEE77AC8BF92
:10A3E0004FF4FA7107EE903A27EE257A01EB0C0351
:10A3F000F8EEE76A86EE873A73EE636AFCEEE67A79
:10A4000017EE902A07EE90CAB8EEE73A07EE903AB8
:10A41000F8EEE77A23EE243AC3EE276A36EEC53A21
:10A4200072EEE66AC3EE077A77EEE37AFCEEE77A3D
:10A4300017EE901AC6EE877A77EEE37AFCEEE77AAB
:10A4400017EE903A03F1020C0CEB010AF0EE466AAB
:10A4500007EE90AAF8EE677AE7EE276AF4EEE64A8E
:10A46000F1EE10FA00F389805FFA82FCBCF10F0F65
:10A4700000F28580323807EE900AF8EEE77A77EE40
:10A48000C47AC7EE876AFCEEE67A17EE90CA5FFAE6
:10A490008CF00F2873D888B2FF2870D898B2FF28A4
:10A4A0006DD840EA097310054FEA0C4200F07F6056
:10A4B00002F47F02034313433A4A02EA012143EACA
:10A4C00001086020012300FB047400273046C4F813
:10A4D0004435C4F83C85C4F84075C4F84875C4F8E0
:10A4E0004C75C4F85475C4F858753CF0AFF894F83E
:10A4F0007935202BD9B21AD194F87835012B16D0A2
:10A50000242384F87935D4F838351A6822F001020A
:10A510001A601A6822F480521A601A681A601A685F
:10A5200042F001021A6084F8791584F878750021E8
:10A5300095F9120039F00CFD95F91230AA7C002B28
:10A5400007DB02F01F0101225B098A40164941F82E
:10A550002320002195F9110039F0FAFC95F911300A
:10A560006A7C002B07DB02F01F0101225B098A4095
:10A570000D4941F82320BDE8F88F013164E7BEF1B1
:10A580000F0F9ED0F14612E7501C0120286B6E4E33
:10A590000038024000001643289004080024744943
:10A5A0000000704200FFFF0000E100E00348D0F827
:10A5B00090300BB180301847704700BF0000012079
:10A5C0000348D0F8B4300BB1A4301847704700BF2F
:10A5D000000001200348D0F8D8300BB1C83018472C
:10A5E000704700BF000001200348D0F8FC300BB1D9
:10A5F000EC301847704700BF000001200348D0F836
:10A60000203113B100F58870184770470000012011
:10A610000348D0F8443113B100F59A7018477047D9
:10A62000000001200348D0F8683113B100F5AC7088
:10A6300018477047000001200348D0F88C3113B14F
:10A6400000F5BE7018477047000001200348D0F89D
:10A65000B03113B100F5D0701847704700000120E9
:10A660000348D0F8D43113B100F5E27018477047B1
:10A67000000001200348D0F8F83113B100F5F47060
:10A6800018477047000001200348D0F81C3213B16E
:10A6900000F5037018477047000001200348D0F808
:10A6A000403213B100F50C701847704700000120CC
:10A6B0000348D0F8643213B100F51570184770479D
:10A6C000000001200348D0F8883213B100F51E7055
:10A6D00018477047000001200348D0F8AC3213B18E
:10A6E00000F5277018477047000001200138074B1C
:10A6F000074A00EBC00003EB8000D0F880009042D6
:10A700000CBF9520962038F0DFB800BF0000012074
:10A710000060024001382DE9E84100EBC000134D14
:10A720001E46134B05EB800590460F46D5F880007A
:10A7300098420CBF9520962038F0C6F895F9950000
:10A740004FEA9811C5F89070C5F8986039F000FC90
:10A7500095F99530002B07DB03F01F0001225B0900
:10A760000449824041F82320BDE8E881000001202F
:10A770000060024000E100E0AB4B2DE9F04F97B0E4
:10A7800093F8CE86A94B0025A94F0093A94BA3F5BA
:10A79000D06ADFF8B892DFF8B8B24E46B30AA3F534
:10A7A0008013522B55D8534493F838310D2B50D881
:10A7B000B8F1010FFC5640F01D81012C3FD14FF044
:10A7C00000094946204611F0B9FA11F03FFB90F814
:10A7D00000C0BCF1000F18BFBCF1540F14BF4FF004
:10A7E000010C4FF0000C40F0018109F104091FFA3F
:10A7F00089F9B9F1100FE4D1002D00F0B9808B4A2E
:10A8000000210DE0534493F838310D2B0FD8FB563F
:10A81000A3420FD0013102F58672A94280F2A480D2
:10A82000906803689B0AA3F58013522BEAD9002392
:10A83000A342EFD143799BF805009842EAD17D4BC2
:10A840005B4513D05BF8206FB30AA3F58013522B3E
:10A85000A9D9B8F1010FF2D001230024B8F1020FF9
:10A86000ADD1002BABD0734B5B45EBD1009B0135D9
:10A8700003F58673042D00938BD16F4B4FF00108C5
:10A88000DFF8D0B1009303F57C73ABF23C4A05933B
:10A8900008F1FF33DAF838249A4262DDDBF80C6005
:10A8A000002E00F0C3833168B78801F13F41B7FA49
:10A8B00087F701F57E01C7F11F07890ADAF804500E
:10A8C000002D40F3CB80594B002405E0013403F503
:10A8D0008673AC4200F0C0801A688A42F6D14FF409
:10A8E0008673524ACBF8047003FB04245FFA88F3A2
:10A8F000CBF8184016B1F3710323B3717A0003212A
:10A90000012301FA02F0A16C03FA02F20143A164EF
:10A91000216D0A4322659AF80020002A6FD0626DEB
:10A92000BB401A43626516B13268B188916199B231
:10A930000122D4F8AC00FDF777FB204608F10108AE
:10A94000FDF752FC0123009AB8F1090F8BF81C3077
:10A950000BF1200B0BF8033C537402F11803009326
:10A9600096D117B0BDE8F08FBCF1000F7FF467AF50
:10A9700058460DF0B1F99BF80540C3B2022B00F226
:10A980005D83431C2D4A5BB203EB430398002C4BC1
:10A9900003F5727104E0994200F0508353F82C2FB4
:10A9A000B242F8D11A79A242F5D11A58002AF2D04F
:10A9B00094460023234A51680133614513D0102B7C
:10A9C00002F12402F7D14FF0FF3303EBC3031E4A19
:10A9D00002EB830393F89C30002B7FF430AF009B95
:10A9E000C3F808B042E7DBB2013BEEE7002D7FF48D
:10A9F00006AF24E7B4F1080318BF01232EE707F1DF
:10AA000010029340626D134363651EB1B3883268D0
:10AA10001B04936101210022D4F8AC00B94089B233
:10AA2000FDF702FB89E700BF18170120D0010020C5
:10AA30007C070508A896040828160020000001409D
:10AA4000B4910408800001200000012000040140AE
:10AA5000A895040804060020032C67DC4FF48673D5
:10AA600003FB05A31869002800F0D6829960013124
:10AA7000CAB283F811210292542283F810216B1C70
:10AA80000268CAF80430447901920DF025F9A24B0E
:10AA9000864693F8E33603939BF810300493C3B2D1
:10AAA000022B00F2CB8200F1010C9C499C48002350
:10AAB0004FFA8CFC019A0CEB4C0C4FEA8C0C05E025
:10AAC0000133172B00F0BA8251F82C0F8242F7D1D4
:10AAD0000879A042F4D151F80C000028F0D02C21C4
:10AAE0000EEB4E0EDFF86C9201FB03F38D494C46E2
:10AAF00003EB8E030B44D3F89C114FF4867303FBD6
:10AB000005A3C3E907010021636898421FD0013102
:10AB100024341029F8D1844B93F8782052B9029943
:10AB2000542283F8791083F8782003E003237A4ACB
:10AB300082F8E2367D4B7E487E497F4AC3F8500357
:10AB4000C3F84813C3F8582317B0BDE8F08F4B1C67
:10AB50007549DBB2013B03EBC30301EB830393F8BD
:10AB60009C1006910029E5D1029983F89D104FF4BD
:10AB7000867101FB05F08C210446542083F89C006B
:10AB80002046A3106D4C0190504404FB03F334683D
:10AB9000C0F80011C46003FB01F1059C03EB430303
:10ABA00004EB410103EB0313C0F8FC10644901EB13
:10ABB0008303C0F8B4303323C0F8B830614B019838
:10ABC0001C18554BD3F8EC10039B062B00F0218288
:10ABD000072BDFF884C15C4B5C4808BF18465C4B10
:10ABE00008BF6346B1FBF3F3B1FBF0F110465A1E08
:10ABF0004FF48673013992B203FB05A3A3F8BC108E
:10AC0000A3F874200293019B2266002203F15801ED
:10AC10004C4BA4F8582019446266E2653BF07AFA7E
:10AC2000029B1A6910680292036843F08003036074
:10AC300053790C2B08D8DFE803F067070707600794
:10AC400007075807070750004FF4867303FB05A357
:10AC500059694FF0600C026800234FF0020ECDF8E6
:10AC600038C04FF4807C22F001021093CDF850C020
:10AC70004FF0010C1393CDF83CC04FF00A0C159324
:10AC8000CDE911CE02600EAA3BF002F94FF48672B4
:10AC9000029B02FB05A251691A680023012900F0FA
:10ACA0008081042900F07D81102900F0BA814029BB
:10ACB00000F07781B1F5807F50D0B1F5806F4DD035
:10ACC000B1F5805F00F0B681B1F5803F4FF03C03F5
:10ACD0000CBF08214FF4006142E04FF486734FF43B
:10ACE000805103FB05A35961B3E74FF486734FF41A
:10ACF000807103FB05A35961ABE74FF48673102104
:10AD000003FB05A35961A4E74FF48673012103FBFC
:10AD100005A359619DE700BF18170120B4910408ED
:10AD2000000001402890040800000120C01200200B
:10AD3000995D0108955D0108A15D01086B4CA407B0
:10AD4000E8160020D001002010552200449508008C
:10AD5000D0DD06008000012040771B00082104237D
:10AD600002F1180050F803C041EA0C01C150029BE7
:10AD70001879002840F01E814FF48672002302FBF0
:10AD800005A21069D1690068026842F00102026000
:10AD9000D9F804200133914200F00881102B09F109
:10ADA0002409F5D14FF0FF33A74A03EBC30302EBAD
:10ADB0008303D3F88000A54B98420CBF95209620C2
:10ADC00037F082FD4FF4867303FB05A31A695379AC
:10ADD0000C2B00F2E8809E4901EB4303B3F8A0C6B8
:10ADE0004FF4867310689B4903FB05A3A3F818C0B2
:10ADF000002306E0904200F017810133042B00F09D
:10AE0000208151F83320002AF4D1DAF8442A0132A3
:10AE1000CAF8442A0AEBC302DB00C2F8480A194404
:10AE2000069823469022B1F804E0DFF840924CEAFD
:10AE30000E0CA1F804C08849FFF76CFC4FF4867330
:10AE40004FF4403C402103FB05A50023E86902685C
:10AE500042F010020260026842F014020260C4F87C
:10AE6000A830C4E91F33C4E9283304232A6AC4F88C
:10AE700098C04FF4804CC4F89C304FF48063A167B5
:10AE8000C4F88430C4F89420D5F8B820C4F89020D1
:10AE9000C2B220F0FF00103AA9FB0231EA68019B20
:10AEA0001832090922674FF48052C4F8882003F150
:10AEB00070026A4B1A44D5F8B430C4F88CC063678A
:10AEC0003BF060FAE869019B4FF40031D0F800E0F4
:10AED0004FF4006C03F1B802604BC4F820E0D0F8E6
:10AEE00014E01A440023C4F824E0D0F804E0C4F8C5
:10AEF00028E0D0F808E0C4F82CE0D0F80CE0C4F862
:10AF0000C830C4F830E0C4F8F030C4E93033C4E9E4
:10AF10003A332B6A01930423C4F8E4304FF480637E
:10AF2000C4F8CC30019BC4E93731D5F80031C4F8FE
:10AF3000D830C3B220F0FF00103BA9FB0331EB680F
:10AF4000C4F8D0C010330909C4F8B830D5F8FC30C3
:10AF500001934FF48043C4F8D430019BC4F8BC3053
:10AF60003BF010FAEA695FFA88F31168616351698E
:10AF7000A1635168E16391682164D16861641168DB
:10AF800041F010011160116841F014011160049A40
:10AF9000CBF804708BF81020CBF80C60CBF818407D
:10AFA000A9E40821DCE64FF0000C19E7DBB20693B8
:10AFB000013BF9E603920CF00FFF039A20B30268FD
:10AFC000234B02F13F42079002F57E0203EB9222EF
:10AFD000029B92F81C011A7A039237F075FC079BCA
:10AFE000039A99880D92002218680C92089108A97A
:10AFF0000393CDE90A22022209923BF00FF9542271
:10B00000039BDA80029B1A68536C43F40043536439
:10B01000B2E61348134BE5E50223134A82F8E23601
:10B0200088E54FF400619BE6DB00F8E64FF0FF3760
:10B03000394643E44FF40061042391E600235B6842
:10B04000FFDE00239B88FFDE00000120006002403D
:10B0500028900408100C002075800008D001002002
:10B06000882A1100A0BB0D0018170120ABAAAAAABC
:10B070002DE9F041834DC0EB001605EBC606D6F86E
:10B08000E436002B00F0BC800446070196F8540714
:10B0900037F01AFC96F85437012203F01F015B09C0
:10B0A000013B8A40032B0AD8DFE813F0E0000400DC
:10B0B000E600DA0074494B6A23EA02024A623B1B4B
:10B0C00004F1010805EBC3035FFA88F893F8E8067A
:10B0D0000CF082FE18B1122380F8078083713B1BAD
:10B0E00005EBC30393F8E9060CF076FE064618B1AB
:10B0F000132380F8078083713B1B05EBC30393F890
:10B10000EA060CF069FE18B1142380F807808371F9
:10B110003C1B2E21304605EBC40494F8EC260CF0C1
:10B12000A7FE94F8EA060CF057FE94F8ED260E21DF
:10B130000CF09EFE94F8E8060CF04EFE94F8EB2618
:10B140002E210CF095FED4F8E43650491A688B4253
:10B1500022F040021A6055D04D4A934269D002F560
:10B160008062934258D1484A116A41F40041116209
:10B17000116A21F4004111625A6842F480525A6007
:10B180001A68520634D443491E68D1F8D442D1F823
:10B19000E002D1E9B025B0F5005F42EA0502D1F83E
:10B1A000CC5242EA0502D1F8D05242EA0502D1F867
:10B1B000D85242EA040242EA0502D1F8DC5242EADD
:10B1C0000502354D42EA000205EA060542EA05029B
:10B1D0001A60D1F8C8225D6842EA14422F4C04EA92
:10B1E000050442EA04025A6002D1B1F8E4221A616D
:10B1F000DA6922F40062DA611A6842F040021A60E9
:10B20000BDE8F081204A516A41F480515162516A8F
:10B2100021F480515162AFE7214A934213D11A4A77
:10B22000516A41F400515162516A21F40051516256
:10B23000A2E7154A116A41F480411162116A21F4B2
:10B240008041116298E7174A934295D10E4A516A9C
:10B2500041F480115162516A21F4801151628BE7EF
:10B2600009490B6923EA02020A6128E706494B698A
:10B2700023EA02024A6122E703490B6A23EA020237
:10B280000A621CE718170120003802400030014014
:10B2900000380040000001204000FFFFFBF0FFFFEE
:10B2A000003401400050014030B40469002341687B
:10B2B0004025E46882690C315462446995605360AA
:10B2C00093631160C2E90333C2E90533C2E907336E
:10B2D000C2E90A33C2E90C3384B1C269E0689363FE
:10B2E00050621160C2E90133C2E90333C2E9053398
:10B2F000C2E90733C2E90A33C2E90C3330BC7047F4
:10B30000114A037A0168D35C10B4CC58CA1824F0EF
:10B310000104CC501368DB07FCD4037D1F2B09D933
:10B32000203B20225DF8044B02FA03F343F018039C
:10B33000CB60704720225DF8044B02FA03F343F020
:10B3400018038B60704700BF8C070508F0B50668CE
:10B35000356A00295CD12F68AC68D6F818E0002F58
:10B360005FD0364B3B40B3F1005F61D007F01F0167
:10B3700004F11F0327F01F02194421F01F01BFF33E
:10B380004F8F00290BDD114402F12003DFF8B0C01C
:10B390008B42CCF868221A4603F12003F8D1BFF3A0
:10B3A0004F8FBFF36F8F03684FF48062CEF8047045
:10B3B000CEF814205B69CEF8204043B36868F66984
:10B3C000002837D01D4B0340B3F1005F1AD000F0C6
:10B3D0001F0220F01F011F32224422F01F02BFF380
:10B3E0004F8F002A0ADD0A4401F12003144D9A42CE
:10B3F000C5F87012194603F12003F8D1BFF34F8F3F
:10B40000BFF36F8F4FF48063706073613462F0BD7F
:10B41000EC69002CFBD06F691435D6F818E0002FCA
:10B420009FD1084A3346CEF81470CEF80420C1E705
:10B430003346B9E7044B70617360E7E70000FFFF34
:10B4400000ED00E04400002048000020F8B5076847
:10B450000646D7E90454002C50D0A0612B7D1F2B49
:10B4600039D82022286802FA03F343F018038360D6
:10B47000237D1F2B3AD92022203B02FA03F32268B6
:10B4800043F01803D3606368002269680A601A6099
:10B490001A6842F010021A60BA69297A3AF072FF0B
:10B4A000FA69217A20683AF06DFF2A7A2A492F68D2
:10B4B00033688D5C5A687B59206843F001037B51E7
:10B4C000237AC95C435843F001034350536843F067
:10B4D00003035360F8BD203B2022286802FA03F3DF
:10B4E00043F01803C360237D1F2BC4D8202202FA27
:10B4F00003F3226843F018039360C4E72A7D6B6866
:10B500001F2AA8611FD82021286801FA02F242F000
:10B51000180282600021BA691960196841F01001AF
:10B520001960297A3AF02EFF2A7A0B493368286885
:10B53000895C5A68435843F001034350536843F011
:10B5400002035360F8BD203A2021286801FA02F274
:10B5500042F01802C260DDE78C070508014B43F892
:10B560002010704750280040F0B5A24CA5B0E36809
:10B57000022B00F03A82A048A04AA149121A3DF0DD
:10B580002BFBA048A04AA149121A3DF025FBA36855
:10B59000012B00F2C28003EB43039D4A9D4D02EB59
:10B5A000430032F8132041888388C5E9BA21C5F8E1
:10B5B000F032994C994E9A4BB2FBF1F2994901FB4A
:10B5C00002F20021C6F8EC20D4F8882042F4700280
:10B5D000C4F888201A6842F001021A609960924A01
:10B5E0001868024091481A60C0F30807904A5A60F0
:10B5F0001A6822F480221A60D96007B1FEE78D49EB
:10B60000A0604FF6FF000A688B4B42F400720A609C
:10B61000E26802401343E36038F02EFDBFF34F8F22
:10B62000BFF36F8FC4F85072BFF34F8FBFF36F8FAC
:10B63000636943F400336361BFF34F8FBFF36F8FD0
:10B64000C4F88470BFF34F8FD4F8803043F6E07CA9
:10B65000C3F3C90EC3F34E33580100EA0C0173461D
:10B6600041EA8372013B5F1CC4F86022F8D12038A4
:10B6700010F1200FF1D1BFF34F8F636943F4803392
:10B680006361BFF34F8FBFF36F8F6A49644B0A68E2
:10B6900042F480720A60196C684A41F08051196462
:10B6A000196C01F0805102910299116841F44041F6
:10B6B00011601268D5F8E80202F44042D5F8EC4275
:10B6C000D5F8F0120192019A9A6802F00C02042A4D
:10B6D00000F08D809A6802F00C02082A00F0838046
:10B6E0004F4A136843F480331360D6F8A47604E01D
:10B6F000D6F8A436DB1B642B74D813689B03F7D5EC
:10B70000474A936803F00C03082B6BD0136823F0AF
:10B7100080731360D6F8A47608E03E4DD5E9BA21CF
:10B7200047E7D6F8A436DB1B022B5BD813689B01D6
:10B73000F7D40B06640843EA8013611E43EA014311
:10B740003F491943364B5160116841F080711160D7
:10B75000D6F8A41604E0D6F8A426521A022A41D834
:10B760001A689201F7D5196C344A41F08051196476
:10B770001B6C03F080530393039B136843F48033E3
:10B780001360D6F8A41606E0D6F8A4365B1AB3F513
:10B790007A7F00F2CB805368DF03F5D51368274921
:10B7A00043F400331360D6F8A42606E0D6F8A43696
:10B7B0009B1AB3F57A7F00F2B9804B689C03F5D5EC
:10B7C0004FF400124FF0006304A804924FF4C072CB
:10B7D00021930723CDE9082303230A9331F078FE50
:10B7E00080B3FEE7FEE75B685A027FF579AF0C4B4A
:10B7F0001B6885E75028004000000000003D000065
:10B800005487050800000020C8010020FDDC050861
:10B81000E49604080000012000ED00E01817012064
:10B820000038024040420F00FFFFF6FE0000000813
:10B8300010300024003C02400003FA050070004074
:10B84000080040206C4A136803F00F03062B0AD847
:10B85000136823F00F0343F007031360136803F02A
:10B860000F03072B63D1654B9A6842F4E0529A604C
:10B870009A6842F460429A609A6822F0F0029A60F4
:10B880001A68900153D59A6841F2883122F0030278
:10B8900042F002029A60D6F8A40604E0D6F8A42684
:10B8A000121A8A4243D89A6802F00C02082AF5D18B
:10B8B000514A136819070AD5136823F00F0343F0A0
:10B8C00007031360136803F00F03072B2FD14B4CB2
:10B8D0004B4FA36823F4E05343F4A053A360A36841
:10B8E00023F4604343F40043A36031F0BDFDA3683B
:10B8F000C3F303133B4493F8C836D840C6F8EC00B2
:10B9000038F0BAFB002304A8CDE91333CDE9153391
:10B91000CDE91733CDE91933CDE91B33CDE91D331B
:10B92000384B049331F0D4FD10B1FEE7FEE7FEE79B
:10B9300002234FF0007204A8CDE90633D823CDE9E5
:10B94000042301230B9331F0C3FD00B1FEE7D4F8CB
:10B950008C3023F08073C4F88C30D4F88C3043F0F2
:10B960008073C4F88C30A36803F00C03042B36D02A
:10B97000082B18D0244BC6F8EC30204AD5E9BA3150
:10B98000B3FBF1F39168D6F8EC20C1F303110F4437
:10B9900097F8C816CA401D4901FB03F3C6F8EC200E
:10B9A000934220D0FEE76368626813F4800F6368F7
:10B9B00002F03F0218BF1649C3F3881308BF1249AB
:10B9C000B1FBF2F202FB03F30C4A5268C2F30142EC
:10B9D00001325200B3FBF2F3C6F8EC30CDE70C4B6A
:10B9E000C6F8EC30C9E725B0F0BD00210320FFF711
:10B9F000B5FDFEF7B7FA00BF003C02400038024038
:10BA000028900408C0FF03000024F40040420F0007
:10BA100000127A001D4B1E48196C1E4A41F08051DD
:10BA200030B4196482B0196CFF2401F08051019187
:10BA30000199016841F480710160CA20196C41F4D8
:10BA400080611964196C01F4806100915321009D9B
:10BA50005462506251625B6FDB000DD40E4B0021CB
:10BA60000E4A43F8041B9342FBD10D4B0D4AC3F819
:10BA7000502802B030BC7047094A0A4BD2F850280F
:10BA80009A42EBD102B030BC704700BF0038024090
:10BA90000070004000280040542800406C280040FE
:10BAA0000020004031666542800AA0F580105228CF
:10BAB00008D8054B184490F838310D2B02D8034AAA
:10BAC000D056704700207047289004087C0705086E
:10BAD000F0B50446D0F89400434B83B0A16804F15C
:10BAE000640204F118070E68C1B220F0FF00019251
:10BAF0001039A3FB013109093AF08EFC616D002376
:10BB0000019A012984F8583018D0042916D0102938
:10BB100055D0402912D0B1F5807F53D0B1F5806F58
:10BB200050D0B1F5805F55D0B1F5803F4FF03C0368
:10BB30000CBF6FF0080C6FF4006C01E06FF0080CA4
:10BB400006F118053046E95801EA0C01E950616D2B
:10BB50003AF09EF9636D012B16D0042B14D0102BF4
:10BB60000FD0402B10D0B3F5807F2FD0B3F5806F6E
:10BB70002CD0B3F5805F31D0B3F5803F06F154058A
:10BB800002D04FF4006100E008212B683A46D4F857
:10BB900094000B4340212B602162C1B2124B20F074
:10BBA000FF001039A3FB013109093AF0EBFBD4F88F
:10BBB0009420136843F01003136003B0F0BD6FF4DA
:10BBC000006CBDE76FF0080C0423B9E706F11C0513
:10BBD0000821DAE76FF4006C0423B1E706F11C05D5
:10BBE0004FF40061D1E700BFABAAAAAA944B2DE99C
:10BBF000F04F1C782DED028B85B034B9012420461E
:10BC000005B0BDEC028BBDE8F08F8E4B8E4FD3F8A4
:10BC1000903008EE103A0CF063FC97F8EC3B019082
:10BC2000002B00F00681864B07F1400AA7F1C804FB
:10BC3000002603F2445B5D46CDF80CB0D7F82833FC
:10BC4000019AD31A03D4EA6D9A4200F3D5807C4A54
:10BC500006EB860302EB431393F89C3503F0FF02D7
:10BC60000092002B00F08E80D5F89410AB687748D6
:10BC70001A68CBB221F0FF01103BA0FB030374480C
:10BC80001B09C35C19444B68A9891FFA83FED3685A
:10BC9000CEF1160E23EA0103BEF1070FD36071D96E
:10BCA00057F8C03C00220121013390468B4647F8EB
:10BCB000C03CD5F89C309C4602935CF8049B4846F7
:10BCC0001DE0DCF80090B8F1140FA9EB0003484622
:10BCD0001EDC13F1080948BF03F117094FEA2913C5
:10BCE00008EB291803F1FF39013102FA03F30CF1D3
:10BCF000040C0BFA09F28E4542EA030208D38E4582
:10BD0000DFD8C8F11503DCF800004FF01508E9E7AB
:10BD1000B8F1150F67D14F49C2F38423C2F3441021
:10BD200001EB830301EB8000D3F8D836D0F8D806B6
:10BD30001B0243EA001302F01F00C2F3C43201EBFE
:10BD4000800001EB8202D0F8D816D2F8D8260B4337
:10BD500043EA023383EA132282EA121202F00F024C
:10BD60000F2A40D1C3F30F134FF6FF7293423AD01C
:10BD7000B3F5606F47D0A381009918EE102A5046A2
:10BD80000BF03CF928460136FFF7A2FE97F8EC3B92
:10BD90000AF15C0A1434B34205F1A0053FF74EAF37
:10BDA00001210022DDF80CB087F83E10C7F82823E7
:10BDB000002B3FF423AF03EB83030BEB43139BF800
:10BDC00010200BF1A00B5BF84C0C12F0020F5BF88B
:10BDD000982C11680A6A14BF42EA800202435B454C
:10BDE0000A62ECD10AE757F8C43C013347F8C43C77
:10BDF000C6B100230093BFE70024204605B0BDEC88
:10BE0000028BBDE8F08F0F4991F8F42102EB42025A
:10BE100001EBC202324492F8A1210D2AABD180235A
:10BE2000A377A9E7029958220B483CF0D5FE00966B
:10BE3000A2E70122C7F8283387F83E20DFE600BFDB
:10BE4000C801002018170120C0120020ABAAAAAA1E
:10BE50008C07050828900408A4120020830AA3F583
:10BE60008013522B45D8F0B50446624885B0034490
:10BE700093F838010D283AD85F4D860105EB801301
:10BE8000D3F8C478A74232D00139C3F8C44889B284
:10BE9000C3F8D018D5F8EC10B1FBF2F2013AC3F8B0
:10BEA000C82805F6C40202EB80100022C3F8D4288B
:10BEB000C3F8CC28C3F8D82831F070FD4F4B9C4212
:10BEC00018D0B4F1804F15D0A3F57C439C4272D0BA
:10BED00003F580639C426ED0494A03F57C439C4243
:10BEE00018BF944246D003F570539C4242D005B02F
:10BEF000F0BD704700234FF48051AA19CDE900131B
:10BF000092F800190129CDE90233F0D00221D2F8CC
:10BF1000C408012482F801193A49876839408160D0
:10BF200082F8014982F800390023AA19CDE90033CB
:10BF3000029392F80039012BD9D0D2F8C4380221EB
:10BF40002E4882F8011983425A6899684ED000F54C
:10BF5000806083424AD022F0700221F08001354493
:10BF600001205A609960002385F8010985F800399D
:10BF700005B0F0BD00214FF48053CDE90031AB197D
:10BF800093F80029012ACDE90211B0D0D3F8C408F2
:10BF9000022283F801291B4A87683A4082601A4AC4
:10BFA00083F800190121944283F80119BCD0144B85
:10BFB0009C429CD1B8E700224FF48051AB19CDE9E7
:10BFC000001293F800190129CDE902228FD0022135
:10BFD000D3F8C408012483F801190A498768394055
:10BFE000816083F8014983F800299DE722F47002FB
:10BFF000B1E700BF28900408181701200000014095
:10C00000000C00408800FEFF0004014003689B0A0A
:10C01000A3F58013522B58D8F0B53D4C234493F828
:10C0200038310D2B50D84479A608002952D003EBA3
:10C030008300384D4FF0020CA40803EB40000CFACB
:10C0400004F4304405EB8316D6F8C46805EB800C85
:10C05000F768CCF8881C3C43CCF8982CF4609C0121
:10C06000EFF3118C502282F312882C2203FB02F290
:10C07000A818D0F8841C49B30A1DC0F8A81C26498A
:10C080002C20264E03FB00F006EB000E143001447A
:10C0900051F8040B18B1106051F8042C04328E458D
:10C0A000F6D100215FFA8CFC11608CF311882C22F0
:10C0B0002C4402FB0353D4F8C428D3F8A83C13B390
:10C0C000D36843F00103D360F0BD704724321249B6
:10C0D0000A44D5E703EB83000E4D344603EB4000E2
:10C0E000304405EB8316D6F8C4780226A640FC68D7
:10C0F00024EA0604FC6005EB8004C4F8881CC4F83C
:10C10000982C9C01ACE7D36823F00103D360F0BD09
:10C1100028900408181701209C230120C023012027
:10C1200001490248FCF7B8BD9C23012000000140F2
:10C1300010B5064C064804F68441FCF7ADFD04F545
:10C1400061610448BDE81040FCF7A6BD1817012046
:10C15000000001400044014002494FF08040FCF7DC
:10C160009BBD00BFC823012001490248FCF794BDD4
:10C17000F42301200004004001490248FCF78CBD73
:10C18000202401200008004001490248FCF784BD3A
:10C190004C240120000C00402DE9F843194E35696C
:10C1A000F3681D4010D04FF00047DFF85C80B5FA0F
:10C1B00085F227FA02F31F2A6FEA030305EA030553
:10C1C000336103D0002DF2D1BDE8F883D8F8883D63
:10C1D000A3B103F1FF3900231FFA89F9C8F8883D9C
:10C1E000D8F8844D002CEDD0236820464946984766
:10C1F0006468002CF8D1002DD9D1E5E7F16A1FFA67
:10C2000081F9EDE7001000401817012001490248AC
:10C21000FCF742BDD02401200004014010B5064CBB
:10C22000064804F6B851FCF737FD04F6946104485B
:10C23000BDE81040FCF730BD181701200004014094
:10C24000001C004001490248FCF726BDFC240120E7
:10C250000040014001490248FCF71EBD5425012061
:10C260000048014001490248FCF716BD8025012025
:10C27000001800402DE9F04F4FF4257295B00021D1
:10C2800080483CF01DFD804B804F4FF080415A6C40
:10C2900007F12004B94642F0010207F51E65A246E7
:10C2A000DFF8F4815A645A6C794E02F00102009270
:10C2B000009A1A6C42F001021A641A6C02F0010230
:10C2C0000192019A1A6C42F002021A641A6C02F08E
:10C2D00002020292029A1A6C42F004021A641A6C68
:10C2E00002F004020392039A1A6C42F008021A64E4
:10C2F0001A6C02F008020492049A1A6C42F01002BE
:10C300001A641A6C02F010020592059A1A6C42F037
:10C3100020021A641A6C02F020020692069A5A6CE5
:10C3200042F002025A645A6C02F002020792079A23
:10C330005A6C42F480325A645A6C02F48032089289
:10C34000089A5A6C42F400325A645A6C02F4003271
:10C350000992099A5A6C42F480225A645A6C02F487
:10C3600080220A920A9A1A6C42F040021A641A6CED
:10C3700002F040020B920B9A1A6C42F080021A648F
:10C380001A6C02F080020C920C9A1A6C42F48072C1
:10C390001A641B6C03F480730D930D9B42460023BB
:10C3A00001E056F833208A420CD001330E2BF8D12D
:10C3B0000AF1200A002036F087FA55450DD05AF8C8
:10C3C000201CEBE7334A0AF1200A02EBC30393F87F
:10C3D000240036F079FA5545F1D107F51C67DFF8EE
:10C3E000BCB0DFF8BCA009F120094F4526D099F870
:10C3F0000630002BF7D099F804000BF0EDFC064650
:10C400000028F0D0036809F1200919F8188C53446A
:10C410000BEB932393F81C0136F056FAB288306880
:10C4200000230E9202220EA9CDF84C80CDE90F23F5
:10C43000CDE9113339F0F2FE4F45D8D14FF08041AC
:10C44000154F134E3A46002301E056F833208A4236
:10C450000BD001330E2BF8D12034002036F034FA03
:10C46000AC420CD054F8201CECE70A4A203402EB12
:10C47000C30393F8240036F027FAAC42F2D115B08A
:10C48000BDE8F08F9C23012000380240809704080B
:10C4900040A1040820A104080000014028900408DD
:10C4A0000000FEBF30B5032083B0FDF76DFD01280D
:10C4B0004BD0324C0025324A0523C4F89850C4F8BA
:10C4C0009C50C4F8A020C4F89430BFF34F8FBFF342
:10C4D0006F8F4FF6FF01E2682A4B0A4013432A4A46
:10C4E000E360536F30F0C0FF284B2949A3FB0023C2
:10C4F000D4F8FC209B0C42F08072C4F8FC20C1F8F8
:10C500008431D1F8EC302349234AA1FB031323499A
:10C510009B09C2F8B01F5560013B1168B3F1807FE1
:10C5200041F00101116008D24FF0E022F021536187
:10C53000072384F82310956113614FF0E0221369FB
:10C5400043F00403136103B030BD02210320FFF761
:10C5500005F80D4B12485A6C124942F480425A6455
:10C560005B6C03F480430193019A02680B680260DC
:10C5700083F308884B689847FEE700BF00ED00E0B2
:10C580001B0000060005FA050038024083DE1B434D
:10C5900018170120D34D6210001000E055CEACC535
:10C5A000003801400000F01FD0F8201124220023A1
:10C5B0002DE9F041C0F8942104460A68806804F52A
:10C5C000907522F001020A600B604B608B6094F85A
:10C5D00005C0C4F89C314FEA8C22C4F8943184F829
:10C5E000903102F48052C4F89831C4F83831C4F85C
:10C5F00028214FEA0C32C4F8403102F40052C4F84A
:10C6000034312379C4F82C214FEA0C22C4F82401D8
:10C6100013F0010002F48062C4F8302102D0042239
:10C62000C4F8342113F0020305D0D4F8342142F0C9
:10C630000802C4F834211CF0010F0DD048B1D4F821
:10C64000442142F00202C4F844214FF48032C4F87D
:10C650004C21002B40F0FF80A84B03F1200053F841
:10C66000042F944200F0BD809842F8D11CF0080FCE
:10C6700040F0CD80D4F89431002B00F016812423B3
:10C680002846C4F894310B6823F001030B6033F0A3
:10C690000DF9012815D0D4F84431002B40F0188151
:10C6A000D4F8203128465A6822F490425A609A6899
:10C6B00022F02A029A601A6842F001021A6039F0E8
:10C6C00099FF2379DA0761D5D4F8FC20002A00F01D
:10C6D000D9800023D4F8041104F13C06E263A3647A
:10C6E0004FF480623046E264C4E91013C4E91433A5
:10C6F000C4E91833C4E91A334FF48033E3654FF4C7
:10C700008073A36539F0F0FF304630F001FBD4F8B8
:10C710009881C4F88C61B8F1200F656731D1E36866
:10C72000626999B26AB3B1FA81F77F0949B394F8A3
:10C730009001012825D030460126C4F89C710B4693
:10C7400084F890612226A4F87811C4F898616C4EA0
:10C75000D4F82011A6676B4E2431C4F87421E66723
:10C76000694EC4F88C70C4F8886030F06FFB002804
:10C7700000F0B280102384F89071C4F89C31C4F8A2
:10C780009481E26B23795268C4F814219B0777D512
:10C79000D4F80021002A69D00023D4F8081104F14C
:10C7A0009C06C4F89C20C4F8A8304022C4F8B830D5
:10C7B0003046C4E92C33C4E93033C4E932334FF492
:10C7C0008033C4F8BC304FF48063C4E92812C4F845
:10C7D000AC3039F089FF304630F09AFA002867D043
:10C7E000FEE7002C3FF442AF94F8BC31002B3FF43D
:10C7F0003DAFD4F844311CF0080F43F00803C4F8EF
:10C8000044314FF40043C4F854313FF433AFD4F80B
:10C810009431002B55D024232846C4F894310B685A
:10C8200023F001030B6033F041F801283FF449AFD6
:10C83000D4F84431002B47D1D4F8203128465A6827
:10C8400022F490425A609A6822F022029A609A6812
:10C8500042F008022EE7D4F8443143F00103C4F853
:10C8600044314FF40033C4F84831F5E6D4F8A03130
:10C870001A6842F080021A601A6842F040021A6098
:10C88000BDE8F081D4F8A021116841F480711160F5
:10C89000916841F001019160116841F0200111603F
:10C8A000116841F01001116070E784F89031E6E6FC
:10C8B000D4F89C30C4F88861C4F8D4505860BDE8FE
:10C8C000F08184F89031A6E7284633F0A7F9B3E762
:10C8D000284633F0A3F9E3E6D4F8203184F8900138
:10C8E0001A6842F480721A609A6842F001029A60F3
:10C8F0009A6842F040029A6043E700BFB41E0020ED
:10C9000085DC0308B5DC0308B9DC0308F8B5EFF3F0
:10C910001185502383F31288D0F800311B6813F07F
:10C92000010303D0EDB285F31188F8BDD0F894214E
:10C930000446D0F898110A4302F02102212AF1D0CE
:10C94000D0E90901884253D043D822691846531AC6
:10C950009BB2D4F894710022A062202F84F8A42105
:10C96000E0D1A2695118DDD0B3FA83F67609002B25
:10C97000D8D094F89021012AD4D00122D4F888018B
:10C98000A4F8723184F890212122C4F89C61C4F883
:10C990006C11A4F87031C4F89421E8B1DFF858C0E4
:10C9A000D4F82021C0F83CC0DFF850C0283206651A
:10C9B000C0F840C0DFF848C0C0F84CC030F046FABC
:10C9C00050B1102384F89061C4F89C31C4F894717C
:10C9D000A8E7431A9BB2BCE7D4F8203100224021DB
:10C9E000196284F890219A6842F080029A6099E76F
:10C9F000012384F8A43195E75DDC030881DC03089A
:10CA0000B9DC03082DE9F041D0F8204186B0054695
:10CA1000E3699A0615D5606AEB6AC0B2002B00F094
:10CA20008980296B9847D5F82041236823F48073C7
:10CA30002360A36823F00103A360A36943F0080304
:10CA4000A361E369DB0701D501232362E3699F0743
:10CA500001D502232362E3695E0701D50423236223
:10CA6000E369180701D508232362E369590614D541
:10CA70004023236295F8BD61002E33D0D5F80031F4
:10CA8000DBB12846FFF742FF95F8A4311BB195F8BA
:10CA9000BD61002E5FD0D5F82041D5F8003173B1CB
:10CAA000E369DB0606D56B6B13B19847D5F82041D7
:10CAB0001023236206B0BDE8F081D5F82041E36978
:10CAC0001A06EDD5D5E9092393423FD0AA69D25C75
:10CAD0000133D2B2A2622A69B3FBF2F102FB113335
:10CAE000AB62DDE795F8B20101270BF075F9236819
:10CAF00023F008032360044685F8BD710028BDD0EB
:10CB00000168284A284B0A4403EB922393F81C013E
:10CB100035F0DAFEA38820686946CDE90036CDE914
:10CB20000266CDE9047639F079FBD5F80031002BA7
:10CB3000A7D1C2E7EB696A69D054EB69EA680133AF
:10CB4000B3FBF2F102FB1133EB616CE7236823F0D6
:10CB500080032360A4E795F8B2014FF001080BF0C1
:10CB60003BF9D5F820410746236823F008032360EA
:10CB700085F8BD81002890D001680A4A0A4B0A4412
:10CB800003EB922393F81C0135F09EFEBB883868B6
:10CB90006946CDE90036CDE90266CDE9048639F073
:10CBA0003DFB78E70000FEBF289004082DE9F04F18
:10CBB000B04C89B004EB8004D4F8F84B002C6FD053
:10CBC000D4F8AC511F46DFF8C8B290466B680646F1
:10CBD000A94AC4F8A0316B6BDFF8B89263612B6B84
:10CBE000A160A3616B8FE3602B8FC4F8A821236140
:10CBF0000BF1900323602A7809EB420393F9180F95
:10CC000053000193C3B2012B40F2B780D4F8003136
:10CC100083B19A4900209C464B68013024319C45E1
:10CC200000F03A811028F7D1954B93F8781000293D
:10CC300000F08481D4F8FC00002840F0F3806B6899
:10CC4000C4F8203195F82800002840F0038194F8BA
:10CC5000B2014FF0020A0BF0BFF817F0080381464B
:10CC600094F8B0B184F8BDA11ED0002844D017F0CC
:10CC7000510F4FF00B0306F1010614BF0A211A21D0
:10CC800017F0410F8371C67114BF4023202394F81D
:10CC9000B32119430BF0C6F8D4F8FC30002B55D063
:10CCA000204609B0BDE8F08F18F0020F24D018B369
:10CCB0000B223906827106F10102C27100F1458131
:10CCC0000268704994F8B37111446F4A019302EB02
:10CCD000912292F81C0135F0F7FDB9F80420019B70
:10CCE00002A9D9F80000CDF80CA00797029206938C
:10CCF000CDE9043339F092FA58460BF06DF8074647
:10CD00000028C9D018F0010FC6D001680C235D4A75
:10CD1000013683710A445C4BC67103EB922394F88D
:10CD2000B16193F81C0135F0CFFDBB883868022251
:10CD30000293002302A90796CDE90323CDE9053329
:10CD400039F06CFAD4F8FC30002BA9D195F82C10EE
:10CD500095F92A00890937F0FBF895F92A3095F8FA
:10CD60002A20002B9CDB02F01F0201215B094748AF
:10CD700001FA02F240F8232092E708234FF00C0A50
:10CD80000BF1C00C1AFB003A0023E64619460131AC
:10CD9000172962D01EF81C3F042BF8D19EF80130F1
:10CDA0009342F4D15EF80A30002BF0D08E46019900
:10CDB000C4F800318944CEEBCE0199F919EF89000E
:10CDC00000EB4009BEF1FF3F01EB89015944D1F866
:10CDD000CC10C4F808113FF41CAF00210131172911
:10CDE0003FF416AF1CF81CEFBEF1050FF6D19CF80E
:10CDF00001E09645F2D15CF80AE0BEF1000FEDD0FB
:10CE0000C1EBC101C4F8FCE000EB4000890001EB7C
:10CE100080008344DBF8CC10C4F80411002B7FF4AD
:10CE2000F8AE7046154A002351680133243281421E
:10CE300061D0102BF8D1124B93F87820002A7FF4A0
:10CE4000FEAE2A78013283F879200C2283F878200C
:10CE50006B68F5E635F038FDF9E6019B9944D4F8A6
:10CE6000003199F9191F0131B7D1002B7FF4D1AEF0
:10CE7000E0E600BFC0120020899300088000012076
:10CE8000000001200000FEBF2890040800E100E03F
:10CE900020A10408181701205FFA80F92E4B0132F7
:10CEA00009F1FF31D2B201EBC10103EB810393F829
:10CEB0009C1000297FF4BEAE83F89D202748D3F84C
:10CEC000802082420CBF952096200B2283F89C2064
:10CED00035F0FAFC2346484695F82B202049FDF70B
:10CEE00019FC6B68D4F8FC002833C4F8183100280A
:10CEF0003FF4A5AE96E7DBB2174A013B03EBC30351
:10CF000002EB83032A7893F89C100132D2B20029F5
:10CF10007FF495AED3F8800083F89D200F4A9042AD
:10CF20000CBF952096200C2283F89C2035F0CCFC79
:10CF30006B6803F12402C4F81C2181E6013283F8F6
:10CF400079200B2283F8782074E60123204684F8A8
:10CF5000BD31FCF719FACFE6000001200060024065
:10CF60004D900008C1F103011E4A41EA800092F889
:10CF7000F432C0B2834233D010231B4930B58BB09A
:10CF800082F8F40201EB430202F8203C013302F87C
:10CF90001F0C202BF6D1154D00220120029305F61F
:10CFA000287409928DF80C008DF820002046CDE9F8
:10CFB00000126946CDE90422CDE906220AF050FAB2
:10CFC000D5F8282F536A002B18BFA34214BF0123A2
:10CFD0000023002BFDD1136A002BFCD10BB030BD18
:10CFE000704700BF000001204C00002018170120EE
:10CFF00038B5344D95F8C03F012B43D0022B09D0F2
:10D00000002B46D0304C94F8F5325B0606D54FF431
:10D01000F07305E02C4C082384F8F5324FF4C37309
:10D02000FF2202210020A4F8F63284F8F422FFF750
:10D0300099FF94F8F522002124480AF047FA95F860
:10D04000C12F022121480AF041FA95F8C22F03218D
:10D050001E480AF03BFA95F8C33F33B1012B2AD0A2
:10D06000032B14BFC722F72200E0472201211748F3
:10D070000AF02CFAB4F8F62200211548BDE8384031
:10D080003BF01EBE4823104C84F8F5324FF4F07389
:10D09000C6E7A02105F628700AF00EFD00F0060391
:10D0A000094C022B03D000F00500012805D008230D
