:020000040800F2
:10000000F0FF00102555050869EF0408411C02089F
:10001000C5550508C5550508C5550508000000006B
:100020000000000000000000000000006DEF040868
:1000300071EF04080000000075EF0408DDEB010813
:10004000C5550508C5550508C5550508C555050814
:10005000C5550508C555050885D10108A9D1010870
:10006000E5D1010821D201085DD20108A9EF0008FD
:10007000BDEF0008D1EF0008E5EF0008F9EF000838
:100080000DF0000821F00008C5550508C555050804
:10009000C5550508C5550508C555050899D2010877
:1000A00089180208E917020899180208D9170208E6
:1000B000111802082118020831180208C9E00008C6
:1000C0008DE50008D1E0000891E50008C555050858
:1000D000C555050865E5010869E601086DE70108F1
:1000E000D5D20108C555050859240508A9180208E4
:1000F00061180208B91802085118020835F0000802
:10010000C5550508C555050841180208C555050817
:1001100071E8010875E90108C5550508C5550508C8
:1001200049F000085DF0000871F0000885F0000853
:1001300099F00008C5550508C5550508C5550508B9
:10014000C5550508C5550508C555050879EF0408C6
:10015000ADF00008C1F00008D5F0000879EA010808
:10016000D9E0000895E50008C5550508C5550508FE
:10017000C5550508C5550508C5550508C5550508E3
:08018000C5550508C555050829
:0828000000C00F0800001008E1
:1080000082B01E4B002201920193019B1C4A043353
:108010000193019B1968936803F00C03042B06D0AD
:10802000082B08D0174B184A1A6002B07047154B3E
:10803000196002B070475368506813F4800F00F065
:108040003F00536812D1C3F388130F49B1FBF0F11D
:1080500001FB03F30A4A0B495268C2F301420132A1
:108060005200B3FBF2F30B6002B07047C3F3881306
:10807000B1FBF0F101FB03F3ECE700BF5028004037
:1080800000380240B81700200024F400074BD0F855
:10809000E4105B68D0F8F0205B1A9A42B8BFC0F8D1
:1080A000F030012380F81C3100207047001000E000
:1080B000B84B00EB800103EBC10170B54A68526810
:1080C000B2F814E01EF0010F4FEA800C6ED15FFA97
:1080D0008EF4A60742D5BFF35F8F91F82040012CA4
:1080E000E5B200F0D180118BBFF35F8F0CEB000184
:1080F00003EBC10191F82040022C00F0E7800CEB6B
:10810000000103EBC10191F82040032C07D191F845
:10811000221021B193F87D10002940F0E78091886A
:1081200089B241F48061918093F97C100CEB000ED0
:1081300003EBCE0E9EF820E00EF1010E8E450CD121
:10814000002183F87D1093F87E10002940F0B7805D
:10815000604403EBC00300225A7770BD65075DD40D
:1081600014F0400400F0CB80148A93F97C508E6A9E
:10817000E4B274555FFA85FE0EF1010464B291F821
:10818000206083F87C40E51CAE42214600F025814A
:108190000CEB000503EBC50595F82050AC42C5D1AA
:1081A0000EF1020149B283F87C10BFE7B2F800E09B
:1081B0002EF4006E4FEA0E4E4FEA1E4EA2F800E07B
:1081C0001488A4B244F48064148091F822400025FD
:1081D00083F87C50002C48D093F87D40002C41D08F
:1081E000012183F87D100CEB000103EBC10191F834
:1081F0002010022904D1118889B241F40061118054
:108200000CEB000103EBC101897F41F001011182F8
:10821000604403EBC00393F8203070BD91F8224016
:10822000012583F87E50002C70D093F87D40002CFF
:1082300071D10CEB000103EBC10191F82110002971
:1082400000F0AA80118889B241F40071118093F87E
:108250007C1001314CB283F87C401188CE05FCD4EF
:10826000214663E7C97FFF29BAD00CEB000103EB7D
:10827000C1018C7F04F0FE041482CA7FFF2AC7D09C
:10828000FF2283F87C20C3E791F8221000293FF4F5
:108290002AAF93F87D1000293FF425AF118821F40F
:1082A00080610904090C1180BFF35F8F118B118865
:1082B00083F87E5089B241F4007111802FE79188D4
:1082C00021F440710904090C918041E791F82210D2
:1082D00000293FF414AF93F87D1000293FF40FAF4D
:1082E000118821F480610904090C1180918821F41E
:1082F00080610904090C918093F97C1016E71FFA3C
:108300008EF52D062DD493F97C100FE793F87D1090
:1083100000298ED096E791F82040022C148846D987
:1083200024F480642404240C1480158A8E6A93F942
:108330007C40EDB235558E6A118889B241F40071E6
:108340001180E4B2158A611C49B2EDB2755491886E
:10835000023489B264B241F4806183F87C40918038
:108360007BE793F97C506E1C3ED04C6A665D1682AA
:108370006C1C91F8205064B2A54283F87C402146E1
:108380007FF4D4AE948824F480642404240C948074
:10839000CCE600BFB8170020118893F97C4089B261
:1083A00041F480711180012183F87D1055E7A4B25A
:1083B00044F400741480158A8E6A93F97C40EDB2FF
:1083C0003555E4B28E6A158A611C49B20334EDB2A8
:1083D00064B2755483F87C403FE7958825F4806546
:1083E0002D042D0C9580D3E683F87C40CC7F14823D
:1083F00091F8224024B991F8201000297FF408AFA9
:10840000918821F480610904090C918000E700BF84
:1084100030B5EAB18E464FEA014C034600F1C00583
:10842000002419689A6841EA0C0142EA0E029A6037
:10843000C3E900140C33AB42F3D1D0F8C030C0F81C
:10844000C44043EA0E03C0F8C030C0F8C84030BD95
:108450004FEA014E8C46E0E783691969B3F80CC016
:108460000A6830B49C6822F0010224680A60A2897C
:1084700092B222EA0C02A281027D04681F2A06D968
:108480006568203A08209040284245D0FEE72568DC
:10849000082090402842F9D1202000FA02F2A26080
:1084A000264A1278002A35D01A7E012A39D0D3F80C
:1084B000F4200132C3F8F420EFF31181502282F34B
:1084C000128858685C6C026822EA04029C6C2243A1
:1084D000C9B2026081F31188D3E90C401A69996826
:1084E0001D6C096814605061D3E90E4054609060BF
:1084F0000024B3F8A800D5604C62C862106801245B
:10850000204310601C7683F8F1408A899B891343CD
:108510009BB28B8130BC7047202000FA02F2E260EF
:10852000BEE7002283F8F120D3F8F8000A68013092
:1085300022F00102C3F8F8000A60EBE70400001023
:1085400010B40C4C6368002B11DD002004F1080C02
:108550000146DCF8A03003F1C00259600C339342AD
:10856000FBD16368013083420CF5807CF1DC5DF85F
:10857000044B704704000010F0B5494C04EB401C5C
:108580009CF8242402B9F0BD464B4FF08C0E0EFB34
:10859000003E93F8E06493F8E1249EF882708CF832
:1085A0000A7496424FF0000C4FEA40158EF882C0D4
:1085B0000ED002EB420C03EBCC0C57009CF8E4C449
:1085C0000CF1FF3EBEF1010F5CD9BCF1030F53D09B
:1085D0006019A0F80814EFF31182902383F3128836
:1085E00090F80A34B0F8081443EA41030021D2B2EB
:1085F0009BB280F80A1482F311881A09217882EA62
:1086000013225A40D9B1D0F82044D0F80C14D4F831
:10861000A040D2431B019BB202F00F020120884010
:10862000134304F1C0015A0013F4004F93B202D176
:108630006268024362600C348C42F4D1F0BDD0F821
:108640002014D0F80C04D1F8A0401B0100F1100157
:108650009BB202F00F0201208840134304F1C001D5
:108660005A0013F4004F93B202D162680243626071
:108670000C34A142F4D1F0BD02F1010C0CF0030C5A
:10868000B445A5D03A4403EBC202131893F8F11491
:1086900000299DD06319012283F80A2498E700BFBE
:1086A00004000010B8170020704700BF024B03EB16
:1086B000401090F825047047040000104368B0F89B
:1086C000502010B41A83EFF31182502383F31288E1
:1086D0004168446C0B6823EA0403C46C2343D2B2A0
:1086E0000B6082F31188D0E9074182680369126840
:1086F0001C605961D0E909415C60C46A9960B0F8B6
:108700006010DC600023D1625DF8044B0376704793
:10871000037D1F2B30B54FF02002046816D9A3F15A
:1087200020056168AA400A420FD00C4A002182F855
:10873000441541680A681F2B22F001020A604FF0BD
:10874000200206D9203B9A40E26030BD21689A4061
:10875000E9E702FA03F3A360F7E700BFB8170020C8
:108760004FF40063838170472DE9F04116F082FADF
:108770001F4F204E05464FF000087C68002C2ADD74
:1087800000231A4607EB0321013391F8F9109C42AC
:1087900042EA0102F6D142EA0804E4B29046736864
:1087A000C3F30803A3B9EFF311838BB917F042FEAB
:1087B000431BB3F5FA6F02DCB8F1000FDDD124B131
:1087C0000D4B93F845254F2A09D02046BDE8F0818E
:1087D00016F024FAECE744464FF00008DFE7B3F860
:1087E0004C250132A3F84C252046BDE8F08100BF9E
:1087F0000400001000ED00E0B8170020074BD0F88F
:10880000E4105B68D0F8F0205B1A9342C8BFC0F850
:10881000F030012380F81C3100207047001000E088
:108820004FF40063838170474FF400638381704786
:108830004FF40063838170474FF400638381704776
:108840007047012070470120704702681378012BA0
:10885000134B06D192F90420282101FB0232527FEA
:10886000DAB993F8552593F85415120142EA01320A
:1088700093F8561542EA1112C3F8502593F858257B
:1088800093F85715120142EA013293F8591542EA5A
:108890001112C3F85C25012070470020704700BF0B
:1088A000B81700202DE9F047DFF87C81D8F85C5537
:1088B000B8F86025B8F86695C2EB25135200C2EBF4
:1088C000E502B8F962556A4303FB03F5B8F964356C
:1088D0002D135D43AD1305EBE225B8F96A35C8F8F1
:1088E00078550E46A5F5FA31074681FB010C4FEA93
:1088F000E37E03FB0CF200FB0E22A3FB003E96443A
:10890000B8F9682582FB01421B0A120343EA0E6391
:1089100042EA145224031B1942EB2E2202F50042B4
:10892000A3FB093E09FB02EE4FEAEE734FEA6E022B
:1089300053EA6E0E4FF000046BD0B8F970954FEA11
:10894000E97E09FB0CFC00FB0ECCA9FB00908444E3
:10895000B8F96E0580FB01E148044FEA4E4111EB86
:108960000909D8F8501540EADE304CEB0000C1F59B
:10897000801C0CF0004AB8F96C1514EB09044AEAA3
:108980005C0A4FEACC7C00EBC10140F63549BCEBF8
:1089900004006AEB010AA0FB090109FB0A114CF073
:1089A000F3FBB8F976454FEA613E430B43EAC14316
:1089B00004FB0EF24FEAE47C03FB0C2CA4FB034205
:1089C000624404FB0EFE03FB02EEA4FB0343B8F972
:1089D00074259E44640E44EACE1414EB000C02FB92
:1089E00001F34FEAE274814641EB6E6EA2FB092966
:1089F00004FB00314944D40C44EA41341CEB040428
:108A0000B8F972354EEBE141240A44EA016404EB03
:108A100003140FB1240A3C6026B105EB85058035AF
:108A20002D123560BDE8F087B81700203D4B9FED53
:108A30003E4A93F87D1593F87C0593F87E2593F8CC
:108A40007FC5090201EB00410A44090248BF02F157
:108A50007F4207EE902AB3F9982593F8800593F8A2
:108A6000811506EE102AB3F99425F8EEE77A06EEA2
:108A7000902A67EE847AB3F99625B8EEC66AF8EEC6
:108A8000E66A0002E7EE866A00EB0C40014406EE5F
:108A9000102AB3F9922505EE102AD3F88C2500028E
:108AA00007EE102AB3F9902548BF01F17F41F8EE97
:108AB000C75A04EE902A07EE101AD3F88825B8EEAC
:108AC000C66AB8EEC55AE6EEA75A012006EE902A0D
:108AD000B8EEC77AA7EE865AB3F98625B3F984357E
:108AE00027EE047AF8EEE44AB8EEE66A06EE902A3B
:108AF000A7EE246AE5EE075AF8EEE66A05EE103AAC
:108B000026EE877AB8EEC55AF6EE004AF0EE466ACF
:108B1000E7EEA56A054BA5EE247AC3ED066A83ED60
:108B2000077A7047B8170020082184363C1D0020C2
:108B300030B10A4BD3ED067AFDEEE77AC0ED007A4C
:108B400051B1064B9FED067AD3ED077A67EE877A2F
:108B5000FDEEE77AC1ED007A704700BF3C1D0020B2
:108B60000000C842704700BF0120704701207047D5
:108B7000704738B500224E21054614F041F81524FF
:108B8000962017F07DFEF521284614F06FF8422854
:108B900007D0472807D0013C14F0FF04F0D120464D
:108BA00038BD0C24FBE70D24F9E738B580226B2192
:108BB000044614F025F8642017F062FEF5212046E3
:108BC00014F054F80546012017F056FC682D1BD10F
:108BD0008C21204614F04AF818280DD8142834BFE8
:108BE0000025032520460722682114F009F8642097
:108BF00017F046FE284638BDA0F15403DBB2072B20
:108C000034BF03250025EDE70025F3E708B5F5217E
:108C100014F02CF8702818D008D8422817D047280C
:108C200017D0122814BF0020082008BDAC2812D08D
:108C300006D800F0FD00712814BF00200620F4E7DC
:108C4000AF2814BF00200920EFE70520EDE70C2036
:108C5000EBE70D20E9E70720E7E700BF024B002024
:108C600083F8A405704700BFB817002038B590F806
:108C70002820012A04464FF0000307D0427F5AB152
:108C800003F00100607780F0010038BD406A02689F
:108C9000117B69B9637F0BB9012038BD094D0A49C1
:108CA000022305F5B56213F083FF95F8A935E7E7D0
:108CB000516A19B1884201D0002038BD136A002BD7
:108CC000E8D0F9E7B81700208801002038B590F8FF
:108CD0002810427F012904461DD022BB012038BD47
:108CE000596A09B1884217D11B6AABB9002AF5D07D
:108CF0000E4D0F49022305F5B56213F059FF95F8A3
:108D0000A93503F0010363771A46002BE6D094F8E7
:108D100028100129F7D1606A0368197B0029DFD187
:108D2000002ADBD0E4E70023EBE700BFB817002000
:108D300088010020F0B511F0010583B00AD190F848
:108D40002860012E044607D0C368B3F1807F01D9A3
:108D50000123237703B0F0BD0A4B476AD3F8AC0573
:108D600013F0BAF8E368B880B3F1807FF2D9B72185
:108D70008DF80410267733462A46384601A913F0A9
:108D800017FFE7E7B817002001234377002070475B
:108D9000D0E90B2108B583690B4483610AB1084609
:108DA0009047002008BD00BF436A1B681B6A5B68D0
:108DB0005B78024613F0010008BF5077704700BF90
:108DC000C2628161704700BF704700BF04307047C6
:108DD0000C4B93F8B425D3F8B0150244D2B283F803
:108DE000B42593F8B42508441206C3F8B00505D598
:108DF00093F8B42582F0800283F8B425024B012257
:108E00009A707047B817002088010020122301488B
:108E10000B8070478C010020042301480B807047B1
:108E2000A00100202048D0F8E837D0F8EC2730B572
:108E30009B184FF01A040C8001D11C4830BD1B4A0E
:108E4000D0F8EA174FF0000E10467546B3F1204FE8
:108E50004FEA137C0CF130040EF1020E2ABF0CF124
:108E6000370C847080F802C0BEF1100FC5704FEA55
:108E7000031300F10200E9D100200446B1F1204FB4
:108E80004FEA117303F1300C00F102002ABF3733AF
:108E900082F812C093740828D4744FEA011102F1C9
:108EA0000202EBD1014830BD00F0FF1FA4010020F9
:108EB000094A92F8B535D2F8B82503F001031AB182
:108EC00023B9136892881A83002070471368928828
:108ED0005A830020704700BFB81700204FF400707D
:108EE000034B1060D3F8D0350B600020704700BFF3
:108EF000B8170020002070470120704701207047FC
:108F000000207047164BD0F8E0105A6810B50446A0
:108F1000D0F8D80071B1131A99420BDC94F8D03014
:108F2000C4F8D820012B10D0D4F8D4300133C4F8C1
:108F3000D43010BDD4F8E430C4F8D8200344C4F8C9
:108F4000DC3094F8D030012BEED104F1E801201D83
:108F500013F066FDD4F8D4300133C4F8D43010BD1A
:108F6000001000E02DE9F04F836893B0044613B180
:108F70001A689B885383B64B5B68C3F30803002BC6
:108F800040F04081EFF31183002B40F03B81B14B67
:108F90004FF0E025D3F80016A869D3F800268A42DE
:108FA000F8D1D3F80C168842F4D8D3F808664FF4F9
:108FB0007A7505FB06F1091AB1FBF6F105FB021102
:108FC000A34E4FF0E0204FF47A754FF0100C0127BC
:108FD0007268C2F30802002A40F0C780EFF31182E2
:108FE000002A40F0C280D3F80086D0F818E0D3F809
:108FF00000269045F7D1D3F80C269645F3D8D3F840
:10900000089605FB09F2A2EB0E02B2FBF9F205FB92
:109010000822521AB2F57A7FDAD3A26812B1116827
:1090200092880A838A484FF00A0B10254FF0E021FE
:109030004FF47A7C4268C2F30802002A40F0B780FD
:10904000EFF31182002A40F0B280D3F80026D1F865
:109050001880D3F80066B242F7D1D3F80C66B04559
:10906000F3D8D3F808960CFB09FEAEEB080EBEFB56
:10907000F9FE0CFB02EE4268C2F30802002A54D14A
:10908000EFF31182002A50D1D3F800668F69D3F82C
:1090900000269642F8D1D3F80C269742F4D8D3F89C
:1090A00008A60CFB0AF2D21BB2FBFAF20CFB06225A
:1090B000A2EB0E02B2F57A7FDDD3BBF1010BB9D181
:1090C0002368ADF804B05A6A2AB1944203D0002054
:1090D00013B0BDE8F08F1B6A002BF8D180200DF192
:1090E00003018DF80300029101A80221CDE90801D6
:1090F000002000210122CDE90C0102A92046CDE982
:109100000332CDE906338DF814308DF828200B9307
:109110000E938DF83C20109313F082FC23685A6A5A
:10912000002A68D094425AD0FEE7EFF3118985F304
:1091300012888F690A69D20303D50122C3F8042675
:109140008F69D3F80026D3F804665FFA89F989F3AA
:10915000118806EB0208D3F808660CFB06F2D21B56
:10916000B2FBF6F20CFB0822A2E7EFF311828CF3BC
:109170001288D0F81880D0F810E01EF4803F03D099
:10918000C3F80476D0F81880D3F80096D3F804E634
:10919000D2B282F31188CE44D3F8089605FB09F2C7
:1091A000A2EB0802B2FBF9F205FB0E2231E7EFF366
:1091B000118E85F31288D1F818800A69D60304D578
:1091C0000122C3F80426D1F81880D3F80096D3F80A
:1091D00004265FFA8EFE8EF311884A4441E71A6A2C
:1091E000002AFCD19DF80530242B14BF00200F204D
:1091F00013B0BDE8F08F1A6A002AF3D01A6A002A69
:10920000F9D1EFE7EFF31181102383F312884FF0C8
:10921000E0229069136913F4803F0E4B03D00120C4
:10922000C3F804069069D3F80056D3F80426C9B2EF
:1092300081F31188D3F8086651194FF47A7505FB4C
:1092400006F2121AB2FBF6F205FB0121B8E600BFE6
:1092500000ED00E0B817002010B504460E49D0F824
:10926000D83094F8D020D0F8E40049680344012AAB
:10927000C4E9361305D0D4F8D4300133C4F8D4305F
:1092800010BD04F1E801201D13F0CAFBD4F8D4305E
:109290000133C4F8D43010BD001000E070B5866909
:1092A00096F8DC30012B8AB0054629D0023B012B11
:1092B00031D8D6F89C301D4C8C221A700FCCEC465D
:1092C000ACE80F00D6F89C300093D6F8A03001939C
:1092D0000FCCACE80F0094E80300AB698CE8030006
:1092E00003F11000694613F09BFBAA691369596AE0
:1092F000103299B18A4200D0FEE71A6A002AFCD1E6
:10930000D6F8A030B3F90220EA81B3F904202A820A
:10931000B3F906306B8201200AB070BD1A6A002AC8
:10932000EED01A6A002AF9D1EAE700BFFC6B050803
:1093300070B5214B214C94B0CDE900430223029338
:109340001F4B04930546231D012205930023CDE9FD
:109350000632CDE90E33CDE910330B9313932B7FF7
:10936000406A8DF80C20002B14BF052304230C93B6
:10937000144B0993A4F108030A930E468DF820209C
:109380008DF834208DF8482012F098FD2B7F8BB19A
:10939000330E04F8073C063C320C330A227063702B
:1093A000A670686A694613F03BFB686A12F086FD96
:1093B00014B070BD073CEFE7C81D0020C8010020B5
:1093C000A98D0008898D000810B5044694B050227C
:1093D000064968464DF05CFB606A694613F020FB65
:1093E000606A12F06BFD14B010BD00BF246C05085C
:1093F0002DE9F0410446406A1E460F46904612F0A1
:109400005DFD237F002B40D02A4DA0690523C5F8C0
:109410008030030E85F8493005F14A039870020C3C
:10942000000A58701A703B68C5F88C300020D8F8D4
:109430000030C5F89430012E2363C5F8A4002CD069
:10944000022E20D1D8F80420C5F89C00796885F850
:109450009800C5F8A01013441749C5F8A8200120AA
:10946000236385F8AC00C5F8B010144B617F606AC7
:1094700003F11402002914BF1946114613F0D0FA63
:10948000E36A93B1206BBDE8F0810A4DA069042323
:10949000C5F8803005F14903C0E7074B85F89860AF
:1094A000C5E92730C5F8A800DFE7606A12F006FDBD
:1094B000E8E700BF88010020918D0008D801002056
:1094C00000B583B081610192049A0093C2620123C6
:1094D0006A4601A9FFF78CFF03B05DF804FB00BFEB
:1094E0002DE9F043044695B0406A334D0E4691464F
:1094F000984612F0E3FC314B0193314B049305F194
:10950000D0030093217F0223029305F1C8020123B7
:1095100000278DF80C3005920697002935D08DF87C
:1095200034308DF84830CDE90977330ECDE90E7728
:10953000CDE9107785F8C9300523CDF82C908DF84A
:109540002070CDF830801397CA350793330C1D4F28
:109550002B70330A6B70AE70D7F8AC05656A12F0E9
:10956000BBFC637FA8802BBB05A9284613F058FAE3
:10957000606A12F0A3FCD7F8180612F0ADFC636A1B
:109580009880404615B0BDE8F0838DF834308DF8F2
:1095900048300423CDE90911CDE90E11CDE91011B0
:1095A000CDF82C908DF82010CDF830801391C9356E
:1095B0000793CBE76946D8E788010020CC1D00203F
:1095C000A98D0008B8170020F0B5836993F8DC2056
:1095D000012A8BB005462ED0023A012A36D893F8DC
:1095E0004C21D3F89C101E4C62F07F030B708669EF
:1095F000D6F8A0305F1C0FCCEC46ACE80F00D6F8D4
:109600009C30CDE900370FCCACE80F0094E80300A4
:109610008CE80300694606F1100013F001FAAB690B
:109620001A69516A03F1100099B1884200D0FEE72F
:10963000116A0029FCD1D3F8A0305A8852BAEA81C5
:109640009A8852BA2A82DB885BBA6B8201200BB0FF
:10965000F0BD116A0029EED0116A0029F9D1EAE7BC
:10966000746C05082DE9F04190F8DC30D0F8A0606A
:10967000012B8AB0044653D016D8D0F89C304FF056
:10968000FF321A605A609A60DA60D0F8E030052242
:10969000B3F57A7FC0F8F02064D8032380F8DC307B
:1096A00001200AB0BDE8F081023B012BF8D890F808
:1096B0004D31D0F89C20424D63F07F031370D0F8F9
:1096C000A03000F110085F1C0FCDEC46ACE80F0095
:1096D000D4F89C30CDE900370FCDACE80F0095E809
:1096E00003008CE803006946404613F099F92369AA
:1096F0005A6A12B190452ED0FEE71A6A002AFCD1B0
:1097000073885BBAA4F8D030B3885BBAA4F8D230BF
:10971000F38801205BBAA4F8D4300AB0BDE8F08128
:1097200090F84C2190F84D319B1A5B100133DBB25D
:1097300006EB430236F813305BBAA0F8D0305388FA
:109740005BBAA0F8D23093885BBAA0F8D43001207D
:109750000AB0BDE8F0811A6A002AD1D01A6A002A3C
:10976000F9D1CDE703691A7B2AB35B691BB390F883
:10977000983003B390F84C31D0F89C20C4F8A40082
:1097800063F07F03137090F84C1190F84D31D0F8CE
:10979000A0200C48C4F804015B1A07330121C4F867
:1097A000FC30D4F89C3084F800110A44C4E93D32FE
:1097B00084F8DC1074E7022384F8DC3070E700BF23
:1097C000746C05088D8000082DE9F04190F81E3179
:1097D000032B92B0044650D090F8DC00D4F8A0706F
:1097E000012800F0E28016D8D4F89C3000221A60DC
:1097F0005A609A609A81D4F8E0300522B3F57A7FF6
:10980000C4F8F0202CD801250323284684F8DC3046
:1098100012B0BDE8F0810238012829D8D4F89C3074
:10982000804E92221A700FCE02AD0FC50FCE0FC51B
:1098300096E80300D4F89C3004F1100885E8030092
:10984000029302A9D4F8A0300393404613F0E8F83D
:1098500023695A6A002A00F08F80904578D0FEE78D
:1098600023691A7B002A40F0B980022384F8DC3097
:109870000125284612B0BDE8F0810023CDE906336A
:10988000CDE9083368490B9300F11006674B02914C
:109890000122039302A90A2330468DF814208DF883
:1098A0002820049313F0BCF823695A6A002A48D090
:1098B000964200D0FEE71A6A002AFCD15C4AB2F850
:1098C0001E36052B5FDDB2F92016D2F82006B2F95C
:1098D0002256B2F9242611F5004F77D0C4F8D000F3
:1098E000A4F8D4200125063B002BC2D07E238DF89E
:1098F0000630B0238DF807300DF1060302930023E4
:1099000003938DF81430069308930B930E931093E2
:109910000123049309938DF828308DF83C300DF124
:1099200007030022079302A900233046CDE90C2348
:1099300013F076F823695A6A002A2ED0964224D072
:10994000FEE71A6A002AB9D01A6A002AF9D1B5E7E7
:109950001A6A002AFCD1B7F90230A4F8D030B7F95E
:109960000430A4F8D230B7F90630A4F8D430012579
:10997000284612B0BDE8F0811A6A002AEBD01A6AB4
:10998000002AF9D1E7E70025AEE71A6A002A3FF47A
:1099900070AF1A6A002AF8D16BE71A6A002A3FF4FE
:1099A00068AF1A6A002AF8D163E7B7F90830A4F85B
:1099B000D030B7F90A30A4F8D230B7F90C30A4F897
:1099C000D4300546284612B0BDE8F08115F5004FA9
:1099D00084D112F5004F81D1002584E75B69002B0B
:1099E0003FF443AF94F89850002D3FF43EAFD4F8C5
:1099F0009C30C4F8A4408C221A70D4F8A020C4F87B
:109A0000F8200E2201230B49C4F8FC20D4F89C2036
:109A1000C4F80411C4F8F42084F8003184F8DC3070
:109A200027E700BFFC6B05085C020020D41D002066
:109A3000B8170020FD8700082DE9F041AB4C94F8E1
:109A40002636012B94B000F09D81022B00F03D8161
:109A5000002B00F05781A64D95F8DE305B060DF126
:109A60000E060DF10F0804A904F5C56740F1388111
:109A70004FF4F073A5F8E0300023CDE90833CDE9C9
:109A80000A3305930D93012385F8E2308DF81C30DD
:109A90008DF83030974BC4F8C03603F10213C4F888
:109AA000C43603F10213C4F8C83603F10213C4F834
:109AB000CC3603F10213C4F8D03603F102138E48FA
:109AC000C4F8D43603F10213C4F8D83603F10213F4
:109AD0000490C4F8DC36983820230693019112F0E4
:109AE0009FFFD4F8283601995A6A002A2FD0BA422B
:109AF00000D0FEE71A6A002AFCD100238DF80E3050
:109B000005938DF81C3008930A930D9310931293CC
:109B1000012306930B938DF830308DF8443095F87F
:109B2000DE308DF80F300022002374480191CDE91A
:109B30000E230496CDF8248012F072FFD4F8283654
:109B400001995A6A002A37D0BA4207D0FEE71A6A4A
:109B5000002AD2D01A6A002AF9D1CEE71A6A002A5E
:109B6000FCD1002305938DF81C3008930A930D93C4
:109B700010931293012306930B938DF830308DF8D8
:109B8000443094F8E0368DF80F30022300228DF82F
:109B90000E305A4801910023CDE90E230496CDF8EA
:109BA000248012F03DFFD4F8283601995A6A002A21
:109BB00037D0BA4207D0FEE71A6A002AD1D01A6A13
:109BC000002AF9D1CDE71A6A002AFCD100230593B7
:109BD0008DF81C3008930A930D9310931293012370
:109BE00006930B938DF830308DF8443094F8E136BD
:109BF0008DF80F30032300228DF80E303F4801917D
:109C00000023CDE90E230496CDF8248012F008FF3E
:109C1000D4F8283601995A6A002A3CD0BA4207D0B3
:109C2000FEE71A6A002AD1D01A6A002AF9D1CDE7D4
:109C30001A6A002AFCD194F8E236002B53D0012B8B
:109C400000F0B380032B14BFC723F7238DF80F3028
:109C5000002305938DF81C3008930A930D931093FD
:109C60001293012300228DF80E3006930B938DF88A
:109C700030308DF84430214804960023CDE90E237E
:109C8000CDF8248012F0CCFED4F828365A6AAAB156
:109C9000BA4207D0FEE71A6A002ACCD01A6A002A14
:109CA000F9D1C8E71A6A002AFCD1B5F8E0201448B7
:109CB000002114B0BDE8F0414CF04DBF1A6A002AF3
:109CC000F3D01A6A002AF9D1EFE7094D082385F885
:109CD000DE300DF10E060DF10F0804A904F5C5677D
:109CE0004FF4C373C6E64723B0E700BFB8170020A0
:109CF0008801002010011101781E0020E01D0020C5
:109D00009C1E00200122A0210DF10E0604F5C5675E
:109D1000CDE90463CDE908338DF80E10069204A94D
:109D20008DF81C300B928DF830208DF844200D9367
:109D30000022109312930DF10F0800233846CDE94D
:109D40000E230191CDF8288012F06AFED4F828364F
:109D500001995A6A12B1BA4220D0FEE71A6A002A63
:109D6000FCD19DF80F30144D03F00602022A03D0F7
:109D700003F00503012B1AD0082385F8DE304FF4D9
:109D8000C37377E60C4D482385F8DE300DF10E06DF
:109D90000DF10F0804A904F5C56769E61A6A002ADF
:109DA000DFD01A6A002AF9D1DBE787234EE7482380
:109DB00085F8DE305CE600BF88010020BC4B1B78D4
:109DC0000BB9012070472DE9F04FBA4DBA49D5F8CB
:109DD0000026BA4BA1FB02125209A3FB023A4FEA3A
:109DE000DA0A0AEB8A0AA2EB4A0A85B0B04A5FFA9D
:109DF0008AF3039302F5FD6302F5A1670193002343
:109E000007EB8A0A02F581699846A94BD3F8F03826
:109E1000434540F31781D9F81830D9F80460D3E9E5
:109E20003A34029314F026FF029B95F845C5029040
:109E30004FEA860E95F8C4080EF1085E04F18061C1
:109E40000EEB431E3939BCF14F0F0EEB81110EEBB7
:109E5000801301D1A5F84E05994240F26A811A6833
:109E6000002A00F05E811A6C002A00F07081D3F89D
:109E70008020002A00F06D81D3F8C02003F58073A4
:109E8000002AE9D1A3EB0E0E99424FEAAE1E40F232
:109E90005081A4EB0E0145294FF0000428BF452155
:109EA00003EB81119B46204626460DE01A6C002AE2
:109EB00040F0D080D3F88020002A40F0F680D3F81C
:109EC000C02003F580732AB9994206D91A68002A7E
:109ED000ECD04033994200F2C180112E344640F25A
:109EE0002C81D6F1150200F128817549029ED1F826
:109EF000E4309E45D5F8C83838BFC1F8E4E0F11A1F
:109F0000002919DB03F5F42303F590739E4288BF03
:109F1000029B6B4988BF0533C5F8C838684BD3F836
:109F2000E430052B86BF053BDBB2002385F8C4383F
:109F30004FF0FF33C1F8E43042B100FA02F2C4F14D
:109F40001404012000FA04F444EA02005D4BC0F35B
:109F5000C43203EB8202D2F8A01000F01F0203EB20
:109F60008202D2F8A02042EA0131C0F3441203EB8E
:109F70008202C0F3842003EB8000D2F8A03041EAD3
:109F80000311D0F8A03041EA032181EA112383EACA
:109F9000131303F00F030F2B40F0B180B1F5803F96
:109FA00080F0AD80BCF14F0F4FEA111104D1B5F82C
:109FB00048350133A5F848353D4AD2F8F037B1F5B8
:109FC000606F03F10103C2F8F03700F0D480019B09
:109FD000998197F858300398834210D0DAF8082016
:109FE0003B689B1A3B60DAF830207B689B1A7B60E9
:109FF0000023CAF80830CAF8303087F858003B68A8
:10A0000001333B60DAF808300133CAF808304FF604
:10A01000FF73994207D17B6801337B60DAF83030F7
:10A020000133CAF83030019B08F101081433B8F14C
:10A03000080F07F15C070AF15C0A019309F1200996
:10A040007FF4E3AE1A4A0123012082F8EE3805B00E
:10A05000BDE8F08F803399427FF63FAF5A469A1A97
:10A060009211541C184A82FB04B2A2EBE472012A3A
:10A07000B8BF0122904001241644013A04FA02F2CA
:10A0800010431C4622680AB3226C002A63D0D4F81D
:10A090008020002A61D0D4F8C02004F58074B2B1C9
:10A0A000A142EFD89B4623460EE7C03312E700BF1C
:10A0B00004000010B81700201F85EB51CDCCCCCC8C
:10A0C00088010020FC6B0508565555554034A142C7
:10A0D000E8D9E31A9B115A1C2F4B83FB02B3A3EB65
:10A0E000E273012BB8BF012398401E440122013BBB
:10A0F00002FA03F3184323469B462346E4E6BCF1E9
:10A100004F0F2CD0254AD2F8F0370133C2F8F03780
:10A11000224AD2F8EC370133C2F8EC374FF6FF7120
:10A1200057E74033A3EB0E0E99424FEAAE1E3FF6BF
:10A13000B0AE10B1013885F8C408BCF14F0F7FF400
:10A1400072AFB5F84A350133A5F84A356BE780336D
:10A1500098E6C03396E68034B9E7C034B7E7B5F87F
:10A1600048350E4A0133A5F84835D2F8F0370133A7
:10A17000C2F8F037CCE795F8E13403EB430305EB85
:10A18000C303434493F8F1340D2B7FF420AF019ABD
:10A19000802393771DE700BF5655555504000010E6
:10A1A00010B504464BF0FCFF81B22046BDE81040DC
:10A1B000FEF7E2B92DE9F0411E4B93F8E02493F845
:10A1C000E1349A422FD11C4F7D68002D12DD3846B4
:10A1D000002410F8086BA046013416B1037E012B51
:10A1E0001CD002691368AC4243F0010300F5807093
:10A1F0001360F1D114F03EFDD7F8F448002C0BDDCC
:10A200000E4A02EBC404116893888889083203431C
:10A210009BB294428B81F6D1BDE8F08180F8F0804A
:10A22000FEF74CFADDE748F0ABFF0028CBD1BDE8E4
:10A23000F08100BFB817002004000010FC080010D7
:10A2400010B57D4C94F8E02494F8E1349A4240F043
:10A2500099817A4B93F81829002A00F0EC8093F842
:10A260001C39002B40F0EC80D4F8CC18088820F082
:10A2700080000004000C0880B4F8D008C862088888
:10A2800080B240F0800008804B62B1F80CC0B4F896
:10A29000E00840EA0C0080B2012A8881A4F8E03886
:10A2A00000F0C980D4F8E418088820F08000000489
:10A2B000000C0880B4F8E808C862088880B240F052
:10A2C000800008804B62B1F80CC0B4F8F80840EA8E
:10A2D0000C0080B2022A8881A4F8F83800F0AB8024
:10A2E000D4F8FC18088820F080000004000C0880D6
:10A2F000B4F80009C862088880B240F08000088085
:10A300004B62B1F80CC0B4F8100940EA0C0080B2FE
:10A31000032A8881A4F8103900F08D80D4F814192C
:10A32000088820F080000004000C0880B4F81809A8
:10A33000C862088880B240F0800008804B62B1F8A3
:10A340000CC0B4F8280940EA0C0080B2042A8881C5
:10A35000A4F828396FD0D4F82C19088820F0800090
:10A360000004000C0880B4F83009C862088880B284
:10A3700040F0800008804B62B1F80CC0B4F840098E
:10A3800040EA0C0080B2052A8881A4F8403952D0F6
:10A39000D4F84419088820F080000004000C0880DC
:10A3A000B4F84809C862088880B240F0800008808C
:10A3B0004B62B1F80CC0B4F8580940EA0C0080B206
:10A3C000062A8881A4F8583935D0D4F85C19088851
:10A3D00020F080000004000C0880B4F86009C86216
:10A3E000088880B240F0800008804B62B1F80CC051
:10A3F000B4F8700940EA0C0080B2072A8881A4F8FA
:10A40000703918D0D4F87429B4F87809118821F07B
:10A4100080010904090C1180D0621088B4F88819F1
:10A4200080B240F08000108053629089014389B26D
:10A430009181A4F8883910BDB817002004000010DD
:10A44000D4F8D438B4F8D81859601968D4F8CC08BE
:10A4500041F00101196040F20D33A0F848308189C4
:10A4600089B241F48071012A8181E4D0D4F8EC18DA
:10A47000B4F8F0084860086840F001000860D4F8BB
:10A48000E408A0F84830818989B241F48071022A39
:10A490008181D0D0D4F80419B4F80809486008685C
:10A4A00040F001000860D4F8FC08A0F84830818929
:10A4B00089B241F48071032A8181BCD0D4F81C197F
:10A4C000B4F820094860086840F001000860D4F83A
:10A4D0001409A0F84830818989B241F48071042AB6
:10A4E0008181A8D0D4F83419B4F8380948600868D4
:10A4F00040F001000860D4F82C09A0F848308189A8
:10A5000089B241F48071052A818194D0D4F84C1924
:10A51000B4F850094860086840F001000860D4F8B9
:10A520004409A0F84830818989B241F48071062A33
:10A53000818180D0D4F86419B4F86809486008684B
:10A5400040F001000860D4F85C09A0F84830818927
:10A5500089B241F48071072A81813FF46CAFD4F84D
:10A560007C19B4F880294A600868D4F8742940F04E
:10A5700001000860A2F8483093899BB243F48073CD
:10A58000938110BD48F0FCFD00287FF462AE10BD41
:10A5900070B5104ED6F8F038002B19DD06F5816441
:10A5A000002505E0D6F8F038AB4204F120040FDDB9
:10A5B000237F0135002BF5D0E0680028F2D0217D03
:10A5C00013F04AF8D6F8F038AB4204F12004EFDC7F
:10A5D000012070BD04000010F8B5037D85691F2BB4
:10A5E00004464DD90168A3F120024E682020904016
:10A5F000064234D010239340C860CB604B68D340F0
:10A60000DE0700F18380EFF31183502282F312887A
:10A610002A6C1168C9075AD4516889B271B9D5E951
:10A620000960864250D0AF690744D76073D9301AA9
:10A6300080B25060AE62002185F86410116841F06C
:10A640000101DBB2116083F3118895F86430002BAF
:10A6500044D1237D1F2B27D92168A3F120024C6808
:10A6600008209040044200D0C8604C68042000FAE2
:10A6700002F2224203D0203B00FA03F3CB60F8BD84
:10A680000268202016689840064219460ED0102114
:10A690009940906091601168D940C807B3D50121F5
:10A6A00001FA03F39360AEE72268194610680823A5
:10A6B0008B40184200D093601068042303FA01F124
:10A6C0000142DCD09160F8BD012285F86420DBB244
:10A6D00083F3118895F86430002BBAD095F87C305C
:10A6E000002BB6D195F8710013F02AFC2A6E9389DD
:10A6F00023F008031B0401211B0C938185F87C10B7
:10A700000028A6D0202112F0A7FFA2E7012303FA18
:10A7100002F2CA6077E72E69301A80B25060A962EF
:10A7200089E700BF2DE9F047037D02681F2B04462F
:10A7300008D95068A3F120052021A940014206D183
:10A74000BDE8F0871068202199400142F8D0BB494C
:10A75000BB4E4968C6F8201996F81C19D4F8189011
:10A76000DFF8E482F1B98C2101FB0981D1F888007E
:10A77000D1F8007105683868B1F88CC020F001008C
:10A780003860A98989B221EA0C01A9813178E9B937
:10A790001F2B40F2B580A3F1200120238B40D36012
:10A7A000BDE8F0878C2101FB0981D1F88810486948
:10A7B0000D68016821F001010160A98921F480710F
:10A7C0000904090CA98131780029E1D04FF08C0AE5
:10A7D0000AFB098ADAF80071384644F06FF9D6F8B6
:10A7E000283901228AF8D420002B00F0F5802A882D
:10A7F0008C2303FB098392B242F080022A80B3F8D3
:10A80000F4204FF0FF31E962002A7FD12A8CB3F89F
:10A81000F610B3F8F800B3F8FCC022F001021204FD
:10A82000120C2A84B3F8FA202B8B23F0F3031B04B9
:10A8300040EA0C101B0C0343288C9BB22B8383B281
:10A8400023F00A030B4343F001032B842B8B23F0EB
:10A850000C031B041B0C2B832B8B9BB21A432A83E8
:10A860008C2303FB09830022D3F8AC00C3F8A42097
:10A87000D3F8982039680243D3F8B0000243D3F8E4
:10A88000B4000243D3F8B8000243D3F8BC0002433B
:10A89000D3F8C0000243D3F8CC000243D3F8D00071
:10A8A00002436848084002433A60D3E9312079699D
:10A8B000024321F007010A437A61D3F8A8207A60A5
:10A8C000D3F89C20BA60D3F8A020FA60D3F8002116
:10A8D00016215160116841F001011160D3F8882000
:10A8E000B3F88C30126891890B439BB25349938122
:10A8F0004B68C6F82439237D22681F2B3FF64BAFE7
:10A90000202101FA03F39360BDE8F087042A33D0D5
:10A91000082A2A8C65D022F48052B3F8FC10B3F8D0
:10A92000F800B3F8F6C01204120C2A84090341EAB5
:10A930000020A98BB5F820E0B3F8FA2045F6FF73A4
:10A9400003EA0E0343EA0C3340F6FF4C0CEA010124
:10A950009BB2014343F4805389B2A9832B84AB8B10
:10A9600023F440631B041B0CAB83AB8B9BB243EA09
:10A9700002239BB2AB8373E7298CB3F8F820B3F8BA
:10A98000FC00B3F8F6C021F010010904090C298479
:10A990001202B3F8FA1042EA0032288B2B8C9BB2D9
:10A9A00023F0A00343EA0C1340F6FF4C0CEA00002E
:10A9B0009BB2024343F0100392B22A832B842B8B69
:10A9C00023F440631B041B0C2B832B8B9BB243EAA9
:10A9D00001239BB22B8343E714F04CF9C6F82809F6
:10A9E00005E722F480721204120CB3F8F600B3F8F3
:10A9F000F810B3F8FCC02A84B3F8FA20AB8B23F02C
:10AA0000F3031B0441EA0C111B0C0B4399B22B8C72
:10AA1000A9839BB223F4206343EA00239BB243F44F
:10AA200080732B84AB8B23F00C031B041B0CAB83B8
:10AA3000AB8B9BB21A43AA8312E700BF001000E061
:10AA4000040000103F801CF0B81700202DE9F04FE3
:10AA5000DFF80CB19BF8004087B024B901242046F0
:10AA600007B0BDE8F08F3B4ED6F8005614F002F95F
:10AA70009BF860390390002B00F0DE82364AA2FB7F
:10AA80000532364B5209A3FB0213DB0803EB8303A9
:10AA9000A2EB4303DAB204920BF5A16202EB83034B
:10AAA00000930BF5FD63019206F1E0040293002789
:10AAB000DBF82839039AD31A04D454F8082C9342AB
:10AAC000C0F26A82234A54F858AC256ADAF800606A
:10AAD0008C2303FB072393F8D430002B40F096819E
:10AAE000284643F0EBFF1B4A8C2303FB072300227D
:10AAF00083F8D4209AF805100C2914D8DFE811F057
:10AB000078011300130013007101130013001300E8
:10AB10007F011300130013000D00B38B23F40063B7
:10AB20001B041B0CB3832246304616F059FF9AF8DB
:10AB300005300C2B1ED8DFE813F04B011D001D0063
:10AB40001D0042011D001D001D0039011D001D00DA
:10AB50001D001500B81700201F85EB51CDCCCCCCC3
:10AB600004000010B38B23F400631B041B0C43F49C
:10AB70000063B383019B54F8342C54F8101C5C33ED
:10AB80000193009B5C330093029B1433029354F8AF
:10AB9000483C43F04003134354F8302C134354F81B
:10ABA0002C2C134354F8282C134354F8242C13430F
:10ABB00054F8202C1343402244F83C2C54F8142C15
:10ABC00013432A6822F07E6222F45F3222F470720C
:10ABD0000B4313432B6054E907316A690B4322F09E
:10ABE000070213436B6154F8383C6B6054F8443CE3
:10ABF000AB6054F8403CEB602B6843F010032B60D3
:10AC00009BF8603901379F4204F18C04FFF650AF86
:10AC1000012200218BF8EE28CBF82819002B3FF4F5
:10AC20001DAF9D4890F89010890700F1A081D0F8E1
:10AC30008810086849798A40018C92B289B221EA69
:10AC400002010184018C89B20A43012B02843FF482
:10AC500005AF914991F81C21970700F1A281D1F825
:10AC6000142110685479018C012289B2A24092B259
:10AC700021EA02010184018C89B20A43022B028479
:10AC80003FF4ECAE844991F8A821960700F1A28127
:10AC9000D1F8A02110685479018C012289B2A24018
:10ACA00092B221EA02010184018C89B20A43032B8A
:10ACB00002843FF4D3AE784991F83422950700F12D
:10ACC0009281D1F82C2210685479018C012289B22A
:10ACD000A24092B221EA02010184018C89B20A43A6
:10ACE000042B02843FF4BAAE6B4991F8C02294075A
:10ACF00000F18281D1F8B82210685479018C0122C8
:10AD000089B2A24092B221EA02010184018C89B287
:10AD10000A43052B02843FF4A1AE5F4991F84C230E
:10AD2000900700F17281D1F8442310685479018CA6
:10AD3000012289B2A24092B221EA02010184018C6F
:10AD400089B20A43062B02843FF488AE524991F837
:10AD5000D823920700F16281D1F8D023106854798A
:10AD6000018C012289B2A24092B221EA020101843F
:10AD7000018C89B20A43082B02847FF46FAE464AE5
:10AD800092F864349B0740F15281D2F85C2404238A
:10AD9000116850790A8C83409BB292B222EA030276
:10ADA0000A840A8C92B213430B8457E6B38B23F0C8
:10ADB00008031B041B0C43F00803B383DAE6338B50
:10ADC00023F400631B041B0C43F400633383D1E6BC
:10ADD000338B23F008031B041B0C43F0080333835D
:10ADE000C8E6338B23F400631B041B0C33839AE601
:10ADF000338B23F008031B041B0C338393E6B38BC4
:10AE000023F008031B041B0CB3838CE66B6834F837
:10AE1000542C1FFA83F8B389C8F116089BB223EAB1
:10AE20000203B8F1070FB3817FF65AAEDBF8F037B3
:10AE30000133CBF8F037A36A05939E4600225EF8F3
:10AE400004CB0121914660461DE0DEF800C0B9F157
:10AE5000140FACEB000321DC13F1080048BF03F131
:10AE60001700031109EB2019604603F1FF3C013183
:10AE700002FA03F3012202FA0CF2884542EA0302C5
:10AE80000EF1040E0AD38845DFD8C9F11503DEF8A8
:10AE900000004FF01509E8E7B8170020B9F1150FC9
:10AEA0005CD16848C2F38423C2F3441100EB8303EE
:10AEB00000EB8101D3F82031D1F820111B0243EAC5
:10AEC000011302F01F0100EB8101C2F3C43200EB59
:10AED0008202D1F82011D2F820210B4343EA023339
:10AEE00083EA132282EA121202F00F020F2A35D1EE
:10AEF000C3F30F134FF6FF7293422FD0B3F5606F79
:10AF000058D0029A93810198049990F858208A4267
:10AF100010D0009A91680268521A00990260096B79
:10AF20004268521A0099426000228A600A630499BA
:10AF300080F85810019900980A6801320A60826806
:10AF4000013282604FF6FF7293427FF4C9AD4B68C5
:10AF500001334B60036B01330363C1E5DBF8EC376E
:10AF60000133CBF8EC376FB14FF6FF73CBE7364ABE
:10AF7000D2F8882010685479018C0422A24089B24A
:10AF800092B25CE60599314858224BF081FDDAF81F
:10AF900000604FF6FF73B6E70024204607B0BDE817
:10AFA000F08F294AD2F8142110685479018C0422B8
:10AFB00089B25BE6244991F8E12402EB420201EBFD
:10AFC000C2023A4492F8F1240D2A9AD102998022C1
:10AFD0008A7798E71C4AD2F8A02110685479018C2E
:10AFE000042289B25BE6184AD2F82C221068547900
:10AFF000018C042289B26BE6134AD2F8B822106899
:10B000005479018C042289B27BE60F4AD2F844239A
:10B0100010685479018C042289B28BE60A4AD2F86E
:10B02000D02310685479018C042289B29BE6064B28
:10B03000D3F85C240123ABE601228BF8EE28CBF891
:10B0400028390CE5FC6B0508B8170020980800109B
:10B05000F8B590F871301C09013C052C0FD81B4E37
:10B0600006EB44020546B2F8A00103F00F0340FAD4
:10B0700003F2D20703D595F87C70012F01D001208F
:10B08000F8BD07FA03F3013B184034444AF0CCF80A
:10B0900094F8AC210E4C104454F8302004EBC0045A
:10B0A0001069A3881840EBD0EB6E002285F87C2055
:10B0B00093F821202046022112F0AEFC2A6E9389DB
:10B0C0009BB243F0080338469381F8BDFC6B05083A
:10B0D000442100202DE9F743064600F1100496486C
:10B0E00010F0FAFEB08296F8210144F23B33A6F844
:10B0F0004C31A0B30709013F052F00F00F0000F20B
:10B10000F280DFF84C8208EB4703B3F8A02142FA43
:10B1100000F515F001050FD0012303FA00F0013806
:10B12000104047444AF080F897F8AC31834D1844FA
:10B1300005EBC0052623EB803146814B41F80C3FDF
:10B14000284648F03DFF55B1AB88B3FA83F24FF083
:10B150000043D34003D07B490A6813430B6042F29B
:10B160001F53A6F84C3100227621204611F048FDED
:10B1700000224E21204611F043FD96F8D890724BE4
:10B18000B9F10C0F93F88D3C40F0AF80012B00F02B
:10B19000BC80022B15BF062503254FF4DC774FF446
:10B1A000786714BF4FF015084FF03F080122762151
:10B1B000204611F025FD42460C21204611F020FDCD
:10B1C00007F0FC020D21204611F01AFD2A0142EA87
:10B1D00017220E21204611F013FDB9F10C0F14BFF8
:10B1E0004FF006084FF015084FF002024FF07601BD
:10B1F000204615BF24274FF4DC770A25062511F0D9
:10B20000FFFC4FEA48020321204611F0F9FC07F049
:10B21000BC020421204611F0F3FC2A0142EA172265
:10B220000521204611F0ECFC00227621204611F089
:10B23000E7FCFF225221204611F0E2FC03221421F8
:10B24000204611F0DDFC00226321204611F0D8FCDD
:10B2500008226521204611F0D3FCE421204611F09C
:10B2600005FD00F0EF0040F060026421204611F07F
:10B27000C7FCCD21204611F0F9FC00F03F0040F062
:10B2800040024D21204611F0BBFC0F224E212046EA
:10B2900011F0B6FC012015F0F3FA96F8DB30002B24
:10B2A00045D096F82031013343F00103B3FA83F31C
:10B2B000C3F11F03032B3ADC244AD25C02F00F02D5
:10B2C0004F212046019211F09BFC0F2015F0D8FA77
:10B2D0002046019A502111F093FC0F2003B0BDE8E5
:10B2E000F04315F0CDBA002526E7022B13D0032B2F
:10B2F00017D0012B15BF0A2508252427902714BF36
:10B300004FF006084FF00C0850E704254FF4C067D3
:10B310004FF027084AE706254FF4DC774FF0150871
:10B3200044E704254FF4AC674FF025083EE70023BF
:10B3300086F8DB300622C1E700366E01442100208A
:10B34000058F0008003C0140B81700201CE20508EA
:10B35000FC6B05082DE9F04144F23B33054600F152
:10B360001006A0F84C3190F82101A0B30709013F65
:10B37000052F00F00F0000F29A80DFF8508108EBF3
:10B380004703B3F8A02142FA00F414F001040FD0EF
:10B39000012303FA00F001381040474449F044FF0C
:10B3A00097F8AC31464C184404EBC0042623E380E4
:10B3B0002946444B41F80C3F204648F001FE54B169
:10B3C000A388B3FA83F24FF00043D34003D03E4941
:10B3D0000A6813430B6095F8D830072B69D195F8AC
:10B3E0001D310224002B66D1274680226B21304676
:10B3F00049F0B2FC642015F043FA07226821304678
:10B4000049F0AAFC642015F03BFA00226B2130467B
:10B4100049F0A2FC642015F033FA01226B2130467A
:10B4200049F09AFC0F2015F02BFAFA001B21304648
:10B4300049F092FC0F2015F023FAE2001C2130465F
:10B4400049F08AFC0F2015F01BFA95F8DB30052B2C
:10B4500033D895F81E31032B2FD195F8233103F003
:10B46000FB03022B0CBF002207221A21304649F0B1
:10B4700073FC0F2015F004FA95F8202119213046AD
:10B4800049F06AFC642015F0FBF9102237213046A0
:10B4900049F062FC0F2015F0F3F930460122382103
:10B4A00049F05AFCBDE8F0410F2015F0E9B900243D
:10B4B0007EE7032498E7032797E70022D5E700BF3C
:10B4C00044210020058F0008003C0140FC6B05086A
:10B4D00010B50446FFF73EFF1022A0186A2111F0B4
:10B4E0008FFB642015F0CCF9044810F0F5FCA08225
:10B4F000BDE81040012014F0BFBF00BF002D310196
:10B500002DE9F04F95B000230122CDE90532CDE9B8
:10B510000A328DF81C3008930D9310931293B623C2
:10B52000054600F110077E2190F81E018DF80F30BE
:10B530000DF10F0300908DF80E108DF830208DF86E
:10B5400044200993002200230DF10E0604A9384679
:10B55000CDE90E23049611F063FA2B695A6A002A8A
:10B5600000F03C81974200D0FEE71A6A002AFCD125
:10B5700064239E4CDFF8788201959A464FF01009BB
:10B580004FF0E0224FF47A7C4FF0010BD8F80430F2
:10B59000C3F30803002B40F09687EFF31183002BD1
:10B5A00040F09187D4F800369069D4F800168B42A9
:10B5B000F8D1D4F80C168842F4D8D4F808160CFB4D
:10B5C00001FEAEEB000EBEFBF1FE0CFB03EED8F865
:10B5D0000430C3F30803002B40F03886EFF31183E7
:10B5E000002B40F03386D4F800569369D4F8001647
:10B5F0008D42F8D1D4F80C168B42F4D8D4F8081642
:10B600000CFB01F0C31AB3FBF1F30CFB0533A3EB06
:10B610000E03B3F57A7FDAD35346013B9A46B5D190
:10B62000019DAB6913B11A689B885383704B5B68AB
:10B63000C3F30803002B41F04784EFF31183002B81
:10B6400041F042844FF0E02ED4F80026DEF818C016
:10B65000D4F800369A42F7D1D4F80C369C45F3D88A
:10B66000A0EB0C03B3FBF1F34FF47A7101FB02334F
:10B67000DFF87C814FF0E0204FF47A7E4FF0100A23
:10B680004FF0010BD8F80420C2F30802002A40F062
:10B690009686EFF31182002A40F09186D4F80016C6
:10B6A000D0F818C0D4F800269142F7D1D4F80C266F
:10B6B0009445F3D8D4F808960EFB09F2A2EB0C02DD
:10B6C000B2FBF9F20EFB0122D21AB2F57A7FD9D37E
:10B6D000AB6913B11A689B881383DFF81481019555
:10B6E0004FF00A094FF0100A4FF0E0224FF47A7C35
:10B6F000BB46D8F80430C3F30803002B40F0F886AB
:10B70000EFF31183002B40F0F386D4F800369069F4
:10B71000D4F800168B42F8D1D4F80C168842F4D82D
:10B72000D4F808E60CFB0EF1091AB1FBFEF10CFB94
:10B730000311D8F80430C3F30803002B40F06785E9
:10B74000EFF31183002B40F06285D4F80006956971
:10B75000D4F800369842F8D1D4F80C369D42F4D88B
:10B76000D4F808760CFB07F35B1BB3FBF7F30CFB79
:10B7700000335B1AB3F57A7FDBD3B9F10109B8D195
:10B780000DF10F03CDE909390123019D06930B93B8
:10B790008DF830308DF844307C2300228DF80E3047
:10B7A00004A900235846CDE90E23CDE904698DF89C
:10B7B0000F908DF81C90CDF82090CDF83490CDF8F6
:10B7C0004090CDF8489011F02BF92B695A6A5F46EA
:10B7D000002A00F08F8093450CD0FEE71A6A002AF9
:10B7E0003FF4C6AE1A6A002AF8D1C1E6B8170020A5
:10B7F00000ED00E01A6A002AFCD1874B5B68C3F3B6
:10B800000803002B41F03C83EFF31183002B41F040
:10B8100037834FF0E020D4F800368169D4F8002651
:10B820009342F8D1D4F80C269142F4D8D4F808C643
:10B830004FF47A7000FB0CF2511AB1FBFCF100FBE3
:10B840000311DFF8D4814FF0E0204FF47A7E4FF0FF
:10B85000100A4FF0010BD8F80430C3F30803002B93
:10B8600040F08C85EFF31183002B40F08785D4F8EE
:10B870000026D0F818C0D4F800369A42F7D1D4F890
:10B880000C369C45F3D8D4F808960EFB09F3A3EBCD
:10B890000C03B3FBF9F30EFB02335B1AB3F57A7FAB
:10B8A000D9D30DF10F03099300238DF80F300593C1
:10B8B0008DF81C3008930A930D9310931293012373
:10B8C00006930B938DF830308DF8443059230022C5
:10B8D0008DF80E3004A900233846CDE90E230496D6
:10B8E00011F09EF82B695A6A002A00F08C8097426A
:10B8F00008D0FEE71A6A002A3FF47FAF1A6A002ACE
:10B90000F8D17AE71A6A002AFCD1434B5B68C3F38B
:10B910000803002B41F09082EFF31183002B41F0DC
:10B920008B824FF0E020D4F800368169D4F80026ED
:10B930009342F8D1D4F80C269142F4D8D4F808C632
:10B940004FF47A7000FB0CF2511AB1FBFCF100FBD2
:10B950000311DFF8C4804FF0E0204FF47A7E4FF0FF
:10B96000100A4FF0010BD8F80430C3F30803002B82
:10B9700040F06685EFF31183002B40F06185D4F829
:10B980000026D0F818C0D4F800369A42F7D1D4F87F
:10B990000C369C45F3D8D4F808960EFB09F3A3EBBC
:10B9A0000C03B3FBF9F30EFB02335B1AB3F57A7F9A
:10B9B000D9D3002305938DF81C3008930A930D9377
:10B9C00010931293012306938DF830308DF8443094
:10B9D000124B09935E238DF80D300DF10D03049386
:10B9E0004FF4A47300220B9304A900233846CDE939
:10B9F0000E2311F015F82B695A6A002A00F0948082
:10BA000097420DD0FEE71A6A002A3FF47EAF1A6A09
:10BA1000002AF8D179E700BF00ED00E0B06D05081D
:10BA20001A6A002AFCD1DFF83C8301954FF00A091D
:10BA30004FF0100A4FF0E0224FF47A7CBB46D8F862
:10BA40000430C3F30803002B40F01B85EFF3118390
:10BA5000002B40F01685D4F800369069D4F8001613
:10BA60008B42F8D1D4F80C168842F4D8D4F808E602
:10BA70000CFB0EF1091AB1FBFEF10CFB0311D8F817
:10BA80000430C3F30803002B40F0A383EFF31183CA
:10BA9000002B40F09E83D4F800069569D4F8003658
:10BAA0009842F8D1D4F80C369D42F4D8D4F80876F0
:10BAB0000CFB07F35B1BB3FBF7F30CFB00335B1AC8
:10BAC000B3F57A7FDBD3B9F10109B8D10DF10F03DA
:10BAD000CDE909390123019D8DF80F3006930B93B1
:10BAE0008DF830308DF84430592300228DF80E3017
:10BAF00004A900235846CDE90E23CDE904698DF849
:10BB00001C90CDF82090CDF83490CDF84090CDF831
:10BB1000489010F085FF2B695A6A5F46002A00F0B2
:10BB20009080934508D0FEE71A6A002A3FF47BAF65
:10BB30001A6A002AF8D176E71A6A002AFCD1894BE2
:10BB40005B68C3F30803002B41F04F81EFF31183CF
:10BB5000002B41F04A814FF0E020D4F80036816993
:10BB6000D4F800269342F8D1D4F80C269142F4D8A8
:10BB7000D4F808C64FF47A7000FB0CF2511AB1FBEE
:10BB8000FCF100FB0311DFF8DC814FF0E0204FF403
:10BB90007A7E4FF0100A4FF0010BD8F80430C3F34F
:10BBA0000803002B40F08A83EFF31183002B40F051
:10BBB0008583D4F80026D0F818C0D4F800369A420D
:10BBC000F7D1D4F80C369C45F3D8D4F808960EFB80
:10BBD00009F3A3EB0C03B3FBF9F30EFB02335B1A7F
:10BBE000B3F57A7FD9D3009B032B01F0B5810DF11A
:10BBF0000F030993002305938DF81C3008930A93D3
:10BC00000D9310931293012306930B938DF830300C
:10BC10008DF8443040238DF80E309B2300228DF8A0
:10BC20000F3004A900233846CDE90E23049610F006
:10BC3000F7FE2B695A6A002A00F08C80974208D0E0
:10BC4000FEE71A6A002A3FF47AAF1A6A002AF8D18E
:10BC500075E71A6A002AFCD1424B5B68C3F30803FC
:10BC6000002B41F05581EFF31183002B41F05081FF
:10BC70004FF0E020D4F800368169D4F800269342D2
:10BC8000F8D1D4F80C269142F4D8D4F808C64FF471
:10BC90007A7000FB0CF2511AB1FBFCF100FB0311AE
:10BCA000DFF8C0804FF0E0204FF47A7E4FF0100AAA
:10BCB0004FF0010BD8F80430C3F30803002B40F019
:10BCC0003D83EFF31183002B40F03883D4F8002636
:10BCD000D0F818C0D4F800369A42F7D1D4F80C3610
:10BCE0009C45F3D8D4F808960EFB09F3A3EB0C039C
:10BCF000B3FBF9F30EFB02335B1AB3F57A7FD9D3AA
:10BD00000DF10F030993002305938DF81C30089360
:10BD10000A930D9310931293012306930B938DF8BE
:10BD200030308DF8443041238DF80E30032300224B
:10BD30008DF80F3004A900233846CDE90E23049670
:10BD400010F06EFE2B695A6A002A00F09C80974220
:10BD50000AD0FEE71A6A002A3FF47EAF1A6A002A68
:10BD6000F8D179E700ED00E01A6A002AFCD18E4B89
:10BD70005B68C3F30803002B41F09781EFF3118355
:10BD8000002B41F092814FF0E020D4F80036816919
:10BD9000D4F800269342F8D1D4F80C269142F4D876
:10BDA000D4F808C64FF47A7000FB0CF2511AB1FBBC
:10BDB000FCF100FB0311DFF8F0814FF0E0204FF4BD
:10BDC0007A7E4FF0100A4FF0010BD8F80430C3F31D
:10BDD0000803002B40F09282EFF31183002B40F018
:10BDE0008D82D4F80026D0F818C0D4F800369A42D4
:10BDF000F7D1D4F80C369C45F3D8D4F808960EFB4E
:10BE000009F3A3EB0C03B3FBF9F30EFB02335B1A4C
:10BE1000B3F57A7FD9D394F88D3C013BDBB2022B8A
:10BE200000F28883614A134493F8FC321B0163F0EB
:10BE30003203DBB28DF80F300DF10F0309930023AD
:10BE400005938DF81C3008930A930D931093129369
:10BE5000012306930B938DF830308DF84430422344
:10BE600000228DF80E3004A900233846CDE90E23B8
:10BE7000049610F0D5FD2B695A6A002A00F08C80D8
:10BE8000974208D0FEE71A6A002A3FF470AF1A6A98
:10BE9000002AF8D16BE71A6A002AFCD1424B5B6892
:10BEA000C3F30803002B40F07C87EFF31183002BD2
:10BEB00040F077874FF0E020D4F800368169D4F85D
:10BEC00000269342F8D1D4F80C269142F4D8D4F845
:10BED00008C64FF47A7000FB0CF2511AB1FBFCF16A
:10BEE00000FB0311DFF8C0804FF0E0204FF47A7EB2
:10BEF0004FF0100A4FF0010BD8F80430C3F30803D9
:10BF0000002B40F07D82EFF31183002B40F078820C
:10BF1000D4F80026D0F818C0D4F800369A42F7D1E9
:10BF2000D4F80C369C45F3D8D4F808960EFB09F3E8
:10BF3000A3EB0C03B3FBF9F30EFB02335B1AB3F56F
:10BF40007A7FD9D30DF10F030993002305938DF860
:10BF50001C3008930A930D931093129301230693B8
:10BF60000B938DF830308DF8443043238DF80E302C
:10BF7000082300228DF80F3004A900233846CDE9AC
:10BF80000E23049610F04CFD2B695A6A002A00F02B
:10BF9000968097420CD0FEE71A6A002A3FF47EAFE3
:10BFA0001A6A002AF8D179E700ED00E0FC6B050879
:10BFB0001A6A002AFCD1C04B5B68C3F30803002B4C
:10BFC00040F02D86EFF31183002B40F028864FF0D0
:10BFD000E020D4F800268169D4F800369342F8D1E5
:10BFE000D4F80C269142F4D8D4F808C64FF47A70ED
:10BFF00000FB0CF2511AB1FBFCF100FB0311DFF85E
:10C00000B8824FF0E0204FF47A7E4FF0100A4FF0E4
:10C01000010BD8F80430C3F30803002B40F02B8148
:10C02000EFF31183002B40F02681D4F80036D0F8CE
:10C0300018C0D4F800269A42F7D1D4F80C366345DC
:10C04000F3D3D4F808960EFB09F3A3EB0C03B3FB70
:10C05000F9F30EFB02335B1AB3F57A7FD9D3009B59
:10C060000496032B0DF10F0309934FF00003059382
:10C070008DF81C3008930A930D93109312934FF090
:10C08000010306930B938DF830308DF844304FF058
:10C0900058038DF80E3000F03985042300228DF806
:10C0A0000F3004A900233846CDE90E2310F0B8FC68
:10C0B0002B695A6A5AB1974200F02884FEE71A6A3F
:10C0C000002A3FF478AF1A6A002AF8D173E71A6A97
:10C0D000002AFCD1784B5B68C3F30803002B40F0C7
:10C0E000FC83EFF31183002B40F0F7834FF0E02047
:10C0F000D4F800268169D4F800369342F8D1D4F8F8
:10C100000C269142F4D8D4F808C6DFF8ACE14FF41D
:10C110007A7000FB0CF2521A4FF0100AB2FBFCF2DC
:10C120004FF0010B00FB03224FF0E02C4FF47A702C
:10C13000DEF80430C3F30803002B40F05084EFF323
:10C140001183002B40F04B84D4F80036DCF81880C3
:10C15000D4F800169942F7D1D4F80C369845F3D8A4
:10C16000D4F8089600FB09F3A3EB0803B3FBF9F33B
:10C1700000FB01339B1AB3F57A7FD9D30DF10F037E
:10C180000993002305938DF81C3008930A930D93AF
:10C1900010931293012306930B938DF830308DF892
:10C1A000443053238DF80E300A2300228DF80F30CF
:10C1B00004A900233846CDE90E23049610F030FC84
:10C1C0002B695A6A002A00F03882974200F0B48145
:10C1D000FEE7EFF311858AF3128897691369D80394
:10C1E00003D50123C4F804369769D4F80036D4F88F
:10C1F0000406EDB285F31188D4F8085618440CFBF8
:10C2000005F3DB1BB3FBF5F30CFB003357E4EFF353
:10C2100011858AF3128897691369D80303D501231E
:10C22000C4F804369769D4F80036D4F80406EDB2A1
:10C2300085F31188D4F8085618440CFB05F3DB1B72
:10C24000B3FBF5F30CFB0033FFF793BAEFF3118167
:10C2500089F3128893691069C50344BFC4F804B612
:10C260009369D4F80006D4F80456C9B281F3118852
:10C270000544FFF7C3B9EFF311838AF31288D0F8AE
:10C2800018900269D20303D5C4F804B6D0F8189008
:10C29000D4F80026D4F804C6DBB283F311886244D4
:10C2A000D4F808C60EFB0CF3A3EB0903B3FBFCF3B5
:10C2B0000EFB0233CFE600BF00ED00E0EFF3118389
:10C2C0008AF31288D0F818900269D20303D5C4F813
:10C2D00004B6D0F81890D4F80026D4F804C6DBB21F
:10C2E00083F311886244D4F808C60EFB0CF3A3EB69
:10C2F0000903B3FBFCF30EFB023370E4EFF311838D
:10C300008AF31288D0F818900269D20303D5C4F8D2
:10C3100004B6D0F81890D4F80026D4F804C6DBB2DE
:10C3200083F311886244D4F808C60EFB0CF3A3EB28
:10C330000903B3FBFCF30EFB023368E5EFF3118353
:10C340008AF31288D0F818900269D20303D5C4F892
:10C3500004B6D0F81890D4F80026D4F804C6DBB29E
:10C3600083F311886244D4F808C60EFB0CF3A3EBE8
:10C370000903B3FBFCF30EFB0233BDE4EFF31183BF
:10C380008AF31288D0F818900269D20303D5C4F852
:10C3900004B6D0F81890D4F80026D4F804C6DBB25E
:10C3A00083F311886244D4F808C60EFB0CF3A3EBA8
:10C3B0000903B3FBFCF30EFB0233FFF76EBAEFF396
:10C3C00011828AF31288D0F818900169C90303D545
:10C3D000C4F804B6D0F81890D4F80016D4F804C6FF
:10C3E000D2B282F311886144D4F808C60EFB0CF275
:10C3F000A2EB0902B2FBFCF20EFB0122FFF764B9CB
:10C40000EFF311838AF31288D0F818900269D203EF
:10C4100003D5C4F804B6D0F81890D4F80026D4F8A0
:10C4200004C6DBB283F311886244D4F808C60EFB5D
:10C430000CF3A3EB0903B3FBFCF30EFB02337DE526
:10C44000EFF311838AF31288D0F818900269D203AF
:10C4500003D5C4F804B6D0F81890D4F80026D4F860
:10C4600004C6DBB283F311886244D4F808C60EFB1D
:10C470000CF3A3EB0903B3FBFCF30EFB0233FFF752
:10C4800094BAEFF311808AF31288D2F818E0136996
:10C49000DD0304D50123C4F80436D2F818E0D4F83B
:10C4A0000036D4F80416C0B280F31188D4F8080618
:10C4B0000B440CFB00F1A1EB0E01B1FBF0F10CFB06
:10C4C0000311FFF7DCBAEFF3118189F31288906949
:10C4D0001369DB0344BFC4F804B69069D4F800368E
:10C4E000D4F804E6C9B281F311887344FFF765B844
:10C4F000EFF311808AF31288D2F818E01369DD0394
:10C5000004D50123C4F80436D2F818E0D4F8003674
:10C51000D4F80416C0B280F31188D4F808060B448E
:10C520000CFB00F1A1EB0E01B1FBF0F10CFB0311D0
:10C53000FFF7FFB8CD237DE41A6A002AFCD1874BB0
:10C540005B68C3F30803002B40F06B82EFF31183A9
:10C55000002B40F066824FF0E020D4F8002681697D
:10C56000D4F800369342F8D1D4F80C268A42F4D39A
:10C57000D4F808C64FF47A7000FB0CF2511AB1FBE4
:10C58000FCF100FB0311DFF8D4814FF0E0204FF401
:10C590007A7E4FF0100A4FF0010BD8F80430C3F345
:10C5A0000803002B40F0FB81EFF31183002B40F0D8
:10C5B000F681D4F80026D0F818C0D4F800369A4294
:10C5C000F7D1D4F80C369C45F3D8D4F808960EFB76
:10C5D00009F3A3EB0C03B3FBF9F30EFB02335B1A75
:10C5E000B3F57A7FD9D30DF10F0309930023059397
:10C5F0008DF81C3008930A930D9310931293012326
:10C6000006930B938DF830308DF844307C238DF8F1
:10C610000E30022300228DF80F3004A90023384683
:10C62000CDE90E23049610F0FBF92B695A6A002A13
:10C6300000F08C80974208D0FEE71A6A002A3FF487
:10C640007EAF1A6A002AF8D179E71A6A002AFCD16B
:10C65000424B5B68C3F30803002B40F03482EFF3D6
:10C660001183002B40F02F824FF0E020D4F80026F9
:10C670008169D4F800369342F8D1D4F80C268A4266
:10C68000F4D3D4F808C64FF47A7000FB0CF2511AB8
:10C69000B1FBFCF100FB0311DFF8C0804FF0E0209C
:10C6A0004FF47A7E4FF0100A4FF0010BD8F80430A7
:10C6B000C3F30803002B40F05281EFF31183002BEA
:10C6C00040F04D81D4F80036D0F818C0D4F80026D8
:10C6D0009A42F7D1D4F80C366345F3D3D4F80896D0
:10C6E0000EFB09F3A3EB0C03B3FBF9F30EFB0233D0
:10C6F0005B1AB3F57A7FD9D30DF10F0309930023A9
:10C7000005938DF81C3008930A930D9310931293A0
:10C71000012306930B938DF830308DF844307D2340
:10C720008DF80E300E2300228DF80F3004A900235F
:10C730003846CDE90E23049610F072F92B695A6A37
:10C74000002A00F0C28097420AD0FEE71A6A002A47
:10C750003FF47EAF1A6A002AF8D179E700ED00E0D5
:10C760001A6A002AFCD1C04B5B68C3F30803002B94
:10C7700040F08681EFF31183002B40F081814FF070
:10C78000E020D4F800368169D4F800269342F8D12D
:10C79000D4F80C269142F4D8D4F808C64FF47A7035
:10C7A00000FB0CF2511AB1FBFCF100FB0311DFF8A6
:10C7B000B8824FF0E0204FF47A7E4FF0100A4FF02D
:10C7C000010BD8F80430C3F30803002B40F0A78016
:10C7D000EFF31183002B40F0A280D4F80036D0F89C
:10C7E00018C0D4F800269A42F7D1D4F80C369C45EC
:10C7F000F3D8D4F808960EFB09F3A3EB0C03B3FBB4
:10C80000F9F30EFB02335B1AB3F57A7FD9D3009BA1
:10C81000032B00F0288295F8213193B31E09013EC5
:10C82000052E03F00F0300F2FC87904F07EB460242
:10C83000B2F8A00140FA03F2D20740F1F2870122D8
:10C8400002FA03F3013B18403E4448F0EDFC96F831
:10C85000AC31874E874A184406EBC006294626238A
:10C86000F380304641F80C2F47F0AAFBB2884FF016
:10C870000043B2FA82F2D34003D07F490A681343DF
:10C880000B6022687D4BB3EB920F80F0C787B3EB50
:10C89000D20F80F0C087B3EB121F80F0CB87B3EBD1
:10C8A000521F80F0CF87B3EB921F80F0CE87B3EB9F
:10C8B000D21F80F0CD87B3EB122F34BF4FF48073BB
:10C8C0008023AB8215B0BDE8F08F1A6A002A3FF4CE
:10C8D0004AAF1A6A002AF8D145E7EFF31182102314
:10C8E00083F312884FF0E02399691869C00303D5D8
:10C8F0000121C4F804169969D4F80006D4F8043666
:10C90000D2B282F311880344FFF7FDBB1A6A002AF2
:10C910003FF4E0AB1A6A002AF8D1FFF7DBBBEFF374
:10C9200011838AF31288D0F818900269D20303D5D4
:10C93000C4F804B6D0F81890D4F80026D4F804C689
:10C94000DBB283F311886244D4F808C60EFB0CF303
:10C95000A3EB0903B3FBFCF30EFB023353E7EFF346
:10C9600011838AF31288D0F818900269D20303D594
:10C97000C4F804B6D0F81890D4F80026D4F804C649
:10C98000DBB283F311886244D4F808C60EFB0CF3C3
:10C99000A3EB0903B3FBFCF30EFB0233A8E6EFF3B2
:10C9A00011838AF31288D0F818900269D20303D554
:10C9B000C4F804B6D0F81890D4F80026D4F804C609
:10C9C000DBB283F311886244D4F808C60EFB0CF383
:10C9D000A3EB0903B3FBFCF30EFB0233FFE5EFF31C
:10C9E00011838AF31288DCF81890DCF81010C90360
:10C9F00003D5C4F804B6DCF81890D4F80016D4F8BF
:10CA00000486DBB283F311884144D4F8088600FB26
:10CA100008F3A3EB0903B3FBF8F300FB0133FFF7C3
:10CA2000A9BBEFF31182102383F312884FF0E023A8
:10CA300098691969C90303D50121C4F804169869D6
:10CA4000D4F80016D4F80436D2B282F31188D4F8A0
:10CA500008C64FF47A720B4402FB0CF1091AB1FBC1
:10CA6000FCF102FB03118EE500ED00E0FC6B050814
:10CA70004421002059920008003C01408096980013
:10CA8000EFF31182102383F312884FF0E0239869AB
:10CA90001969C90303D50121C4F804169869D4F8AB
:10CAA0000016D4F80436D2B282F31188D4F808C63E
:10CAB0004FF47A720B4402FB0CF1091AB1FBFCF142
:10CAC00002FB031173E6EFF31182102383F3128844
:10CAD0004FF0E02398691969C90303D50121C4F80F
:10CAE00004169869D4F80016D4F80436D2B282F34A
:10CAF0001188D4F808C64FF47A720B4402FB0CF18B
:10CB0000091AB1FBFCF102FB0311C5E50223002267
:10CB10008DF80F3004A900233846CDE90E230FF01D
:10CB20007FFF2B695A6A002A72D0974200D0FEE735
:10CB30001A6A002AFCD1BF4B5B68C3F30803002BC1
:10CB400040F07C83EFF31183002B40F077834FF0AC
:10CB5000E020D4F800368169D4F800269342F8D159
:10CB6000D4F80C268A42F4D3D4F808C6DFF8C4827D
:10CB70004FF47A7000FB0CF2521AB2FBFCF200FB8D
:10CB80000322D8F80430C3F308034FF0E0204FF439
:10CB90007A7C4FF0100A4FF0010B1BBBEFF31183AF
:10CBA00003BBD4F80016D0F81890D4F80036994298
:10CBB000F7D1D4F80C364B45F3D3D4F808E60CFB88
:10CBC0000EF3A3EB0903B3FBFEF30CFB01339B1A3B
:10CBD000B3F57A7FBFF4D2AAD8F80430C3F30803C0
:10CBE000002BDBD0EFF311838AF31288D0F8189072
:10CBF0000169C90303D5C4F804B6D0F81890D4F875
:10CC00000016D4F804E6DBB283F311887144D4E74C
:10CC10001A6A002A8FD01A6A002AF9D18BE7EFF33B
:10CC20001182102383F312884FF0E0239869196969
:10CC3000C90303D50121C4F804169869D4F8001675
:10CC4000D4F80436D2B282F31188D4F808C64FF46F
:10CC50007A720B4402FB0CF1091AB1FBFCF102FBE6
:10CC60000311FFF7CCB90DF10F03099300230593CE
:10CC70008DF81C3008930A930D931093129301239F
:10CC800006930B938DF830308DF844307E238DF869
:10CC90000E30B02300228DF80F3004A9002338464F
:10CCA000CDE90E2304960FF0BBFE2B695A6A1AB128
:10CCB000974200F0A785FEE71A6A002AFCD15D4B77
:10CCC0005B68C3F30803002B40F06F85EFF311831B
:10CCD000002B40F06A854FF0E020D4F800368269DE
:10CCE000D4F800168B42F8D1D4F80C168A42F4D846
:10CCF000D4F808064FF47A7101FB00F6B61AB6FBB9
:10CD0000F0F601FB0366DFF82C81D8F80430C3F39A
:10CD100008034FF0E0214FF47A774FF0100E4FF0F8
:10CD2000010C0BBBEFF31183F3B9D4F8002688692B
:10CD3000D4F800369342F8D1D4F80C269042F4D8B7
:10CD4000D4F8089607FB09F2121AB2FBF9F207FBB6
:10CD500003239B1BB3F57A7FBFF45DADD8F8043095
:10CD6000C3F30803002BDDD0EFF311838EF3128899
:10CD700088690A69D20302D5C4F804C68869D4F860
:10CD80000096D4F80426DBB283F311884A44D4F821
:10CD9000089607FB09F31B1AB3FBF9F307FB0233F1
:10CDA000D7E7EFF31182102383F312884FF0E023CB
:10CDB00098691969C90303D50121C4F80416986953
:10CDC000D4F80016D4F80436D2B282F31188D4F81D
:10CDD00008C64FF47A720B4402FB0CF1091AB1FB3E
:10CDE000FCF102FB0311FFF77DB8EFF31182102372
:10CDF00083F312884FF0E02398691969C90303D5BA
:10CE00000121C4F804169869D4F80016D4F8043641
:10CE1000D2B282F31188D4F808C64FF47A720B4468
:10CE200002FB0CF1091AB1FBFCF102FB0311FEF746
:10CE3000AABE00BF00ED00E0EFF31182102383F3E0
:10CE400012884FF0E02398691969C90303D50121BD
:10CE5000C4F804169869D4F80016D4F80436D2B28F
:10CE600082F31188D4F808C64FF47A720B4402FB9F
:10CE70000CF1091AB1FBFCF102FB0311FEF769BDCD
:10CE8000EFF31182102383F312884FF0E0239869A7
:10CE90001969C90303D50121C4F804169869D4F8A7
:10CEA0000016D4F80436D2B282F31188D4F808C63A
:10CEB0004FF47A720B4402FB0CF1091AB1FBFCF13E
:10CEC00002FB0311FEF7BDBCEFF31182102383F3C5
:10CED00012884FF0E02399691869C00303D5012136
:10CEE000C4F804169969D4F80006D4F80436D2B20E
:10CEF00082F31188D4F808C61A184FF47A7000FB30
:10CF00000CF35B1AB3FBFCF300FB0233FEF7B0BB80
:10CF1000EFF31182102383F312884FF0E023986916
:10CF20001969C90303D50121C4F804169869D4F816
:10CF30000016D4F80436D2B282F31188D4F808C6A9
:10CF40004FF47A720B4402FB0CF1091AB1FBFCF1AD
:10CF500002FB0311FEF7A4BE0DF10F03099300239A
:10CF60008DF80F3005938DF81C3008930A930D93BC
:10CF700010931293012306930B938DF830308DF8A4
:10CF80004430482300228DF80E3004A9002338468F
:10CF9000CDE90E2304960FF043FD2B695A6A1AB1AE
:10CFA000974200F02684FEE71A6A002AFCD1AF4BB4
:10CFB0005B68C3F30803002B40F0D383EFF31183C6
:10CFC000002B40F0CE834FF0E020D4F80036826989
:10CFD000D4F800168B42F8D1D4F80C168A42F4D853
:10CFE000D4F808064FF47A7101FB00FCACEB020C9C
:10CFF000BCFBF0FC01FB03CCDFF870824FF0E022B9
:10D000004FF47A7E4FF0100A4FF0010BD8F804303D
:10D01000C3F30803002B40F0F480EFF31183002BDF
:10D0200040F0EF80D4F800369169D4F800068342CE
:10D03000F8D1D4F80C068142F4D8D4F808960EFB47
:10D0400009F0411AB1FBF9F10EFB0313A3EB0C033A
:10D05000B3F57A7FDAD30DF10F030993002305931B
:10D060008DF81C3008930A930D93109312930123AB
:10D0700006930B938DF830308DF8443049238DF8AA
:10D080000E30802300228DF80F3004A9002338468B
:10D09000CDE90E2304960FF0C3FC2B695A6A002ACF
:10D0A00000F0A780974224D0FEE7EFF3118210230F
:10D0B00083F312884FF0E02398691969C90303D5F7
:10D0C0000121C4F804169869D4F80016D4F804367F
:10D0D000D2B282F31188D4F808C64FF47A720B44A6
:10D0E00002FB0CF1091AB1FBFCF102FB0311FEF784
:10D0F00062BE1A6A002AFCD15C4B5B68C3F308036A
:10D10000002B40F00A83EFF31183002B40F00583DE
:10D110004FF0E020D4F800368269D4F800168B4234
:10D12000F8D1D4F80C168A42F4D8D4F808064FF493
:10D130007A7101FB00FCACEB020CBCFBF0FC01FBC8
:10D1400003CCDFF828814FF0E0224FF47A7E4FF0D5
:10D15000100A4FF0010BD8F80430C3F30803002B7A
:10D1600040F00F81EFF31183002B40F00A81D4F8D7
:10D1700000369169D4F800068342F8D1D4F80C0641
:10D180008142F4D8D4F808960EFB09F0411AB1FB9D
:10D19000F9F10EFB0313A3EB0C03B3F57A7FDAD39B
:10D1A0000DF10F03099300238DF80F3005938DF8CF
:10D1B0001C3008930A930D93109312930123069346
:10D1C0000B938DF830308DF84430452300228DF8D4
:10D1D0000E3004A900233846CDE90E2304960FF043
:10D1E0001FFC2B695A6A002A00F0C38097423FD087
:10D1F000FEE71A6A002A3FF47FAF1A6A002AF8D1C4
:10D200007AE7EFF311838AF3128890691169C903F1
:10D2100002D5C4F804B69069D4F80016D4F8049680
:10D22000DBB283F311884944D4F808960EFB09F366
:10D230001B1AB3FBF9F30EFB013307E7EFF311827F
:10D24000102383F312884FF0E02399691869C00313
:10D2500003D50121C4F804169969D4F80006D4F85E
:10D260000436D2B282F3118803447DE400ED00E07D
:10D270001A6A002AFCD1A44B5B68C3F30803002B95
:10D2800040F02782EFF31183002B40F022824FF011
:10D29000E020D4F800368269D4F800168B42F8D129
:10D2A000D4F80C168A42F4D8D4F808064FF47A71F0
:10D2B00001FB00FCACEB020CBCFBF0FC01FB03CC63
:10D2C000DFF844824FF0E0224FF47A7E4FF0100AEC
:10D2D0004FF0010BD8F80430C3F30803002B40F0E3
:10D2E000F580EFF31183002B40F0F080D4F8003686
:10D2F0009169D4F800068342F8D1D4F80C06814233
:10D30000F4D8D4F808960EFB09F0411AB1FBF9F1F4
:10D310000EFB0313A3EB0C03B3F57A7FDAD30DF105
:10D320000F030993002305938DF81C3008930A938B
:10D330000D9310931293012306930B938DF83030C5
:10D340008DF8443046238DF80E30062300228DF8E8
:10D350000F3004A900233846CDE90E2304960FF0C0
:10D360005FFB2B695A6A002A00F0A880974225D0FB
:10D37000FEE71A6A002A3FF47EAF1A6A002AF8D143
:10D3800079E7EFF311838AF3128890691169C90371
:10D3900002D5C4F804B69069D4F80016D4F80496FF
:10D3A000DBB283F311884944D4F808960EFB09F3E5
:10D3B0001B1AB3FBF9F30EFB0133ECE61A6A002AE1
:10D3C000FCD1514B5B68C3F30803002B40F05D8137
:10D3D000EFF31183002B40F058814FF0E020D4F898
:10D3E00000368269D4F800168B42F8D1D4F80C16B6
:10D3F0008A42F4D8D4F808064FF47A7101FB00FC95
:10D40000ACEB020CBCFBF0FC01FB03CCDFF8F880BA
:10D410004FF0E0224FF47A7E4FF0100A4FF0010BEC
:10D42000D8F80430C3F30803002B40F0ED80EFF38D
:10D430001183002B40F0E880D4F800369169D4F8CD
:10D4400000068342F8D1D4F80C068142F4D8D4F80F
:10D4500008960EFB09F0411AB1FBF9F10EFB03131C
:10D46000A3EB0C03B3F57A7FDAD30DF10F03099325
:10D4700000238DF80F3005938DF81C3008930A9324
:10D480000D9310931293012306930B938DF8303074
:10D490008DF84430472300228DF80E3004A9002374
:10D4A0003846CDE90E2304960FF0BAFA2B695A6A72
:10D4B000002A00F0A280974228D0FEE71A6A002ACC
:10D4C0003FF47FAF1A6A002AF8D17AE7EFF31183AD
:10D4D0008AF3128890691169C90302D5C4F804B6A9
:10D4E0009069D4F80016D4F80496DBB283F311885F
:10D4F0004944D4F808960EFB09F31B1AB3FBF9F361
:10D500000EFB013306E700BF00ED00E01A6A002AB7
:10D51000FCD1CA4B5B68C3F30803002B40F0918039
:10D52000EFF31183002B40F08C804FF0E020D4F813
:10D5300000368269D4F800168B42F8D1D4F80C1664
:10D540008A42F4D8D4F808064FF47A7101FB00FC43
:10D55000ACEB020CBCFBF0FC01FB03CCDFF8DC8283
:10D56000D8F80430C3F308034FF0E0224FF47A7E7A
:10D570004FF0100A4FF0010B13BBEFF31183FBB90F
:10D58000D4F800369169D4F800068342F8D1D4F873
:10D590000C068142F4D8D4F808960EFB09F0411A23
:10D5A000B1FBF9F10EFB0313A3EB0C03B3F57A7F88
:10D5B000BEF41DABD8F80430C3F30803002BDCD055
:10D5C000EFF311838AF3128890691169C90302D5B8
:10D5D000C4F804B69069D4F80016D4F80496DBB207
:10D5E00083F311884944D4F808960EFB09F31B1AFB
:10D5F000B3FBF9F30EFB0133D6E71A6A002A88D091
:10D600001A6A002AF9D184E7EFF311838AF31288AA
:10D6100090691169C90302D5C4F804B69069D4F8B9
:10D620000016D4F80496DBB283F311884944D4F889
:10D6300008960EFB09F31B1AB3FBF9F30EFB01333B
:10D640000EE7EFF31182102383F312884FF0E023EB
:10D6500099691869C00303D50121C4F804169969B2
:10D66000D4F80006D4F80436D2B282F31188034409
:10D67000D4F808064FF47A7202FB00FCACEB010C04
:10D68000BCFBF0FC02FB03CC68E7EFF31182102334
:10D6900083F312884FF0E02399691869C00303D51A
:10D6A0000121C4F804169969D4F80006D4F80436A8
:10D6B000D2B282F311880344D4F808064FF47A7288
:10D6C00002FB00FCACEB010CBCFBF0FC02FB03CC4E
:10D6D0009CE6EFF31182102383F312884FF0E023CE
:10D6E00099691869C00303D50121C4F80416996922
:10D6F000D4F80006D4F80436D2B282F31188034479
:10D70000D4F808064FF47A7202FB00FCACEB010C73
:10D71000BCFBF0FC02FB03CCD2E5EFF3118210233B
:10D7200083F312884FF0E02399691869C00303D589
:10D730000121C4F804169969D4F80006D4F8043617
:10D74000D2B282F311880344D4F808064FF47A72F7
:10D7500002FB00FCACEB010CBCFBF0FC02FB03CCBD
:10D76000EFE4EFF31182102383F312884FF0E023EC
:10D7700099691869C00303D50121C4F80416996991
:10D78000D4F80006D4F80436D2B282F311880344E8
:10D79000D4F808064FF47A7202FB00FCACEB010CE3
:10D7A000BCFBF0FC02FB03CC26E4EFF31182102358
:10D7B00083F312884FF0E02399691869C00303D5F9
:10D7C0000121C4F804169969D4F80066D4F8043627
:10D7D000D2B282F31188D4F808064FF47A72334437
:10D7E00002FB00F6761AB6FBF0F602FB0366FFF7C3
:10D7F0008ABA1A6A002A3FF4DAAB1A6A002AF8D108
:10D80000FFF7D5BB1A6A002A3FF459AA1A6A002A00
:10D81000F8D1FFF754BA0423FFF753B80223FFF7F8
:10D8200050B82946064B41F80C3F002046F0C8FB93
:10D83000FFF727B80823FFF744B800BF00ED00E06A
:10D84000599200081023FFF73CB82023FFF739B89E
:10D850004023FFF736B810B403681A78012A0DD0B8
:10D86000022A1FD15A6A0AB190421BD11B6ACBB956
:10D870005DF8044B312274210FF0C2B90B4B3122F9
:10D8800083F8B02C026892F90440621C0AD0022C82
:10D8900008DC017903F54B632046F4225DF8044B64
:10D8A00045F006BD5DF8044B704700BFB817002077
:10D8B00008B503681A78012A07D193F90420074BA9
:10D8C000282101FB02335B7F2BB9054AF72146F083
:10D8D000F7FB012008BD0020FCE700BFB8170020BF
:10D8E0000C1D002008B503681A78012A05D0094AE2
:10D8F000002146F0E5FB012008BD93F90430064AFB
:10D9000003EB830302EBC3035B7F002BEFD000200C
:10D9100008BD00BF341D0020B81700202DE9F047D6
:10D92000089F884615460021202204461E4649F0DD
:10D9300012F94FB13B68E3811B0C23827B687A8923
